{
	"day10/p2.sol": {
		"Student": {
			"abi": [
				{
					"inputs": [
						{
							"internalType": "string",
							"name": "_studentName",
							"type": "string"
						},
						{
							"internalType": "string",
							"name": "_regNo",
							"type": "string"
						},
						{
							"internalType": "uint256",
							"name": "_marks",
							"type": "uint256"
						},
						{
							"internalType": "string",
							"name": "_deptName",
							"type": "string"
						},
						{
							"internalType": "string",
							"name": "_deptHead",
							"type": "string"
						},
						{
							"internalType": "string",
							"name": "_collegeName",
							"type": "string"
						},
						{
							"internalType": "string",
							"name": "_collegeCode",
							"type": "string"
						}
					],
					"stateMutability": "nonpayable",
					"type": "constructor"
				},
				{
					"inputs": [],
					"name": "collegeCode",
					"outputs": [
						{
							"internalType": "string",
							"name": "",
							"type": "string"
						}
					],
					"stateMutability": "view",
					"type": "function"
				},
				{
					"inputs": [],
					"name": "collegeName",
					"outputs": [
						{
							"internalType": "string",
							"name": "",
							"type": "string"
						}
					],
					"stateMutability": "view",
					"type": "function"
				},
				{
					"inputs": [],
					"name": "deptHead",
					"outputs": [
						{
							"internalType": "string",
							"name": "",
							"type": "string"
						}
					],
					"stateMutability": "view",
					"type": "function"
				},
				{
					"inputs": [],
					"name": "deptName",
					"outputs": [
						{
							"internalType": "string",
							"name": "",
							"type": "string"
						}
					],
					"stateMutability": "view",
					"type": "function"
				},
				{
					"inputs": [],
					"name": "display",
					"outputs": [
						{
							"internalType": "string",
							"name": "",
							"type": "string"
						}
					],
					"stateMutability": "view",
					"type": "function"
				},
				{
					"inputs": [],
					"name": "getDeptDetails",
					"outputs": [
						{
							"internalType": "string",
							"name": "",
							"type": "string"
						},
						{
							"internalType": "string",
							"name": "",
							"type": "string"
						}
					],
					"stateMutability": "view",
					"type": "function"
				},
				{
					"inputs": [],
					"name": "getStudentDetails",
					"outputs": [
						{
							"internalType": "string",
							"name": "",
							"type": "string"
						},
						{
							"internalType": "string",
							"name": "",
							"type": "string"
						},
						{
							"internalType": "uint256",
							"name": "",
							"type": "uint256"
						}
					],
					"stateMutability": "view",
					"type": "function"
				},
				{
					"inputs": [],
					"name": "marks",
					"outputs": [
						{
							"internalType": "uint256",
							"name": "",
							"type": "uint256"
						}
					],
					"stateMutability": "view",
					"type": "function"
				},
				{
					"inputs": [],
					"name": "printDeptDetails",
					"outputs": [
						{
							"internalType": "string",
							"name": "",
							"type": "string"
						}
					],
					"stateMutability": "view",
					"type": "function"
				},
				{
					"inputs": [],
					"name": "printReportCard",
					"outputs": [
						{
							"internalType": "string",
							"name": "",
							"type": "string"
						}
					],
					"stateMutability": "view",
					"type": "function"
				},
				{
					"inputs": [],
					"name": "regNo",
					"outputs": [
						{
							"internalType": "string",
							"name": "",
							"type": "string"
						}
					],
					"stateMutability": "view",
					"type": "function"
				},
				{
					"inputs": [],
					"name": "studentName",
					"outputs": [
						{
							"internalType": "string",
							"name": "",
							"type": "string"
						}
					],
					"stateMutability": "view",
					"type": "function"
				}
			],
			"devdoc": {
				"kind": "dev",
				"methods": {},
				"version": 1
			},
			"evm": {
				"assembly": "    /* \"day10/p2.sol\":664:2066  contract Student is Department, College {... */\n  mstore(0x40, 0x80)\n    /* \"day10/p2.sol\":857:1310  constructor(... */\n  callvalue\n  dup1\n  iszero\n  tag_1\n  jumpi\n  0x00\n  dup1\n  revert\ntag_1:\n  pop\n  mload(0x40)\n  sub(codesize, bytecodeSize)\n  dup1\n  bytecodeSize\n  dup4\n  codecopy\n  dup2\n  dup2\n  add\n  0x40\n  mstore\n  dup2\n  add\n  swap1\n  tag_2\n  swap2\n  swap1\n  tag_3\n  jump\t// in\ntag_2:\n    /* \"day10/p2.sol\":1119:1128  _deptName */\n  dup4\n    /* \"day10/p2.sol\":1130:1139  _deptHead */\n  dup4\n    /* \"day10/p2.sol\":314:323  _deptName */\n  dup2\n    /* \"day10/p2.sol\":303:311  deptName */\n  0x00\n    /* \"day10/p2.sol\":303:323  deptName = _deptName */\n  swap1\n  dup2\n  tag_7\n  swap2\n  swap1\n  tag_8\n  jump\t// in\ntag_7:\n  pop\n    /* \"day10/p2.sol\":345:354  _deptHead */\n  dup1\n    /* \"day10/p2.sol\":334:342  deptHead */\n  0x01\n    /* \"day10/p2.sol\":334:354  deptHead = _deptHead */\n  swap1\n  dup2\n  tag_9\n  swap2\n  swap1\n  tag_8\n  jump\t// in\ntag_9:\n  pop\n    /* \"day10/p2.sol\":230:362  constructor(string memory _deptName, string memory _deptHead) {... */\n  pop\n  pop\n    /* \"day10/p2.sol\":1166:1178  _studentName */\n  dup7\n    /* \"day10/p2.sol\":1152:1163  studentName */\n  0x02\n    /* \"day10/p2.sol\":1152:1178  studentName = _studentName */\n  swap1\n  dup2\n  tag_11\n  swap2\n  swap1\n  tag_8\n  jump\t// in\ntag_11:\n  pop\n    /* \"day10/p2.sol\":1197:1203  _regNo */\n  dup6\n    /* \"day10/p2.sol\":1189:1194  regNo */\n  0x03\n    /* \"day10/p2.sol\":1189:1203  regNo = _regNo */\n  swap1\n  dup2\n  tag_12\n  swap2\n  swap1\n  tag_8\n  jump\t// in\ntag_12:\n  pop\n    /* \"day10/p2.sol\":1222:1228  _marks */\n  dup5\n    /* \"day10/p2.sol\":1214:1219  marks */\n  0x04\n    /* \"day10/p2.sol\":1214:1228  marks = _marks */\n  dup2\n  swap1\n  sstore\n  pop\n    /* \"day10/p2.sol\":1253:1265  _collegeName */\n  dup2\n    /* \"day10/p2.sol\":1239:1250  collegeName */\n  0x05\n    /* \"day10/p2.sol\":1239:1265  collegeName = _collegeName */\n  swap1\n  dup2\n  tag_13\n  swap2\n  swap1\n  tag_8\n  jump\t// in\ntag_13:\n  pop\n    /* \"day10/p2.sol\":1290:1302  _collegeCode */\n  dup1\n    /* \"day10/p2.sol\":1276:1287  collegeCode */\n  0x06\n    /* \"day10/p2.sol\":1276:1302  collegeCode = _collegeCode */\n  swap1\n  dup2\n  tag_14\n  swap2\n  swap1\n  tag_8\n  jump\t// in\ntag_14:\n  pop\n    /* \"day10/p2.sol\":857:1310  constructor(... */\n  pop\n  pop\n  pop\n  pop\n  pop\n  pop\n  pop\n    /* \"day10/p2.sol\":664:2066  contract Student is Department, College {... */\n  jump(tag_15)\n    /* \"#utility.yul\":7:82   */\ntag_16:\n    /* \"#utility.yul\":40:46   */\n  0x00\n    /* \"#utility.yul\":73:75   */\n  0x40\n    /* \"#utility.yul\":67:76   */\n  mload\n    /* \"#utility.yul\":57:76   */\n  swap1\n  pop\n    /* \"#utility.yul\":7:82   */\n  swap1\n  jump\t// out\n    /* \"#utility.yul\":88:205   */\ntag_17:\n    /* \"#utility.yul\":197:198   */\n  0x00\n    /* \"#utility.yul\":194:195   */\n  dup1\n    /* \"#utility.yul\":187:199   */\n  revert\n    /* \"#utility.yul\":211:328   */\ntag_18:\n    /* \"#utility.yul\":320:321   */\n  0x00\n    /* \"#utility.yul\":317:318   */\n  dup1\n    /* \"#utility.yul\":310:322   */\n  revert\n    /* \"#utility.yul\":334:451   */\ntag_19:\n    /* \"#utility.yul\":443:444   */\n  0x00\n    /* \"#utility.yul\":440:441   */\n  dup1\n    /* \"#utility.yul\":433:445   */\n  revert\n    /* \"#utility.yul\":457:574   */\ntag_20:\n    /* \"#utility.yul\":566:567   */\n  0x00\n    /* \"#utility.yul\":563:564   */\n  dup1\n    /* \"#utility.yul\":556:568   */\n  revert\n    /* \"#utility.yul\":580:682   */\ntag_21:\n    /* \"#utility.yul\":621:627   */\n  0x00\n    /* \"#utility.yul\":672:674   */\n  0x1f\n    /* \"#utility.yul\":668:675   */\n  not\n    /* \"#utility.yul\":663:665   */\n  0x1f\n    /* \"#utility.yul\":656:661   */\n  dup4\n    /* \"#utility.yul\":652:666   */\n  add\n    /* \"#utility.yul\":648:676   */\n  and\n    /* \"#utility.yul\":638:676   */\n  swap1\n  pop\n    /* \"#utility.yul\":580:682   */\n  swap2\n  swap1\n  pop\n  jump\t// out\n    /* \"#utility.yul\":688:868   */\ntag_22:\n    /* \"#utility.yul\":736:813   */\n  0x4e487b7100000000000000000000000000000000000000000000000000000000\n    /* \"#utility.yul\":733:734   */\n  0x00\n    /* \"#utility.yul\":726:814   */\n  mstore\n    /* \"#utility.yul\":833:837   */\n  0x41\n    /* \"#utility.yul\":830:831   */\n  0x04\n    /* \"#utility.yul\":823:838   */\n  mstore\n    /* \"#utility.yul\":857:861   */\n  0x24\n    /* \"#utility.yul\":854:855   */\n  0x00\n    /* \"#utility.yul\":847:862   */\n  revert\n    /* \"#utility.yul\":874:1155   */\ntag_23:\n    /* \"#utility.yul\":957:984   */\n  tag_59\n    /* \"#utility.yul\":979:983   */\n  dup3\n    /* \"#utility.yul\":957:984   */\n  tag_21\n  jump\t// in\ntag_59:\n    /* \"#utility.yul\":949:955   */\n  dup2\n    /* \"#utility.yul\":945:985   */\n  add\n    /* \"#utility.yul\":1087:1093   */\n  dup2\n    /* \"#utility.yul\":1075:1085   */\n  dup2\n    /* \"#utility.yul\":1072:1094   */\n  lt\n    /* \"#utility.yul\":1051:1069   */\n  0xffffffffffffffff\n    /* \"#utility.yul\":1039:1049   */\n  dup3\n    /* \"#utility.yul\":1036:1070   */\n  gt\n    /* \"#utility.yul\":1033:1095   */\n  or\n    /* \"#utility.yul\":1030:1118   */\n  iszero\n  tag_60\n  jumpi\n    /* \"#utility.yul\":1098:1116   */\n  tag_61\n  tag_22\n  jump\t// in\ntag_61:\n    /* \"#utility.yul\":1030:1118   */\ntag_60:\n    /* \"#utility.yul\":1138:1148   */\n  dup1\n    /* \"#utility.yul\":1134:1136   */\n  0x40\n    /* \"#utility.yul\":1127:1149   */\n  mstore\n    /* \"#utility.yul\":917:1155   */\n  pop\n    /* \"#utility.yul\":874:1155   */\n  pop\n  pop\n  jump\t// out\n    /* \"#utility.yul\":1161:1290   */\ntag_24:\n    /* \"#utility.yul\":1195:1201   */\n  0x00\n    /* \"#utility.yul\":1222:1242   */\n  tag_63\n  tag_16\n  jump\t// in\ntag_63:\n    /* \"#utility.yul\":1212:1242   */\n  swap1\n  pop\n    /* \"#utility.yul\":1251:1284   */\n  tag_64\n    /* \"#utility.yul\":1279:1283   */\n  dup3\n    /* \"#utility.yul\":1271:1277   */\n  dup3\n    /* \"#utility.yul\":1251:1284   */\n  tag_23\n  jump\t// in\ntag_64:\n    /* \"#utility.yul\":1161:1290   */\n  swap2\n  swap1\n  pop\n  jump\t// out\n    /* \"#utility.yul\":1296:1604   */\ntag_25:\n    /* \"#utility.yul\":1358:1362   */\n  0x00\n    /* \"#utility.yul\":1448:1466   */\n  0xffffffffffffffff\n    /* \"#utility.yul\":1440:1446   */\n  dup3\n    /* \"#utility.yul\":1437:1467   */\n  gt\n    /* \"#utility.yul\":1434:1490   */\n  iszero\n  tag_66\n  jumpi\n    /* \"#utility.yul\":1470:1488   */\n  tag_67\n  tag_22\n  jump\t// in\ntag_67:\n    /* \"#utility.yul\":1434:1490   */\ntag_66:\n    /* \"#utility.yul\":1508:1537   */\n  tag_68\n    /* \"#utility.yul\":1530:1536   */\n  dup3\n    /* \"#utility.yul\":1508:1537   */\n  tag_21\n  jump\t// in\ntag_68:\n    /* \"#utility.yul\":1500:1537   */\n  swap1\n  pop\n    /* \"#utility.yul\":1592:1596   */\n  0x20\n    /* \"#utility.yul\":1586:1590   */\n  dup2\n    /* \"#utility.yul\":1582:1597   */\n  add\n    /* \"#utility.yul\":1574:1597   */\n  swap1\n  pop\n    /* \"#utility.yul\":1296:1604   */\n  swap2\n  swap1\n  pop\n  jump\t// out\n    /* \"#utility.yul\":1610:1749   */\ntag_26:\n    /* \"#utility.yul\":1699:1705   */\n  dup3\n    /* \"#utility.yul\":1694:1697   */\n  dup2\n    /* \"#utility.yul\":1689:1692   */\n  dup4\n    /* \"#utility.yul\":1683:1706   */\n  mcopy\n    /* \"#utility.yul\":1740:1741   */\n  0x00\n    /* \"#utility.yul\":1731:1737   */\n  dup4\n    /* \"#utility.yul\":1726:1729   */\n  dup4\n    /* \"#utility.yul\":1722:1738   */\n  add\n    /* \"#utility.yul\":1715:1742   */\n  mstore\n    /* \"#utility.yul\":1610:1749   */\n  pop\n  pop\n  pop\n  jump\t// out\n    /* \"#utility.yul\":1755:2189   */\ntag_27:\n    /* \"#utility.yul\":1844:1849   */\n  0x00\n    /* \"#utility.yul\":1869:1935   */\n  tag_71\n    /* \"#utility.yul\":1885:1934   */\n  tag_72\n    /* \"#utility.yul\":1927:1933   */\n  dup5\n    /* \"#utility.yul\":1885:1934   */\n  tag_25\n  jump\t// in\ntag_72:\n    /* \"#utility.yul\":1869:1935   */\n  tag_24\n  jump\t// in\ntag_71:\n    /* \"#utility.yul\":1860:1935   */\n  swap1\n  pop\n    /* \"#utility.yul\":1958:1964   */\n  dup3\n    /* \"#utility.yul\":1951:1956   */\n  dup2\n    /* \"#utility.yul\":1944:1965   */\n  mstore\n    /* \"#utility.yul\":1996:2000   */\n  0x20\n    /* \"#utility.yul\":1989:1994   */\n  dup2\n    /* \"#utility.yul\":1985:2001   */\n  add\n    /* \"#utility.yul\":2034:2037   */\n  dup5\n    /* \"#utility.yul\":2025:2031   */\n  dup5\n    /* \"#utility.yul\":2020:2023   */\n  dup5\n    /* \"#utility.yul\":2016:2032   */\n  add\n    /* \"#utility.yul\":2013:2038   */\n  gt\n    /* \"#utility.yul\":2010:2122   */\n  iszero\n  tag_73\n  jumpi\n    /* \"#utility.yul\":2041:2120   */\n  tag_74\n  tag_20\n  jump\t// in\ntag_74:\n    /* \"#utility.yul\":2010:2122   */\ntag_73:\n    /* \"#utility.yul\":2131:2183   */\n  tag_75\n    /* \"#utility.yul\":2176:2182   */\n  dup5\n    /* \"#utility.yul\":2171:2174   */\n  dup3\n    /* \"#utility.yul\":2166:2169   */\n  dup6\n    /* \"#utility.yul\":2131:2183   */\n  tag_26\n  jump\t// in\ntag_75:\n    /* \"#utility.yul\":1850:2189   */\n  pop\n    /* \"#utility.yul\":1755:2189   */\n  swap4\n  swap3\n  pop\n  pop\n  pop\n  jump\t// out\n    /* \"#utility.yul\":2209:2564   */\ntag_28:\n    /* \"#utility.yul\":2276:2281   */\n  0x00\n    /* \"#utility.yul\":2325:2328   */\n  dup3\n    /* \"#utility.yul\":2318:2322   */\n  0x1f\n    /* \"#utility.yul\":2310:2316   */\n  dup4\n    /* \"#utility.yul\":2306:2323   */\n  add\n    /* \"#utility.yul\":2302:2329   */\n  slt\n    /* \"#utility.yul\":2292:2414   */\n  tag_77\n  jumpi\n    /* \"#utility.yul\":2333:2412   */\n  tag_78\n  tag_19\n  jump\t// in\ntag_78:\n    /* \"#utility.yul\":2292:2414   */\ntag_77:\n    /* \"#utility.yul\":2443:2449   */\n  dup2\n    /* \"#utility.yul\":2437:2450   */\n  mload\n    /* \"#utility.yul\":2468:2558   */\n  tag_79\n    /* \"#utility.yul\":2554:2557   */\n  dup5\n    /* \"#utility.yul\":2546:2552   */\n  dup3\n    /* \"#utility.yul\":2539:2543   */\n  0x20\n    /* \"#utility.yul\":2531:2537   */\n  dup7\n    /* \"#utility.yul\":2527:2544   */\n  add\n    /* \"#utility.yul\":2468:2558   */\n  tag_27\n  jump\t// in\ntag_79:\n    /* \"#utility.yul\":2459:2558   */\n  swap2\n  pop\n    /* \"#utility.yul\":2282:2564   */\n  pop\n    /* \"#utility.yul\":2209:2564   */\n  swap3\n  swap2\n  pop\n  pop\n  jump\t// out\n    /* \"#utility.yul\":2570:2647   */\ntag_29:\n    /* \"#utility.yul\":2607:2614   */\n  0x00\n    /* \"#utility.yul\":2636:2641   */\n  dup2\n    /* \"#utility.yul\":2625:2641   */\n  swap1\n  pop\n    /* \"#utility.yul\":2570:2647   */\n  swap2\n  swap1\n  pop\n  jump\t// out\n    /* \"#utility.yul\":2653:2775   */\ntag_30:\n    /* \"#utility.yul\":2726:2750   */\n  tag_82\n    /* \"#utility.yul\":2744:2749   */\n  dup2\n    /* \"#utility.yul\":2726:2750   */\n  tag_29\n  jump\t// in\ntag_82:\n    /* \"#utility.yul\":2719:2724   */\n  dup2\n    /* \"#utility.yul\":2716:2751   */\n  eq\n    /* \"#utility.yul\":2706:2769   */\n  tag_83\n  jumpi\n    /* \"#utility.yul\":2765:2766   */\n  0x00\n    /* \"#utility.yul\":2762:2763   */\n  dup1\n    /* \"#utility.yul\":2755:2767   */\n  revert\n    /* \"#utility.yul\":2706:2769   */\ntag_83:\n    /* \"#utility.yul\":2653:2775   */\n  pop\n  jump\t// out\n    /* \"#utility.yul\":2781:2924   */\ntag_31:\n    /* \"#utility.yul\":2838:2843   */\n  0x00\n    /* \"#utility.yul\":2869:2875   */\n  dup2\n    /* \"#utility.yul\":2863:2876   */\n  mload\n    /* \"#utility.yul\":2854:2876   */\n  swap1\n  pop\n    /* \"#utility.yul\":2885:2918   */\n  tag_85\n    /* \"#utility.yul\":2912:2917   */\n  dup2\n    /* \"#utility.yul\":2885:2918   */\n  tag_30\n  jump\t// in\ntag_85:\n    /* \"#utility.yul\":2781:2924   */\n  swap3\n  swap2\n  pop\n  pop\n  jump\t// out\n    /* \"#utility.yul\":2930:5259   */\ntag_3:\n    /* \"#utility.yul\":3114:3120   */\n  0x00\n    /* \"#utility.yul\":3122:3128   */\n  dup1\n    /* \"#utility.yul\":3130:3136   */\n  0x00\n    /* \"#utility.yul\":3138:3144   */\n  dup1\n    /* \"#utility.yul\":3146:3152   */\n  0x00\n    /* \"#utility.yul\":3154:3160   */\n  dup1\n    /* \"#utility.yul\":3162:3168   */\n  0x00\n    /* \"#utility.yul\":3211:3214   */\n  0xe0\n    /* \"#utility.yul\":3199:3208   */\n  dup9\n    /* \"#utility.yul\":3190:3197   */\n  dup11\n    /* \"#utility.yul\":3186:3209   */\n  sub\n    /* \"#utility.yul\":3182:3215   */\n  slt\n    /* \"#utility.yul\":3179:3299   */\n  iszero\n  tag_87\n  jumpi\n    /* \"#utility.yul\":3218:3297   */\n  tag_88\n  tag_17\n  jump\t// in\ntag_88:\n    /* \"#utility.yul\":3179:3299   */\ntag_87:\n    /* \"#utility.yul\":3359:3360   */\n  0x00\n    /* \"#utility.yul\":3348:3357   */\n  dup9\n    /* \"#utility.yul\":3344:3361   */\n  add\n    /* \"#utility.yul\":3338:3362   */\n  mload\n    /* \"#utility.yul\":3389:3407   */\n  0xffffffffffffffff\n    /* \"#utility.yul\":3381:3387   */\n  dup2\n    /* \"#utility.yul\":3378:3408   */\n  gt\n    /* \"#utility.yul\":3375:3492   */\n  iszero\n  tag_89\n  jumpi\n    /* \"#utility.yul\":3411:3490   */\n  tag_90\n  tag_18\n  jump\t// in\ntag_90:\n    /* \"#utility.yul\":3375:3492   */\ntag_89:\n    /* \"#utility.yul\":3516:3590   */\n  tag_91\n    /* \"#utility.yul\":3582:3589   */\n  dup11\n    /* \"#utility.yul\":3573:3579   */\n  dup3\n    /* \"#utility.yul\":3562:3571   */\n  dup12\n    /* \"#utility.yul\":3558:3580   */\n  add\n    /* \"#utility.yul\":3516:3590   */\n  tag_28\n  jump\t// in\ntag_91:\n    /* \"#utility.yul\":3506:3590   */\n  swap8\n  pop\n    /* \"#utility.yul\":3309:3600   */\n  pop\n    /* \"#utility.yul\":3660:3662   */\n  0x20\n    /* \"#utility.yul\":3649:3658   */\n  dup9\n    /* \"#utility.yul\":3645:3663   */\n  add\n    /* \"#utility.yul\":3639:3664   */\n  mload\n    /* \"#utility.yul\":3691:3709   */\n  0xffffffffffffffff\n    /* \"#utility.yul\":3683:3689   */\n  dup2\n    /* \"#utility.yul\":3680:3710   */\n  gt\n    /* \"#utility.yul\":3677:3794   */\n  iszero\n  tag_92\n  jumpi\n    /* \"#utility.yul\":3713:3792   */\n  tag_93\n  tag_18\n  jump\t// in\ntag_93:\n    /* \"#utility.yul\":3677:3794   */\ntag_92:\n    /* \"#utility.yul\":3818:3892   */\n  tag_94\n    /* \"#utility.yul\":3884:3891   */\n  dup11\n    /* \"#utility.yul\":3875:3881   */\n  dup3\n    /* \"#utility.yul\":3864:3873   */\n  dup12\n    /* \"#utility.yul\":3860:3882   */\n  add\n    /* \"#utility.yul\":3818:3892   */\n  tag_28\n  jump\t// in\ntag_94:\n    /* \"#utility.yul\":3808:3892   */\n  swap7\n  pop\n    /* \"#utility.yul\":3610:3902   */\n  pop\n    /* \"#utility.yul\":3941:3943   */\n  0x40\n    /* \"#utility.yul\":3967:4031   */\n  tag_95\n    /* \"#utility.yul\":4023:4030   */\n  dup11\n    /* \"#utility.yul\":4014:4020   */\n  dup3\n    /* \"#utility.yul\":4003:4012   */\n  dup12\n    /* \"#utility.yul\":3999:4021   */\n  add\n    /* \"#utility.yul\":3967:4031   */\n  tag_31\n  jump\t// in\ntag_95:\n    /* \"#utility.yul\":3957:4031   */\n  swap6\n  pop\n    /* \"#utility.yul\":3912:4041   */\n  pop\n    /* \"#utility.yul\":4101:4103   */\n  0x60\n    /* \"#utility.yul\":4090:4099   */\n  dup9\n    /* \"#utility.yul\":4086:4104   */\n  add\n    /* \"#utility.yul\":4080:4105   */\n  mload\n    /* \"#utility.yul\":4132:4150   */\n  0xffffffffffffffff\n    /* \"#utility.yul\":4124:4130   */\n  dup2\n    /* \"#utility.yul\":4121:4151   */\n  gt\n    /* \"#utility.yul\":4118:4235   */\n  iszero\n  tag_96\n  jumpi\n    /* \"#utility.yul\":4154:4233   */\n  tag_97\n  tag_18\n  jump\t// in\ntag_97:\n    /* \"#utility.yul\":4118:4235   */\ntag_96:\n    /* \"#utility.yul\":4259:4333   */\n  tag_98\n    /* \"#utility.yul\":4325:4332   */\n  dup11\n    /* \"#utility.yul\":4316:4322   */\n  dup3\n    /* \"#utility.yul\":4305:4314   */\n  dup12\n    /* \"#utility.yul\":4301:4323   */\n  add\n    /* \"#utility.yul\":4259:4333   */\n  tag_28\n  jump\t// in\ntag_98:\n    /* \"#utility.yul\":4249:4333   */\n  swap5\n  pop\n    /* \"#utility.yul\":4051:4343   */\n  pop\n    /* \"#utility.yul\":4403:4406   */\n  0x80\n    /* \"#utility.yul\":4392:4401   */\n  dup9\n    /* \"#utility.yul\":4388:4407   */\n  add\n    /* \"#utility.yul\":4382:4408   */\n  mload\n    /* \"#utility.yul\":4435:4453   */\n  0xffffffffffffffff\n    /* \"#utility.yul\":4427:4433   */\n  dup2\n    /* \"#utility.yul\":4424:4454   */\n  gt\n    /* \"#utility.yul\":4421:4538   */\n  iszero\n  tag_99\n  jumpi\n    /* \"#utility.yul\":4457:4536   */\n  tag_100\n  tag_18\n  jump\t// in\ntag_100:\n    /* \"#utility.yul\":4421:4538   */\ntag_99:\n    /* \"#utility.yul\":4562:4636   */\n  tag_101\n    /* \"#utility.yul\":4628:4635   */\n  dup11\n    /* \"#utility.yul\":4619:4625   */\n  dup3\n    /* \"#utility.yul\":4608:4617   */\n  dup12\n    /* \"#utility.yul\":4604:4626   */\n  add\n    /* \"#utility.yul\":4562:4636   */\n  tag_28\n  jump\t// in\ntag_101:\n    /* \"#utility.yul\":4552:4636   */\n  swap4\n  pop\n    /* \"#utility.yul\":4353:4646   */\n  pop\n    /* \"#utility.yul\":4706:4709   */\n  0xa0\n    /* \"#utility.yul\":4695:4704   */\n  dup9\n    /* \"#utility.yul\":4691:4710   */\n  add\n    /* \"#utility.yul\":4685:4711   */\n  mload\n    /* \"#utility.yul\":4738:4756   */\n  0xffffffffffffffff\n    /* \"#utility.yul\":4730:4736   */\n  dup2\n    /* \"#utility.yul\":4727:4757   */\n  gt\n    /* \"#utility.yul\":4724:4841   */\n  iszero\n  tag_102\n  jumpi\n    /* \"#utility.yul\":4760:4839   */\n  tag_103\n  tag_18\n  jump\t// in\ntag_103:\n    /* \"#utility.yul\":4724:4841   */\ntag_102:\n    /* \"#utility.yul\":4865:4939   */\n  tag_104\n    /* \"#utility.yul\":4931:4938   */\n  dup11\n    /* \"#utility.yul\":4922:4928   */\n  dup3\n    /* \"#utility.yul\":4911:4920   */\n  dup12\n    /* \"#utility.yul\":4907:4929   */\n  add\n    /* \"#utility.yul\":4865:4939   */\n  tag_28\n  jump\t// in\ntag_104:\n    /* \"#utility.yul\":4855:4939   */\n  swap3\n  pop\n    /* \"#utility.yul\":4656:4949   */\n  pop\n    /* \"#utility.yul\":5009:5012   */\n  0xc0\n    /* \"#utility.yul\":4998:5007   */\n  dup9\n    /* \"#utility.yul\":4994:5013   */\n  add\n    /* \"#utility.yul\":4988:5014   */\n  mload\n    /* \"#utility.yul\":5041:5059   */\n  0xffffffffffffffff\n    /* \"#utility.yul\":5033:5039   */\n  dup2\n    /* \"#utility.yul\":5030:5060   */\n  gt\n    /* \"#utility.yul\":5027:5144   */\n  iszero\n  tag_105\n  jumpi\n    /* \"#utility.yul\":5063:5142   */\n  tag_106\n  tag_18\n  jump\t// in\ntag_106:\n    /* \"#utility.yul\":5027:5144   */\ntag_105:\n    /* \"#utility.yul\":5168:5242   */\n  tag_107\n    /* \"#utility.yul\":5234:5241   */\n  dup11\n    /* \"#utility.yul\":5225:5231   */\n  dup3\n    /* \"#utility.yul\":5214:5223   */\n  dup12\n    /* \"#utility.yul\":5210:5232   */\n  add\n    /* \"#utility.yul\":5168:5242   */\n  tag_28\n  jump\t// in\ntag_107:\n    /* \"#utility.yul\":5158:5242   */\n  swap2\n  pop\n    /* \"#utility.yul\":4959:5252   */\n  pop\n    /* \"#utility.yul\":2930:5259   */\n  swap3\n  swap6\n  swap9\n  swap2\n  swap5\n  swap8\n  pop\n  swap3\n  swap6\n  pop\n  jump\t// out\n    /* \"#utility.yul\":5265:5364   */\ntag_32:\n    /* \"#utility.yul\":5317:5323   */\n  0x00\n    /* \"#utility.yul\":5351:5356   */\n  dup2\n    /* \"#utility.yul\":5345:5357   */\n  mload\n    /* \"#utility.yul\":5335:5357   */\n  swap1\n  pop\n    /* \"#utility.yul\":5265:5364   */\n  swap2\n  swap1\n  pop\n  jump\t// out\n    /* \"#utility.yul\":5370:5550   */\ntag_33:\n    /* \"#utility.yul\":5418:5495   */\n  0x4e487b7100000000000000000000000000000000000000000000000000000000\n    /* \"#utility.yul\":5415:5416   */\n  0x00\n    /* \"#utility.yul\":5408:5496   */\n  mstore\n    /* \"#utility.yul\":5515:5519   */\n  0x22\n    /* \"#utility.yul\":5512:5513   */\n  0x04\n    /* \"#utility.yul\":5505:5520   */\n  mstore\n    /* \"#utility.yul\":5539:5543   */\n  0x24\n    /* \"#utility.yul\":5536:5537   */\n  0x00\n    /* \"#utility.yul\":5529:5544   */\n  revert\n    /* \"#utility.yul\":5556:5876   */\ntag_34:\n    /* \"#utility.yul\":5600:5606   */\n  0x00\n    /* \"#utility.yul\":5637:5638   */\n  0x02\n    /* \"#utility.yul\":5631:5635   */\n  dup3\n    /* \"#utility.yul\":5627:5639   */\n  div\n    /* \"#utility.yul\":5617:5639   */\n  swap1\n  pop\n    /* \"#utility.yul\":5684:5685   */\n  0x01\n    /* \"#utility.yul\":5678:5682   */\n  dup3\n    /* \"#utility.yul\":5674:5686   */\n  and\n    /* \"#utility.yul\":5705:5723   */\n  dup1\n    /* \"#utility.yul\":5695:5776   */\n  tag_111\n  jumpi\n    /* \"#utility.yul\":5761:5765   */\n  0x7f\n    /* \"#utility.yul\":5753:5759   */\n  dup3\n    /* \"#utility.yul\":5749:5766   */\n  and\n    /* \"#utility.yul\":5739:5766   */\n  swap2\n  pop\n    /* \"#utility.yul\":5695:5776   */\ntag_111:\n    /* \"#utility.yul\":5823:5825   */\n  0x20\n    /* \"#utility.yul\":5815:5821   */\n  dup3\n    /* \"#utility.yul\":5812:5826   */\n  lt\n    /* \"#utility.yul\":5792:5810   */\n  dup2\n    /* \"#utility.yul\":5789:5827   */\n  sub\n    /* \"#utility.yul\":5786:5870   */\n  tag_112\n  jumpi\n    /* \"#utility.yul\":5842:5860   */\n  tag_113\n  tag_33\n  jump\t// in\ntag_113:\n    /* \"#utility.yul\":5786:5870   */\ntag_112:\n    /* \"#utility.yul\":5607:5876   */\n  pop\n    /* \"#utility.yul\":5556:5876   */\n  swap2\n  swap1\n  pop\n  jump\t// out\n    /* \"#utility.yul\":5882:6023   */\ntag_35:\n    /* \"#utility.yul\":5931:5935   */\n  0x00\n    /* \"#utility.yul\":5954:5957   */\n  dup2\n    /* \"#utility.yul\":5946:5957   */\n  swap1\n  pop\n    /* \"#utility.yul\":5977:5980   */\n  dup2\n    /* \"#utility.yul\":5974:5975   */\n  0x00\n    /* \"#utility.yul\":5967:5981   */\n  mstore\n    /* \"#utility.yul\":6011:6015   */\n  0x20\n    /* \"#utility.yul\":6008:6009   */\n  0x00\n    /* \"#utility.yul\":5998:6016   */\n  keccak256\n    /* \"#utility.yul\":5990:6016   */\n  swap1\n  pop\n    /* \"#utility.yul\":5882:6023   */\n  swap2\n  swap1\n  pop\n  jump\t// out\n    /* \"#utility.yul\":6029:6122   */\ntag_36:\n    /* \"#utility.yul\":6066:6072   */\n  0x00\n    /* \"#utility.yul\":6113:6115   */\n  0x20\n    /* \"#utility.yul\":6108:6110   */\n  0x1f\n    /* \"#utility.yul\":6101:6106   */\n  dup4\n    /* \"#utility.yul\":6097:6111   */\n  add\n    /* \"#utility.yul\":6093:6116   */\n  div\n    /* \"#utility.yul\":6083:6116   */\n  swap1\n  pop\n    /* \"#utility.yul\":6029:6122   */\n  swap2\n  swap1\n  pop\n  jump\t// out\n    /* \"#utility.yul\":6128:6235   */\ntag_37:\n    /* \"#utility.yul\":6172:6180   */\n  0x00\n    /* \"#utility.yul\":6222:6227   */\n  dup3\n    /* \"#utility.yul\":6216:6220   */\n  dup3\n    /* \"#utility.yul\":6212:6228   */\n  shl\n    /* \"#utility.yul\":6191:6228   */\n  swap1\n  pop\n    /* \"#utility.yul\":6128:6235   */\n  swap3\n  swap2\n  pop\n  pop\n  jump\t// out\n    /* \"#utility.yul\":6241:6634   */\ntag_38:\n    /* \"#utility.yul\":6310:6316   */\n  0x00\n    /* \"#utility.yul\":6360:6361   */\n  0x08\n    /* \"#utility.yul\":6348:6358   */\n  dup4\n    /* \"#utility.yul\":6344:6362   */\n  mul\n    /* \"#utility.yul\":6383:6480   */\n  tag_118\n    /* \"#utility.yul\":6413:6479   */\n  0xffffffffffffffffffffffffffffffffffffffffffffffffffffffffffffffff\n    /* \"#utility.yul\":6402:6411   */\n  dup3\n    /* \"#utility.yul\":6383:6480   */\n  tag_37\n  jump\t// in\ntag_118:\n    /* \"#utility.yul\":6501:6540   */\n  tag_119\n    /* \"#utility.yul\":6531:6539   */\n  dup7\n    /* \"#utility.yul\":6520:6529   */\n  dup4\n    /* \"#utility.yul\":6501:6540   */\n  tag_37\n  jump\t// in\ntag_119:\n    /* \"#utility.yul\":6489:6540   */\n  swap6\n  pop\n    /* \"#utility.yul\":6573:6577   */\n  dup1\n    /* \"#utility.yul\":6569:6578   */\n  not\n    /* \"#utility.yul\":6562:6567   */\n  dup5\n    /* \"#utility.yul\":6558:6579   */\n  and\n    /* \"#utility.yul\":6549:6579   */\n  swap4\n  pop\n    /* \"#utility.yul\":6622:6626   */\n  dup1\n    /* \"#utility.yul\":6612:6620   */\n  dup7\n    /* \"#utility.yul\":6608:6627   */\n  and\n    /* \"#utility.yul\":6601:6606   */\n  dup5\n    /* \"#utility.yul\":6598:6628   */\n  or\n    /* \"#utility.yul\":6588:6628   */\n  swap3\n  pop\n    /* \"#utility.yul\":6317:6634   */\n  pop\n  pop\n    /* \"#utility.yul\":6241:6634   */\n  swap4\n  swap3\n  pop\n  pop\n  pop\n  jump\t// out\n    /* \"#utility.yul\":6640:6700   */\ntag_39:\n    /* \"#utility.yul\":6668:6671   */\n  0x00\n    /* \"#utility.yul\":6689:6694   */\n  dup2\n    /* \"#utility.yul\":6682:6694   */\n  swap1\n  pop\n    /* \"#utility.yul\":6640:6700   */\n  swap2\n  swap1\n  pop\n  jump\t// out\n    /* \"#utility.yul\":6706:6848   */\ntag_40:\n    /* \"#utility.yul\":6756:6765   */\n  0x00\n    /* \"#utility.yul\":6789:6842   */\n  tag_122\n    /* \"#utility.yul\":6807:6841   */\n  tag_123\n    /* \"#utility.yul\":6816:6840   */\n  tag_124\n    /* \"#utility.yul\":6834:6839   */\n  dup5\n    /* \"#utility.yul\":6816:6840   */\n  tag_29\n  jump\t// in\ntag_124:\n    /* \"#utility.yul\":6807:6841   */\n  tag_39\n  jump\t// in\ntag_123:\n    /* \"#utility.yul\":6789:6842   */\n  tag_29\n  jump\t// in\ntag_122:\n    /* \"#utility.yul\":6776:6842   */\n  swap1\n  pop\n    /* \"#utility.yul\":6706:6848   */\n  swap2\n  swap1\n  pop\n  jump\t// out\n    /* \"#utility.yul\":6854:6929   */\ntag_41:\n    /* \"#utility.yul\":6897:6900   */\n  0x00\n    /* \"#utility.yul\":6918:6923   */\n  dup2\n    /* \"#utility.yul\":6911:6923   */\n  swap1\n  pop\n    /* \"#utility.yul\":6854:6929   */\n  swap2\n  swap1\n  pop\n  jump\t// out\n    /* \"#utility.yul\":6935:7204   */\ntag_42:\n    /* \"#utility.yul\":7045:7084   */\n  tag_127\n    /* \"#utility.yul\":7076:7083   */\n  dup4\n    /* \"#utility.yul\":7045:7084   */\n  tag_40\n  jump\t// in\ntag_127:\n    /* \"#utility.yul\":7106:7197   */\n  tag_128\n    /* \"#utility.yul\":7155:7196   */\n  tag_129\n    /* \"#utility.yul\":7179:7195   */\n  dup3\n    /* \"#utility.yul\":7155:7196   */\n  tag_41\n  jump\t// in\ntag_129:\n    /* \"#utility.yul\":7147:7153   */\n  dup5\n    /* \"#utility.yul\":7140:7144   */\n  dup5\n    /* \"#utility.yul\":7134:7145   */\n  sload\n    /* \"#utility.yul\":7106:7197   */\n  tag_38\n  jump\t// in\ntag_128:\n    /* \"#utility.yul\":7100:7104   */\n  dup3\n    /* \"#utility.yul\":7093:7198   */\n  sstore\n    /* \"#utility.yul\":7011:7204   */\n  pop\n    /* \"#utility.yul\":6935:7204   */\n  pop\n  pop\n  pop\n  jump\t// out\n    /* \"#utility.yul\":7210:7283   */\ntag_43:\n    /* \"#utility.yul\":7255:7258   */\n  0x00\n    /* \"#utility.yul\":7210:7283   */\n  swap1\n  jump\t// out\n    /* \"#utility.yul\":7289:7478   */\ntag_44:\n    /* \"#utility.yul\":7366:7398   */\n  tag_132\n  tag_43\n  jump\t// in\ntag_132:\n    /* \"#utility.yul\":7407:7472   */\n  tag_133\n    /* \"#utility.yul\":7465:7471   */\n  dup2\n    /* \"#utility.yul\":7457:7463   */\n  dup5\n    /* \"#utility.yul\":7451:7455   */\n  dup5\n    /* \"#utility.yul\":7407:7472   */\n  tag_42\n  jump\t// in\ntag_133:\n    /* \"#utility.yul\":7342:7478   */\n  pop\n    /* \"#utility.yul\":7289:7478   */\n  pop\n  pop\n  jump\t// out\n    /* \"#utility.yul\":7484:7670   */\ntag_45:\n    /* \"#utility.yul\":7544:7664   */\ntag_135:\n    /* \"#utility.yul\":7561:7564   */\n  dup2\n    /* \"#utility.yul\":7554:7559   */\n  dup2\n    /* \"#utility.yul\":7551:7565   */\n  lt\n    /* \"#utility.yul\":7544:7664   */\n  iszero\n  tag_137\n  jumpi\n    /* \"#utility.yul\":7615:7654   */\n  tag_138\n    /* \"#utility.yul\":7652:7653   */\n  0x00\n    /* \"#utility.yul\":7645:7650   */\n  dup3\n    /* \"#utility.yul\":7615:7654   */\n  tag_44\n  jump\t// in\ntag_138:\n    /* \"#utility.yul\":7588:7589   */\n  0x01\n    /* \"#utility.yul\":7581:7586   */\n  dup2\n    /* \"#utility.yul\":7577:7590   */\n  add\n    /* \"#utility.yul\":7568:7590   */\n  swap1\n  pop\n    /* \"#utility.yul\":7544:7664   */\n  jump(tag_135)\ntag_137:\n    /* \"#utility.yul\":7484:7670   */\n  pop\n  pop\n  jump\t// out\n    /* \"#utility.yul\":7676:8219   */\ntag_46:\n    /* \"#utility.yul\":7777:7779   */\n  0x1f\n    /* \"#utility.yul\":7772:7775   */\n  dup3\n    /* \"#utility.yul\":7769:7780   */\n  gt\n    /* \"#utility.yul\":7766:8212   */\n  iszero\n  tag_140\n  jumpi\n    /* \"#utility.yul\":7811:7849   */\n  tag_141\n    /* \"#utility.yul\":7843:7848   */\n  dup2\n    /* \"#utility.yul\":7811:7849   */\n  tag_35\n  jump\t// in\ntag_141:\n    /* \"#utility.yul\":7895:7924   */\n  tag_142\n    /* \"#utility.yul\":7913:7923   */\n  dup5\n    /* \"#utility.yul\":7895:7924   */\n  tag_36\n  jump\t// in\ntag_142:\n    /* \"#utility.yul\":7885:7893   */\n  dup2\n    /* \"#utility.yul\":7881:7925   */\n  add\n    /* \"#utility.yul\":8078:8080   */\n  0x20\n    /* \"#utility.yul\":8066:8076   */\n  dup6\n    /* \"#utility.yul\":8063:8081   */\n  lt\n    /* \"#utility.yul\":8060:8109   */\n  iszero\n  tag_143\n  jumpi\n    /* \"#utility.yul\":8099:8107   */\n  dup2\n    /* \"#utility.yul\":8084:8107   */\n  swap1\n  pop\n    /* \"#utility.yul\":8060:8109   */\ntag_143:\n    /* \"#utility.yul\":8122:8202   */\n  tag_144\n    /* \"#utility.yul\":8178:8200   */\n  tag_145\n    /* \"#utility.yul\":8196:8199   */\n  dup6\n    /* \"#utility.yul\":8178:8200   */\n  tag_36\n  jump\t// in\ntag_145:\n    /* \"#utility.yul\":8168:8176   */\n  dup4\n    /* \"#utility.yul\":8164:8201   */\n  add\n    /* \"#utility.yul\":8151:8162   */\n  dup3\n    /* \"#utility.yul\":8122:8202   */\n  tag_45\n  jump\t// in\ntag_144:\n    /* \"#utility.yul\":7781:8212   */\n  pop\n  pop\n    /* \"#utility.yul\":7766:8212   */\ntag_140:\n    /* \"#utility.yul\":7676:8219   */\n  pop\n  pop\n  pop\n  jump\t// out\n    /* \"#utility.yul\":8225:8342   */\ntag_47:\n    /* \"#utility.yul\":8279:8287   */\n  0x00\n    /* \"#utility.yul\":8329:8334   */\n  dup3\n    /* \"#utility.yul\":8323:8327   */\n  dup3\n    /* \"#utility.yul\":8319:8335   */\n  shr\n    /* \"#utility.yul\":8298:8335   */\n  swap1\n  pop\n    /* \"#utility.yul\":8225:8342   */\n  swap3\n  swap2\n  pop\n  pop\n  jump\t// out\n    /* \"#utility.yul\":8348:8517   */\ntag_48:\n    /* \"#utility.yul\":8392:8398   */\n  0x00\n    /* \"#utility.yul\":8425:8476   */\n  tag_148\n    /* \"#utility.yul\":8473:8474   */\n  0x00\n    /* \"#utility.yul\":8469:8475   */\n  not\n    /* \"#utility.yul\":8461:8466   */\n  dup5\n    /* \"#utility.yul\":8458:8459   */\n  0x08\n    /* \"#utility.yul\":8454:8467   */\n  mul\n    /* \"#utility.yul\":8425:8476   */\n  tag_47\n  jump\t// in\ntag_148:\n    /* \"#utility.yul\":8421:8477   */\n  not\n    /* \"#utility.yul\":8506:8510   */\n  dup1\n    /* \"#utility.yul\":8500:8504   */\n  dup4\n    /* \"#utility.yul\":8496:8511   */\n  and\n    /* \"#utility.yul\":8486:8511   */\n  swap2\n  pop\n    /* \"#utility.yul\":8399:8517   */\n  pop\n    /* \"#utility.yul\":8348:8517   */\n  swap3\n  swap2\n  pop\n  pop\n  jump\t// out\n    /* \"#utility.yul\":8522:8817   */\ntag_49:\n    /* \"#utility.yul\":8598:8602   */\n  0x00\n    /* \"#utility.yul\":8744:8773   */\n  tag_150\n    /* \"#utility.yul\":8769:8772   */\n  dup4\n    /* \"#utility.yul\":8763:8767   */\n  dup4\n    /* \"#utility.yul\":8744:8773   */\n  tag_48\n  jump\t// in\ntag_150:\n    /* \"#utility.yul\":8736:8773   */\n  swap2\n  pop\n    /* \"#utility.yul\":8806:8809   */\n  dup3\n    /* \"#utility.yul\":8803:8804   */\n  0x02\n    /* \"#utility.yul\":8799:8810   */\n  mul\n    /* \"#utility.yul\":8793:8797   */\n  dup3\n    /* \"#utility.yul\":8790:8811   */\n  or\n    /* \"#utility.yul\":8782:8811   */\n  swap1\n  pop\n    /* \"#utility.yul\":8522:8817   */\n  swap3\n  swap2\n  pop\n  pop\n  jump\t// out\n    /* \"#utility.yul\":8822:10217   */\ntag_8:\n    /* \"#utility.yul\":8939:8976   */\n  tag_152\n    /* \"#utility.yul\":8972:8975   */\n  dup3\n    /* \"#utility.yul\":8939:8976   */\n  tag_32\n  jump\t// in\ntag_152:\n    /* \"#utility.yul\":9041:9059   */\n  0xffffffffffffffff\n    /* \"#utility.yul\":9033:9039   */\n  dup2\n    /* \"#utility.yul\":9030:9060   */\n  gt\n    /* \"#utility.yul\":9027:9083   */\n  iszero\n  tag_153\n  jumpi\n    /* \"#utility.yul\":9063:9081   */\n  tag_154\n  tag_22\n  jump\t// in\ntag_154:\n    /* \"#utility.yul\":9027:9083   */\ntag_153:\n    /* \"#utility.yul\":9107:9145   */\n  tag_155\n    /* \"#utility.yul\":9139:9143   */\n  dup3\n    /* \"#utility.yul\":9133:9144   */\n  sload\n    /* \"#utility.yul\":9107:9145   */\n  tag_34\n  jump\t// in\ntag_155:\n    /* \"#utility.yul\":9192:9259   */\n  tag_156\n    /* \"#utility.yul\":9252:9258   */\n  dup3\n    /* \"#utility.yul\":9244:9250   */\n  dup3\n    /* \"#utility.yul\":9238:9242   */\n  dup6\n    /* \"#utility.yul\":9192:9259   */\n  tag_46\n  jump\t// in\ntag_156:\n    /* \"#utility.yul\":9286:9287   */\n  0x00\n    /* \"#utility.yul\":9310:9314   */\n  0x20\n    /* \"#utility.yul\":9297:9314   */\n  swap1\n  pop\n    /* \"#utility.yul\":9342:9344   */\n  0x1f\n    /* \"#utility.yul\":9334:9340   */\n  dup4\n    /* \"#utility.yul\":9331:9345   */\n  gt\n    /* \"#utility.yul\":9359:9360   */\n  0x01\n    /* \"#utility.yul\":9354:9972   */\n  dup2\n  eq\n  tag_158\n  jumpi\n    /* \"#utility.yul\":10016:10017   */\n  0x00\n    /* \"#utility.yul\":10033:10039   */\n  dup5\n    /* \"#utility.yul\":10030:10107   */\n  iszero\n  tag_159\n  jumpi\n    /* \"#utility.yul\":10082:10091   */\n  dup3\n    /* \"#utility.yul\":10077:10080   */\n  dup8\n    /* \"#utility.yul\":10073:10092   */\n  add\n    /* \"#utility.yul\":10067:10093   */\n  mload\n    /* \"#utility.yul\":10058:10093   */\n  swap1\n  pop\n    /* \"#utility.yul\":10030:10107   */\ntag_159:\n    /* \"#utility.yul\":10133:10200   */\n  tag_160\n    /* \"#utility.yul\":10193:10199   */\n  dup6\n    /* \"#utility.yul\":10186:10191   */\n  dup3\n    /* \"#utility.yul\":10133:10200   */\n  tag_49\n  jump\t// in\ntag_160:\n    /* \"#utility.yul\":10127:10131   */\n  dup7\n    /* \"#utility.yul\":10120:10201   */\n  sstore\n    /* \"#utility.yul\":9989:10211   */\n  pop\n    /* \"#utility.yul\":9324:10211   */\n  jump(tag_157)\n    /* \"#utility.yul\":9354:9972   */\ntag_158:\n    /* \"#utility.yul\":9406:9410   */\n  0x1f\n    /* \"#utility.yul\":9402:9411   */\n  not\n    /* \"#utility.yul\":9394:9400   */\n  dup5\n    /* \"#utility.yul\":9390:9412   */\n  and\n    /* \"#utility.yul\":9440:9477   */\n  tag_161\n    /* \"#utility.yul\":9472:9476   */\n  dup7\n    /* \"#utility.yul\":9440:9477   */\n  tag_35\n  jump\t// in\ntag_161:\n    /* \"#utility.yul\":9499:9500   */\n  0x00\n    /* \"#utility.yul\":9513:9721   */\ntag_162:\n    /* \"#utility.yul\":9527:9534   */\n  dup3\n    /* \"#utility.yul\":9524:9525   */\n  dup2\n    /* \"#utility.yul\":9521:9535   */\n  lt\n    /* \"#utility.yul\":9513:9721   */\n  iszero\n  tag_164\n  jumpi\n    /* \"#utility.yul\":9606:9615   */\n  dup5\n    /* \"#utility.yul\":9601:9604   */\n  dup10\n    /* \"#utility.yul\":9597:9616   */\n  add\n    /* \"#utility.yul\":9591:9617   */\n  mload\n    /* \"#utility.yul\":9583:9589   */\n  dup3\n    /* \"#utility.yul\":9576:9618   */\n  sstore\n    /* \"#utility.yul\":9657:9658   */\n  0x01\n    /* \"#utility.yul\":9649:9655   */\n  dup3\n    /* \"#utility.yul\":9645:9659   */\n  add\n    /* \"#utility.yul\":9635:9659   */\n  swap2\n  pop\n    /* \"#utility.yul\":9704:9706   */\n  0x20\n    /* \"#utility.yul\":9693:9702   */\n  dup6\n    /* \"#utility.yul\":9689:9707   */\n  add\n    /* \"#utility.yul\":9676:9707   */\n  swap5\n  pop\n    /* \"#utility.yul\":9550:9554   */\n  0x20\n    /* \"#utility.yul\":9547:9548   */\n  dup2\n    /* \"#utility.yul\":9543:9555   */\n  add\n    /* \"#utility.yul\":9538:9555   */\n  swap1\n  pop\n    /* \"#utility.yul\":9513:9721   */\n  jump(tag_162)\ntag_164:\n    /* \"#utility.yul\":9749:9755   */\n  dup7\n    /* \"#utility.yul\":9740:9747   */\n  dup4\n    /* \"#utility.yul\":9737:9756   */\n  lt\n    /* \"#utility.yul\":9734:9913   */\n  iszero\n  tag_165\n  jumpi\n    /* \"#utility.yul\":9807:9816   */\n  dup5\n    /* \"#utility.yul\":9802:9805   */\n  dup10\n    /* \"#utility.yul\":9798:9817   */\n  add\n    /* \"#utility.yul\":9792:9818   */\n  mload\n    /* \"#utility.yul\":9850:9898   */\n  tag_166\n    /* \"#utility.yul\":9892:9896   */\n  0x1f\n    /* \"#utility.yul\":9884:9890   */\n  dup10\n    /* \"#utility.yul\":9880:9897   */\n  and\n    /* \"#utility.yul\":9869:9878   */\n  dup3\n    /* \"#utility.yul\":9850:9898   */\n  tag_48\n  jump\t// in\ntag_166:\n    /* \"#utility.yul\":9842:9848   */\n  dup4\n    /* \"#utility.yul\":9835:9899   */\n  sstore\n    /* \"#utility.yul\":9757:9913   */\n  pop\n    /* \"#utility.yul\":9734:9913   */\ntag_165:\n    /* \"#utility.yul\":9959:9960   */\n  0x01\n    /* \"#utility.yul\":9955:9956   */\n  0x02\n    /* \"#utility.yul\":9947:9953   */\n  dup9\n    /* \"#utility.yul\":9943:9957   */\n  mul\n    /* \"#utility.yul\":9939:9961   */\n  add\n    /* \"#utility.yul\":9933:9937   */\n  dup9\n    /* \"#utility.yul\":9926:9962   */\n  sstore\n    /* \"#utility.yul\":9361:9972   */\n  pop\n  pop\n  pop\n    /* \"#utility.yul\":9324:10211   */\ntag_157:\n  pop\n    /* \"#utility.yul\":8914:10217   */\n  pop\n  pop\n  pop\n    /* \"#utility.yul\":8822:10217   */\n  pop\n  pop\n  jump\t// out\n    /* \"day10/p2.sol\":664:2066  contract Student is Department, College {... */\ntag_15:\n  dataSize(sub_0)\n  dup1\n  dataOffset(sub_0)\n  0x00\n  codecopy\n  0x00\n  return\nstop\n\nsub_0: assembly {\n        /* \"day10/p2.sol\":664:2066  contract Student is Department, College {... */\n      mstore(0x40, 0x80)\n      callvalue\n      dup1\n      iszero\n      tag_1\n      jumpi\n      0x00\n      dup1\n      revert\n    tag_1:\n      pop\n      jumpi(tag_2, lt(calldatasize, 0x04))\n      shr(0xe0, calldataload(0x00))\n      dup1\n      0x8dfd3b18\n      gt\n      tag_15\n      jumpi\n      dup1\n      0x8dfd3b18\n      eq\n      tag_9\n      jumpi\n      dup1\n      0x9aa7cf76\n      eq\n      tag_10\n      jumpi\n      dup1\n      0xb508ba31\n      eq\n      tag_11\n      jumpi\n      dup1\n      0xb975abb3\n      eq\n      tag_12\n      jumpi\n      dup1\n      0xbc658659\n      eq\n      tag_13\n      jumpi\n      dup1\n      0xeb96548f\n      eq\n      tag_14\n      jumpi\n      jump(tag_2)\n    tag_15:\n      dup1\n      0x0c1b7c1e\n      eq\n      tag_3\n      jumpi\n      dup1\n      0x14e851b8\n      eq\n      tag_4\n      jumpi\n      dup1\n      0x1b0c2670\n      eq\n      tag_5\n      jumpi\n      dup1\n      0x3c84c5a5\n      eq\n      tag_6\n      jumpi\n      dup1\n      0x6ef9a278\n      eq\n      tag_7\n      jumpi\n      dup1\n      0x70d1f986\n      eq\n      tag_8\n      jumpi\n    tag_2:\n      0x00\n      dup1\n      revert\n        /* \"day10/p2.sol\":1885:2063  function display() public view override returns (string memory) {... */\n    tag_3:\n      tag_16\n      tag_17\n      jump\t// in\n    tag_16:\n      mload(0x40)\n      tag_18\n      swap2\n      swap1\n      tag_19\n      jump\t// in\n    tag_18:\n      mload(0x40)\n      dup1\n      swap2\n      sub\n      swap1\n      return\n        /* \"day10/p2.sol\":368:491  function getDeptDetails() public view returns (string memory, string memory) {... */\n    tag_4:\n      tag_20\n      tag_21\n      jump\t// in\n    tag_20:\n      mload(0x40)\n      tag_22\n      swap3\n      swap2\n      swap1\n      tag_23\n      jump\t// in\n    tag_22:\n      mload(0x40)\n      dup1\n      swap2\n      sub\n      swap1\n      return\n        /* \"day10/p2.sol\":497:659  function printDeptDetails() public view returns (string memory) {... */\n    tag_5:\n      tag_24\n      tag_25\n      jump\t// in\n    tag_24:\n      mload(0x40)\n      tag_26\n      swap2\n      swap1\n      tag_19\n      jump\t// in\n    tag_26:\n      mload(0x40)\n      dup1\n      swap2\n      sub\n      swap1\n      return\n        /* \"day10/p2.sol\":769:786  uint public marks */\n    tag_6:\n      tag_27\n      tag_28\n      jump\t// in\n    tag_27:\n      mload(0x40)\n      tag_29\n      swap2\n      swap1\n      tag_30\n      jump\t// in\n    tag_29:\n      mload(0x40)\n      dup1\n      swap2\n      sub\n      swap1\n      return\n        /* \"day10/p2.sol\":743:762  string public regNo */\n    tag_7:\n      tag_31\n      tag_32\n      jump\t// in\n    tag_31:\n      mload(0x40)\n      tag_33\n      swap2\n      swap1\n      tag_19\n      jump\t// in\n    tag_33:\n      mload(0x40)\n      dup1\n      swap2\n      sub\n      swap1\n      return\n        /* \"day10/p2.sol\":1461:1879  function printReportCard() public view returns (string memory) {... */\n    tag_8:\n      tag_34\n      tag_35\n      jump\t// in\n    tag_34:\n      mload(0x40)\n      tag_36\n      swap2\n      swap1\n      tag_19\n      jump\t// in\n    tag_36:\n      mload(0x40)\n      dup1\n      swap2\n      sub\n      swap1\n      return\n        /* \"day10/p2.sol\":825:850  string public collegeCode */\n    tag_9:\n      tag_37\n      tag_38\n      jump\t// in\n    tag_37:\n      mload(0x40)\n      tag_39\n      swap2\n      swap1\n      tag_19\n      jump\t// in\n    tag_39:\n      mload(0x40)\n      dup1\n      swap2\n      sub\n      swap1\n      return\n        /* \"day10/p2.sol\":793:818  string public collegeName */\n    tag_10:\n      tag_40\n      tag_41\n      jump\t// in\n    tag_40:\n      mload(0x40)\n      tag_42\n      swap2\n      swap1\n      tag_19\n      jump\t// in\n    tag_42:\n      mload(0x40)\n      dup1\n      swap2\n      sub\n      swap1\n      return\n        /* \"day10/p2.sol\":711:736  string public studentName */\n    tag_11:\n      tag_43\n      tag_44\n      jump\t// in\n    tag_43:\n      mload(0x40)\n      tag_45\n      swap2\n      swap1\n      tag_19\n      jump\t// in\n    tag_45:\n      mload(0x40)\n      dup1\n      swap2\n      sub\n      swap1\n      return\n        /* \"day10/p2.sol\":172:194  string public deptName */\n    tag_12:\n      tag_46\n      tag_47\n      jump\t// in\n    tag_46:\n      mload(0x40)\n      tag_48\n      swap2\n      swap1\n      tag_19\n      jump\t// in\n    tag_48:\n      mload(0x40)\n      dup1\n      swap2\n      sub\n      swap1\n      return\n        /* \"day10/p2.sol\":1316:1455  function getStudentDetails() public view returns (string memory, string memory, uint) {... */\n    tag_13:\n      tag_49\n      tag_50\n      jump\t// in\n    tag_49:\n      mload(0x40)\n      tag_51\n      swap4\n      swap3\n      swap2\n      swap1\n      tag_52\n      jump\t// in\n    tag_51:\n      mload(0x40)\n      dup1\n      swap2\n      sub\n      swap1\n      return\n        /* \"day10/p2.sol\":201:223  string public deptHead */\n    tag_14:\n      tag_53\n      tag_54\n      jump\t// in\n    tag_53:\n      mload(0x40)\n      tag_55\n      swap2\n      swap1\n      tag_19\n      jump\t// in\n    tag_55:\n      mload(0x40)\n      dup1\n      swap2\n      sub\n      swap1\n      return\n        /* \"day10/p2.sol\":1885:2063  function display() public view override returns (string memory) {... */\n    tag_17:\n        /* \"day10/p2.sol\":1934:1947  string memory */\n      0x60\n        /* \"day10/p2.sol\":2009:2020  collegeName */\n      0x05\n        /* \"day10/p2.sol\":2042:2053  collegeCode */\n      0x06\n        /* \"day10/p2.sol\":1974:2054  abi.encodePacked(\"College Name: \", collegeName, \"\\nCollege Code: \", collegeCode) */\n      add(0x20, mload(0x40))\n      tag_57\n      swap3\n      swap2\n      swap1\n      tag_58\n      jump\t// in\n    tag_57:\n      mload(0x40)\n      0x20\n      dup2\n      dup4\n      sub\n      sub\n      dup2\n      mstore\n      swap1\n      0x40\n      mstore\n        /* \"day10/p2.sol\":1960:2055  return string(abi.encodePacked(\"College Name: \", collegeName, \"\\nCollege Code: \", collegeCode)) */\n      swap1\n      pop\n        /* \"day10/p2.sol\":1885:2063  function display() public view override returns (string memory) {... */\n      swap1\n      jump\t// out\n        /* \"day10/p2.sol\":368:491  function getDeptDetails() public view returns (string memory, string memory) {... */\n    tag_21:\n        /* \"day10/p2.sol\":415:428  string memory */\n      0x60\n        /* \"day10/p2.sol\":430:443  string memory */\n      dup1\n        /* \"day10/p2.sol\":464:472  deptName */\n      0x00\n        /* \"day10/p2.sol\":474:482  deptHead */\n      0x01\n        /* \"day10/p2.sol\":456:483  return (deptName, deptHead) */\n      dup2\n      dup1\n      sload\n      tag_60\n      swap1\n      tag_61\n      jump\t// in\n    tag_60:\n      dup1\n      0x1f\n      add\n      0x20\n      dup1\n      swap2\n      div\n      mul\n      0x20\n      add\n      mload(0x40)\n      swap1\n      dup2\n      add\n      0x40\n      mstore\n      dup1\n      swap3\n      swap2\n      swap1\n      dup2\n      dup2\n      mstore\n      0x20\n      add\n      dup3\n      dup1\n      sload\n      tag_62\n      swap1\n      tag_61\n      jump\t// in\n    tag_62:\n      dup1\n      iszero\n      tag_63\n      jumpi\n      dup1\n      0x1f\n      lt\n      tag_64\n      jumpi\n      0x0100\n      dup1\n      dup4\n      sload\n      div\n      mul\n      dup4\n      mstore\n      swap2\n      0x20\n      add\n      swap2\n      jump(tag_63)\n    tag_64:\n      dup3\n      add\n      swap2\n      swap1\n      0x00\n      mstore\n      keccak256(0x00, 0x20)\n      swap1\n    tag_65:\n      dup2\n      sload\n      dup2\n      mstore\n      swap1\n      0x01\n      add\n      swap1\n      0x20\n      add\n      dup1\n      dup4\n      gt\n      tag_65\n      jumpi\n      dup3\n      swap1\n      sub\n      0x1f\n      and\n      dup3\n      add\n      swap2\n    tag_63:\n      pop\n      pop\n      pop\n      pop\n      pop\n      swap2\n      pop\n      dup1\n      dup1\n      sload\n      tag_66\n      swap1\n      tag_61\n      jump\t// in\n    tag_66:\n      dup1\n      0x1f\n      add\n      0x20\n      dup1\n      swap2\n      div\n      mul\n      0x20\n      add\n      mload(0x40)\n      swap1\n      dup2\n      add\n      0x40\n      mstore\n      dup1\n      swap3\n      swap2\n      swap1\n      dup2\n      dup2\n      mstore\n      0x20\n      add\n      dup3\n      dup1\n      sload\n      tag_67\n      swap1\n      tag_61\n      jump\t// in\n    tag_67:\n      dup1\n      iszero\n      tag_68\n      jumpi\n      dup1\n      0x1f\n      lt\n      tag_69\n      jumpi\n      0x0100\n      dup1\n      dup4\n      sload\n      div\n      mul\n      dup4\n      mstore\n      swap2\n      0x20\n      add\n      swap2\n      jump(tag_68)\n    tag_69:\n      dup3\n      add\n      swap2\n      swap1\n      0x00\n      mstore\n      keccak256(0x00, 0x20)\n      swap1\n    tag_70:\n      dup2\n      sload\n      dup2\n      mstore\n      swap1\n      0x01\n      add\n      swap1\n      0x20\n      add\n      dup1\n      dup4\n      gt\n      tag_70\n      jumpi\n      dup3\n      swap1\n      sub\n      0x1f\n      and\n      dup3\n      add\n      swap2\n    tag_68:\n      pop\n      pop\n      pop\n      pop\n      pop\n      swap1\n      pop\n      swap2\n      pop\n      swap2\n      pop\n        /* \"day10/p2.sol\":368:491  function getDeptDetails() public view returns (string memory, string memory) {... */\n      swap1\n      swap2\n      jump\t// out\n        /* \"day10/p2.sol\":497:659  function printDeptDetails() public view returns (string memory) {... */\n    tag_25:\n        /* \"day10/p2.sol\":546:559  string memory */\n      0x60\n        /* \"day10/p2.sol\":619:627  deptName */\n      0x00\n        /* \"day10/p2.sol\":641:649  deptHead */\n      0x01\n        /* \"day10/p2.sol\":586:650  abi.encodePacked(\"Department: \", deptName, \"\\nHead: \", deptHead) */\n      add(0x20, mload(0x40))\n      tag_72\n      swap3\n      swap2\n      swap1\n      tag_73\n      jump\t// in\n    tag_72:\n      mload(0x40)\n      0x20\n      dup2\n      dup4\n      sub\n      sub\n      dup2\n      mstore\n      swap1\n      0x40\n      mstore\n        /* \"day10/p2.sol\":572:651  return string(abi.encodePacked(\"Department: \", deptName, \"\\nHead: \", deptHead)) */\n      swap1\n      pop\n        /* \"day10/p2.sol\":497:659  function printDeptDetails() public view returns (string memory) {... */\n      swap1\n      jump\t// out\n        /* \"day10/p2.sol\":769:786  uint public marks */\n    tag_28:\n      sload(0x04)\n      dup2\n      jump\t// out\n        /* \"day10/p2.sol\":743:762  string public regNo */\n    tag_32:\n      0x03\n      dup1\n      sload\n      tag_74\n      swap1\n      tag_61\n      jump\t// in\n    tag_74:\n      dup1\n      0x1f\n      add\n      0x20\n      dup1\n      swap2\n      div\n      mul\n      0x20\n      add\n      mload(0x40)\n      swap1\n      dup2\n      add\n      0x40\n      mstore\n      dup1\n      swap3\n      swap2\n      swap1\n      dup2\n      dup2\n      mstore\n      0x20\n      add\n      dup3\n      dup1\n      sload\n      tag_75\n      swap1\n      tag_61\n      jump\t// in\n    tag_75:\n      dup1\n      iszero\n      tag_76\n      jumpi\n      dup1\n      0x1f\n      lt\n      tag_77\n      jumpi\n      0x0100\n      dup1\n      dup4\n      sload\n      div\n      mul\n      dup4\n      mstore\n      swap2\n      0x20\n      add\n      swap2\n      jump(tag_76)\n    tag_77:\n      dup3\n      add\n      swap2\n      swap1\n      0x00\n      mstore\n      keccak256(0x00, 0x20)\n      swap1\n    tag_78:\n      dup2\n      sload\n      dup2\n      mstore\n      swap1\n      0x01\n      add\n      swap1\n      0x20\n      add\n      dup1\n      dup4\n      gt\n      tag_78\n      jumpi\n      dup3\n      swap1\n      sub\n      0x1f\n      and\n      dup3\n      add\n      swap2\n    tag_76:\n      pop\n      pop\n      pop\n      pop\n      pop\n      dup2\n      jump\t// out\n        /* \"day10/p2.sol\":1461:1879  function printReportCard() public view returns (string memory) {... */\n    tag_35:\n        /* \"day10/p2.sol\":1509:1522  string memory */\n      0x60\n        /* \"day10/p2.sol\":1598:1609  studentName */\n      0x02\n        /* \"day10/p2.sol\":1647:1652  regNo */\n      0x03\n        /* \"day10/p2.sol\":1680:1685  marks */\n      sload(0x04)\n        /* \"day10/p2.sol\":1718:1726  deptName */\n      0x00\n        /* \"day10/p2.sol\":1764:1772  deptHead */\n      0x01\n        /* \"day10/p2.sol\":1802:1813  collegeName */\n      0x05\n        /* \"day10/p2.sol\":1848:1859  collegeCode */\n      0x06\n        /* \"day10/p2.sol\":1549:1870  abi.encodePacked(... */\n      add(0x20, mload(0x40))\n      tag_80\n      swap8\n      swap7\n      swap6\n      swap5\n      swap4\n      swap3\n      swap2\n      swap1\n      tag_81\n      jump\t// in\n    tag_80:\n      mload(0x40)\n      0x20\n      dup2\n      dup4\n      sub\n      sub\n      dup2\n      mstore\n      swap1\n      0x40\n      mstore\n        /* \"day10/p2.sol\":1535:1871  return string(abi.encodePacked(... */\n      swap1\n      pop\n        /* \"day10/p2.sol\":1461:1879  function printReportCard() public view returns (string memory) {... */\n      swap1\n      jump\t// out\n        /* \"day10/p2.sol\":825:850  string public collegeCode */\n    tag_38:\n      0x06\n      dup1\n      sload\n      tag_82\n      swap1\n      tag_61\n      jump\t// in\n    tag_82:\n      dup1\n      0x1f\n      add\n      0x20\n      dup1\n      swap2\n      div\n      mul\n      0x20\n      add\n      mload(0x40)\n      swap1\n      dup2\n      add\n      0x40\n      mstore\n      dup1\n      swap3\n      swap2\n      swap1\n      dup2\n      dup2\n      mstore\n      0x20\n      add\n      dup3\n      dup1\n      sload\n      tag_83\n      swap1\n      tag_61\n      jump\t// in\n    tag_83:\n      dup1\n      iszero\n      tag_84\n      jumpi\n      dup1\n      0x1f\n      lt\n      tag_85\n      jumpi\n      0x0100\n      dup1\n      dup4\n      sload\n      div\n      mul\n      dup4\n      mstore\n      swap2\n      0x20\n      add\n      swap2\n      jump(tag_84)\n    tag_85:\n      dup3\n      add\n      swap2\n      swap1\n      0x00\n      mstore\n      keccak256(0x00, 0x20)\n      swap1\n    tag_86:\n      dup2\n      sload\n      dup2\n      mstore\n      swap1\n      0x01\n      add\n      swap1\n      0x20\n      add\n      dup1\n      dup4\n      gt\n      tag_86\n      jumpi\n      dup3\n      swap1\n      sub\n      0x1f\n      and\n      dup3\n      add\n      swap2\n    tag_84:\n      pop\n      pop\n      pop\n      pop\n      pop\n      dup2\n      jump\t// out\n        /* \"day10/p2.sol\":793:818  string public collegeName */\n    tag_41:\n      0x05\n      dup1\n      sload\n      tag_87\n      swap1\n      tag_61\n      jump\t// in\n    tag_87:\n      dup1\n      0x1f\n      add\n      0x20\n      dup1\n      swap2\n      div\n      mul\n      0x20\n      add\n      mload(0x40)\n      swap1\n      dup2\n      add\n      0x40\n      mstore\n      dup1\n      swap3\n      swap2\n      swap1\n      dup2\n      dup2\n      mstore\n      0x20\n      add\n      dup3\n      dup1\n      sload\n      tag_88\n      swap1\n      tag_61\n      jump\t// in\n    tag_88:\n      dup1\n      iszero\n      tag_89\n      jumpi\n      dup1\n      0x1f\n      lt\n      tag_90\n      jumpi\n      0x0100\n      dup1\n      dup4\n      sload\n      div\n      mul\n      dup4\n      mstore\n      swap2\n      0x20\n      add\n      swap2\n      jump(tag_89)\n    tag_90:\n      dup3\n      add\n      swap2\n      swap1\n      0x00\n      mstore\n      keccak256(0x00, 0x20)\n      swap1\n    tag_91:\n      dup2\n      sload\n      dup2\n      mstore\n      swap1\n      0x01\n      add\n      swap1\n      0x20\n      add\n      dup1\n      dup4\n      gt\n      tag_91\n      jumpi\n      dup3\n      swap1\n      sub\n      0x1f\n      and\n      dup3\n      add\n      swap2\n    tag_89:\n      pop\n      pop\n      pop\n      pop\n      pop\n      dup2\n      jump\t// out\n        /* \"day10/p2.sol\":711:736  string public studentName */\n    tag_44:\n      0x02\n      dup1\n      sload\n      tag_92\n      swap1\n      tag_61\n      jump\t// in\n    tag_92:\n      dup1\n      0x1f\n      add\n      0x20\n      dup1\n      swap2\n      div\n      mul\n      0x20\n      add\n      mload(0x40)\n      swap1\n      dup2\n      add\n      0x40\n      mstore\n      dup1\n      swap3\n      swap2\n      swap1\n      dup2\n      dup2\n      mstore\n      0x20\n      add\n      dup3\n      dup1\n      sload\n      tag_93\n      swap1\n      tag_61\n      jump\t// in\n    tag_93:\n      dup1\n      iszero\n      tag_94\n      jumpi\n      dup1\n      0x1f\n      lt\n      tag_95\n      jumpi\n      0x0100\n      dup1\n      dup4\n      sload\n      div\n      mul\n      dup4\n      mstore\n      swap2\n      0x20\n      add\n      swap2\n      jump(tag_94)\n    tag_95:\n      dup3\n      add\n      swap2\n      swap1\n      0x00\n      mstore\n      keccak256(0x00, 0x20)\n      swap1\n    tag_96:\n      dup2\n      sload\n      dup2\n      mstore\n      swap1\n      0x01\n      add\n      swap1\n      0x20\n      add\n      dup1\n      dup4\n      gt\n      tag_96\n      jumpi\n      dup3\n      swap1\n      sub\n      0x1f\n      and\n      dup3\n      add\n      swap2\n    tag_94:\n      pop\n      pop\n      pop\n      pop\n      pop\n      dup2\n      jump\t// out\n        /* \"day10/p2.sol\":172:194  string public deptName */\n    tag_47:\n      0x00\n      dup1\n      sload\n      tag_97\n      swap1\n      tag_61\n      jump\t// in\n    tag_97:\n      dup1\n      0x1f\n      add\n      0x20\n      dup1\n      swap2\n      div\n      mul\n      0x20\n      add\n      mload(0x40)\n      swap1\n      dup2\n      add\n      0x40\n      mstore\n      dup1\n      swap3\n      swap2\n      swap1\n      dup2\n      dup2\n      mstore\n      0x20\n      add\n      dup3\n      dup1\n      sload\n      tag_98\n      swap1\n      tag_61\n      jump\t// in\n    tag_98:\n      dup1\n      iszero\n      tag_99\n      jumpi\n      dup1\n      0x1f\n      lt\n      tag_100\n      jumpi\n      0x0100\n      dup1\n      dup4\n      sload\n      div\n      mul\n      dup4\n      mstore\n      swap2\n      0x20\n      add\n      swap2\n      jump(tag_99)\n    tag_100:\n      dup3\n      add\n      swap2\n      swap1\n      0x00\n      mstore\n      keccak256(0x00, 0x20)\n      swap1\n    tag_101:\n      dup2\n      sload\n      dup2\n      mstore\n      swap1\n      0x01\n      add\n      swap1\n      0x20\n      add\n      dup1\n      dup4\n      gt\n      tag_101\n      jumpi\n      dup3\n      swap1\n      sub\n      0x1f\n      and\n      dup3\n      add\n      swap2\n    tag_99:\n      pop\n      pop\n      pop\n      pop\n      pop\n      dup2\n      jump\t// out\n        /* \"day10/p2.sol\":1316:1455  function getStudentDetails() public view returns (string memory, string memory, uint) {... */\n    tag_50:\n        /* \"day10/p2.sol\":1366:1379  string memory */\n      0x60\n        /* \"day10/p2.sol\":1381:1394  string memory */\n      dup1\n        /* \"day10/p2.sol\":1396:1400  uint */\n      0x00\n        /* \"day10/p2.sol\":1421:1432  studentName */\n      0x02\n        /* \"day10/p2.sol\":1434:1439  regNo */\n      0x03\n        /* \"day10/p2.sol\":1441:1446  marks */\n      sload(0x04)\n        /* \"day10/p2.sol\":1413:1447  return (studentName, regNo, marks) */\n      dup3\n      dup1\n      sload\n      tag_103\n      swap1\n      tag_61\n      jump\t// in\n    tag_103:\n      dup1\n      0x1f\n      add\n      0x20\n      dup1\n      swap2\n      div\n      mul\n      0x20\n      add\n      mload(0x40)\n      swap1\n      dup2\n      add\n      0x40\n      mstore\n      dup1\n      swap3\n      swap2\n      swap1\n      dup2\n      dup2\n      mstore\n      0x20\n      add\n      dup3\n      dup1\n      sload\n      tag_104\n      swap1\n      tag_61\n      jump\t// in\n    tag_104:\n      dup1\n      iszero\n      tag_105\n      jumpi\n      dup1\n      0x1f\n      lt\n      tag_106\n      jumpi\n      0x0100\n      dup1\n      dup4\n      sload\n      div\n      mul\n      dup4\n      mstore\n      swap2\n      0x20\n      add\n      swap2\n      jump(tag_105)\n    tag_106:\n      dup3\n      add\n      swap2\n      swap1\n      0x00\n      mstore\n      keccak256(0x00, 0x20)\n      swap1\n    tag_107:\n      dup2\n      sload\n      dup2\n      mstore\n      swap1\n      0x01\n      add\n      swap1\n      0x20\n      add\n      dup1\n      dup4\n      gt\n      tag_107\n      jumpi\n      dup3\n      swap1\n      sub\n      0x1f\n      and\n      dup3\n      add\n      swap2\n    tag_105:\n      pop\n      pop\n      pop\n      pop\n      pop\n      swap3\n      pop\n      dup2\n      dup1\n      sload\n      tag_108\n      swap1\n      tag_61\n      jump\t// in\n    tag_108:\n      dup1\n      0x1f\n      add\n      0x20\n      dup1\n      swap2\n      div\n      mul\n      0x20\n      add\n      mload(0x40)\n      swap1\n      dup2\n      add\n      0x40\n      mstore\n      dup1\n      swap3\n      swap2\n      swap1\n      dup2\n      dup2\n      mstore\n      0x20\n      add\n      dup3\n      dup1\n      sload\n      tag_109\n      swap1\n      tag_61\n      jump\t// in\n    tag_109:\n      dup1\n      iszero\n      tag_110\n      jumpi\n      dup1\n      0x1f\n      lt\n      tag_111\n      jumpi\n      0x0100\n      dup1\n      dup4\n      sload\n      div\n      mul\n      dup4\n      mstore\n      swap2\n      0x20\n      add\n      swap2\n      jump(tag_110)\n    tag_111:\n      dup3\n      add\n      swap2\n      swap1\n      0x00\n      mstore\n      keccak256(0x00, 0x20)\n      swap1\n    tag_112:\n      dup2\n      sload\n      dup2\n      mstore\n      swap1\n      0x01\n      add\n      swap1\n      0x20\n      add\n      dup1\n      dup4\n      gt\n      tag_112\n      jumpi\n      dup3\n      swap1\n      sub\n      0x1f\n      and\n      dup3\n      add\n      swap2\n    tag_110:\n      pop\n      pop\n      pop\n      pop\n      pop\n      swap2\n      pop\n      swap3\n      pop\n      swap3\n      pop\n      swap3\n      pop\n        /* \"day10/p2.sol\":1316:1455  function getStudentDetails() public view returns (string memory, string memory, uint) {... */\n      swap1\n      swap2\n      swap3\n      jump\t// out\n        /* \"day10/p2.sol\":201:223  string public deptHead */\n    tag_54:\n      0x01\n      dup1\n      sload\n      tag_113\n      swap1\n      tag_61\n      jump\t// in\n    tag_113:\n      dup1\n      0x1f\n      add\n      0x20\n      dup1\n      swap2\n      div\n      mul\n      0x20\n      add\n      mload(0x40)\n      swap1\n      dup2\n      add\n      0x40\n      mstore\n      dup1\n      swap3\n      swap2\n      swap1\n      dup2\n      dup2\n      mstore\n      0x20\n      add\n      dup3\n      dup1\n      sload\n      tag_114\n      swap1\n      tag_61\n      jump\t// in\n    tag_114:\n      dup1\n      iszero\n      tag_115\n      jumpi\n      dup1\n      0x1f\n      lt\n      tag_116\n      jumpi\n      0x0100\n      dup1\n      dup4\n      sload\n      div\n      mul\n      dup4\n      mstore\n      swap2\n      0x20\n      add\n      swap2\n      jump(tag_115)\n    tag_116:\n      dup3\n      add\n      swap2\n      swap1\n      0x00\n      mstore\n      keccak256(0x00, 0x20)\n      swap1\n    tag_117:\n      dup2\n      sload\n      dup2\n      mstore\n      swap1\n      0x01\n      add\n      swap1\n      0x20\n      add\n      dup1\n      dup4\n      gt\n      tag_117\n      jumpi\n      dup3\n      swap1\n      sub\n      0x1f\n      and\n      dup3\n      add\n      swap2\n    tag_115:\n      pop\n      pop\n      pop\n      pop\n      pop\n      dup2\n      jump\t// out\n        /* \"#utility.yul\":7:106   */\n    tag_118:\n        /* \"#utility.yul\":59:65   */\n      0x00\n        /* \"#utility.yul\":93:98   */\n      dup2\n        /* \"#utility.yul\":87:99   */\n      mload\n        /* \"#utility.yul\":77:99   */\n      swap1\n      pop\n        /* \"#utility.yul\":7:106   */\n      swap2\n      swap1\n      pop\n      jump\t// out\n        /* \"#utility.yul\":112:281   */\n    tag_119:\n        /* \"#utility.yul\":196:207   */\n      0x00\n        /* \"#utility.yul\":230:236   */\n      dup3\n        /* \"#utility.yul\":225:228   */\n      dup3\n        /* \"#utility.yul\":218:237   */\n      mstore\n        /* \"#utility.yul\":270:274   */\n      0x20\n        /* \"#utility.yul\":265:268   */\n      dup3\n        /* \"#utility.yul\":261:275   */\n      add\n        /* \"#utility.yul\":246:275   */\n      swap1\n      pop\n        /* \"#utility.yul\":112:281   */\n      swap3\n      swap2\n      pop\n      pop\n      jump\t// out\n        /* \"#utility.yul\":287:426   */\n    tag_120:\n        /* \"#utility.yul\":376:382   */\n      dup3\n        /* \"#utility.yul\":371:374   */\n      dup2\n        /* \"#utility.yul\":366:369   */\n      dup4\n        /* \"#utility.yul\":360:383   */\n      mcopy\n        /* \"#utility.yul\":417:418   */\n      0x00\n        /* \"#utility.yul\":408:414   */\n      dup4\n        /* \"#utility.yul\":403:406   */\n      dup4\n        /* \"#utility.yul\":399:415   */\n      add\n        /* \"#utility.yul\":392:419   */\n      mstore\n        /* \"#utility.yul\":287:426   */\n      pop\n      pop\n      pop\n      jump\t// out\n        /* \"#utility.yul\":432:534   */\n    tag_121:\n        /* \"#utility.yul\":473:479   */\n      0x00\n        /* \"#utility.yul\":524:526   */\n      0x1f\n        /* \"#utility.yul\":520:527   */\n      not\n        /* \"#utility.yul\":515:517   */\n      0x1f\n        /* \"#utility.yul\":508:513   */\n      dup4\n        /* \"#utility.yul\":504:518   */\n      add\n        /* \"#utility.yul\":500:528   */\n      and\n        /* \"#utility.yul\":490:528   */\n      swap1\n      pop\n        /* \"#utility.yul\":432:534   */\n      swap2\n      swap1\n      pop\n      jump\t// out\n        /* \"#utility.yul\":540:917   */\n    tag_122:\n        /* \"#utility.yul\":628:631   */\n      0x00\n        /* \"#utility.yul\":656:695   */\n      tag_157\n        /* \"#utility.yul\":689:694   */\n      dup3\n        /* \"#utility.yul\":656:695   */\n      tag_118\n      jump\t// in\n    tag_157:\n        /* \"#utility.yul\":711:782   */\n      tag_158\n        /* \"#utility.yul\":775:781   */\n      dup2\n        /* \"#utility.yul\":770:773   */\n      dup6\n        /* \"#utility.yul\":711:782   */\n      tag_119\n      jump\t// in\n    tag_158:\n        /* \"#utility.yul\":704:782   */\n      swap4\n      pop\n        /* \"#utility.yul\":791:856   */\n      tag_159\n        /* \"#utility.yul\":849:855   */\n      dup2\n        /* \"#utility.yul\":844:847   */\n      dup6\n        /* \"#utility.yul\":837:841   */\n      0x20\n        /* \"#utility.yul\":830:835   */\n      dup7\n        /* \"#utility.yul\":826:842   */\n      add\n        /* \"#utility.yul\":791:856   */\n      tag_120\n      jump\t// in\n    tag_159:\n        /* \"#utility.yul\":881:910   */\n      tag_160\n        /* \"#utility.yul\":903:909   */\n      dup2\n        /* \"#utility.yul\":881:910   */\n      tag_121\n      jump\t// in\n    tag_160:\n        /* \"#utility.yul\":876:879   */\n      dup5\n        /* \"#utility.yul\":872:911   */\n      add\n        /* \"#utility.yul\":865:911   */\n      swap2\n      pop\n        /* \"#utility.yul\":632:917   */\n      pop\n        /* \"#utility.yul\":540:917   */\n      swap3\n      swap2\n      pop\n      pop\n      jump\t// out\n        /* \"#utility.yul\":923:1236   */\n    tag_19:\n        /* \"#utility.yul\":1036:1040   */\n      0x00\n        /* \"#utility.yul\":1074:1076   */\n      0x20\n        /* \"#utility.yul\":1063:1072   */\n      dup3\n        /* \"#utility.yul\":1059:1077   */\n      add\n        /* \"#utility.yul\":1051:1077   */\n      swap1\n      pop\n        /* \"#utility.yul\":1123:1132   */\n      dup2\n        /* \"#utility.yul\":1117:1121   */\n      dup2\n        /* \"#utility.yul\":1113:1133   */\n      sub\n        /* \"#utility.yul\":1109:1110   */\n      0x00\n        /* \"#utility.yul\":1098:1107   */\n      dup4\n        /* \"#utility.yul\":1094:1111   */\n      add\n        /* \"#utility.yul\":1087:1134   */\n      mstore\n        /* \"#utility.yul\":1151:1229   */\n      tag_162\n        /* \"#utility.yul\":1224:1228   */\n      dup2\n        /* \"#utility.yul\":1215:1221   */\n      dup5\n        /* \"#utility.yul\":1151:1229   */\n      tag_122\n      jump\t// in\n    tag_162:\n        /* \"#utility.yul\":1143:1229   */\n      swap1\n      pop\n        /* \"#utility.yul\":923:1236   */\n      swap3\n      swap2\n      pop\n      pop\n      jump\t// out\n        /* \"#utility.yul\":1242:1756   */\n    tag_23:\n        /* \"#utility.yul\":1403:1407   */\n      0x00\n        /* \"#utility.yul\":1441:1443   */\n      0x40\n        /* \"#utility.yul\":1430:1439   */\n      dup3\n        /* \"#utility.yul\":1426:1444   */\n      add\n        /* \"#utility.yul\":1418:1444   */\n      swap1\n      pop\n        /* \"#utility.yul\":1490:1499   */\n      dup2\n        /* \"#utility.yul\":1484:1488   */\n      dup2\n        /* \"#utility.yul\":1480:1500   */\n      sub\n        /* \"#utility.yul\":1476:1477   */\n      0x00\n        /* \"#utility.yul\":1465:1474   */\n      dup4\n        /* \"#utility.yul\":1461:1478   */\n      add\n        /* \"#utility.yul\":1454:1501   */\n      mstore\n        /* \"#utility.yul\":1518:1596   */\n      tag_164\n        /* \"#utility.yul\":1591:1595   */\n      dup2\n        /* \"#utility.yul\":1582:1588   */\n      dup6\n        /* \"#utility.yul\":1518:1596   */\n      tag_122\n      jump\t// in\n    tag_164:\n        /* \"#utility.yul\":1510:1596   */\n      swap1\n      pop\n        /* \"#utility.yul\":1643:1652   */\n      dup2\n        /* \"#utility.yul\":1637:1641   */\n      dup2\n        /* \"#utility.yul\":1633:1653   */\n      sub\n        /* \"#utility.yul\":1628:1630   */\n      0x20\n        /* \"#utility.yul\":1617:1626   */\n      dup4\n        /* \"#utility.yul\":1613:1631   */\n      add\n        /* \"#utility.yul\":1606:1654   */\n      mstore\n        /* \"#utility.yul\":1671:1749   */\n      tag_165\n        /* \"#utility.yul\":1744:1748   */\n      dup2\n        /* \"#utility.yul\":1735:1741   */\n      dup5\n        /* \"#utility.yul\":1671:1749   */\n      tag_122\n      jump\t// in\n    tag_165:\n        /* \"#utility.yul\":1663:1749   */\n      swap1\n      pop\n        /* \"#utility.yul\":1242:1756   */\n      swap4\n      swap3\n      pop\n      pop\n      pop\n      jump\t// out\n        /* \"#utility.yul\":1762:1839   */\n    tag_123:\n        /* \"#utility.yul\":1799:1806   */\n      0x00\n        /* \"#utility.yul\":1828:1833   */\n      dup2\n        /* \"#utility.yul\":1817:1833   */\n      swap1\n      pop\n        /* \"#utility.yul\":1762:1839   */\n      swap2\n      swap1\n      pop\n      jump\t// out\n        /* \"#utility.yul\":1845:1963   */\n    tag_124:\n        /* \"#utility.yul\":1932:1956   */\n      tag_168\n        /* \"#utility.yul\":1950:1955   */\n      dup2\n        /* \"#utility.yul\":1932:1956   */\n      tag_123\n      jump\t// in\n    tag_168:\n        /* \"#utility.yul\":1927:1930   */\n      dup3\n        /* \"#utility.yul\":1920:1957   */\n      mstore\n        /* \"#utility.yul\":1845:1963   */\n      pop\n      pop\n      jump\t// out\n        /* \"#utility.yul\":1969:2191   */\n    tag_30:\n        /* \"#utility.yul\":2062:2066   */\n      0x00\n        /* \"#utility.yul\":2100:2102   */\n      0x20\n        /* \"#utility.yul\":2089:2098   */\n      dup3\n        /* \"#utility.yul\":2085:2103   */\n      add\n        /* \"#utility.yul\":2077:2103   */\n      swap1\n      pop\n        /* \"#utility.yul\":2113:2184   */\n      tag_170\n        /* \"#utility.yul\":2181:2182   */\n      0x00\n        /* \"#utility.yul\":2170:2179   */\n      dup4\n        /* \"#utility.yul\":2166:2183   */\n      add\n        /* \"#utility.yul\":2157:2163   */\n      dup5\n        /* \"#utility.yul\":2113:2184   */\n      tag_124\n      jump\t// in\n    tag_170:\n        /* \"#utility.yul\":1969:2191   */\n      swap3\n      swap2\n      pop\n      pop\n      jump\t// out\n        /* \"#utility.yul\":2197:2821   */\n    tag_52:\n        /* \"#utility.yul\":2386:2390   */\n      0x00\n        /* \"#utility.yul\":2424:2426   */\n      0x60\n        /* \"#utility.yul\":2413:2422   */\n      dup3\n        /* \"#utility.yul\":2409:2427   */\n      add\n        /* \"#utility.yul\":2401:2427   */\n      swap1\n      pop\n        /* \"#utility.yul\":2473:2482   */\n      dup2\n        /* \"#utility.yul\":2467:2471   */\n      dup2\n        /* \"#utility.yul\":2463:2483   */\n      sub\n        /* \"#utility.yul\":2459:2460   */\n      0x00\n        /* \"#utility.yul\":2448:2457   */\n      dup4\n        /* \"#utility.yul\":2444:2461   */\n      add\n        /* \"#utility.yul\":2437:2484   */\n      mstore\n        /* \"#utility.yul\":2501:2579   */\n      tag_172\n        /* \"#utility.yul\":2574:2578   */\n      dup2\n        /* \"#utility.yul\":2565:2571   */\n      dup7\n        /* \"#utility.yul\":2501:2579   */\n      tag_122\n      jump\t// in\n    tag_172:\n        /* \"#utility.yul\":2493:2579   */\n      swap1\n      pop\n        /* \"#utility.yul\":2626:2635   */\n      dup2\n        /* \"#utility.yul\":2620:2624   */\n      dup2\n        /* \"#utility.yul\":2616:2636   */\n      sub\n        /* \"#utility.yul\":2611:2613   */\n      0x20\n        /* \"#utility.yul\":2600:2609   */\n      dup4\n        /* \"#utility.yul\":2596:2614   */\n      add\n        /* \"#utility.yul\":2589:2637   */\n      mstore\n        /* \"#utility.yul\":2654:2732   */\n      tag_173\n        /* \"#utility.yul\":2727:2731   */\n      dup2\n        /* \"#utility.yul\":2718:2724   */\n      dup6\n        /* \"#utility.yul\":2654:2732   */\n      tag_122\n      jump\t// in\n    tag_173:\n        /* \"#utility.yul\":2646:2732   */\n      swap1\n      pop\n        /* \"#utility.yul\":2742:2814   */\n      tag_174\n        /* \"#utility.yul\":2810:2812   */\n      0x40\n        /* \"#utility.yul\":2799:2808   */\n      dup4\n        /* \"#utility.yul\":2795:2813   */\n      add\n        /* \"#utility.yul\":2786:2792   */\n      dup5\n        /* \"#utility.yul\":2742:2814   */\n      tag_124\n      jump\t// in\n    tag_174:\n        /* \"#utility.yul\":2197:2821   */\n      swap5\n      swap4\n      pop\n      pop\n      pop\n      pop\n      jump\t// out\n        /* \"#utility.yul\":2827:2975   */\n    tag_125:\n        /* \"#utility.yul\":2929:2940   */\n      0x00\n        /* \"#utility.yul\":2966:2969   */\n      dup2\n        /* \"#utility.yul\":2951:2969   */\n      swap1\n      pop\n        /* \"#utility.yul\":2827:2975   */\n      swap3\n      swap2\n      pop\n      pop\n      jump\t// out\n        /* \"#utility.yul\":2981:3145   */\n    tag_126:\n        /* \"#utility.yul\":3121:3137   */\n      0x436f6c6c656765204e616d653a20000000000000000000000000000000000000\n        /* \"#utility.yul\":3117:3118   */\n      0x00\n        /* \"#utility.yul\":3109:3115   */\n      dup3\n        /* \"#utility.yul\":3105:3119   */\n      add\n        /* \"#utility.yul\":3098:3138   */\n      mstore\n        /* \"#utility.yul\":2981:3145   */\n      pop\n      jump\t// out\n        /* \"#utility.yul\":3151:3553   */\n    tag_127:\n        /* \"#utility.yul\":3311:3314   */\n      0x00\n        /* \"#utility.yul\":3332:3417   */\n      tag_178\n        /* \"#utility.yul\":3414:3416   */\n      0x0e\n        /* \"#utility.yul\":3409:3412   */\n      dup4\n        /* \"#utility.yul\":3332:3417   */\n      tag_125\n      jump\t// in\n    tag_178:\n        /* \"#utility.yul\":3325:3417   */\n      swap2\n      pop\n        /* \"#utility.yul\":3426:3519   */\n      tag_179\n        /* \"#utility.yul\":3515:3518   */\n      dup3\n        /* \"#utility.yul\":3426:3519   */\n      tag_126\n      jump\t// in\n    tag_179:\n        /* \"#utility.yul\":3544:3546   */\n      0x0e\n        /* \"#utility.yul\":3539:3542   */\n      dup3\n        /* \"#utility.yul\":3535:3547   */\n      add\n        /* \"#utility.yul\":3528:3547   */\n      swap1\n      pop\n        /* \"#utility.yul\":3151:3553   */\n      swap2\n      swap1\n      pop\n      jump\t// out\n        /* \"#utility.yul\":3559:3739   */\n    tag_128:\n        /* \"#utility.yul\":3607:3684   */\n      0x4e487b7100000000000000000000000000000000000000000000000000000000\n        /* \"#utility.yul\":3604:3605   */\n      0x00\n        /* \"#utility.yul\":3597:3685   */\n      mstore\n        /* \"#utility.yul\":3704:3708   */\n      0x22\n        /* \"#utility.yul\":3701:3702   */\n      0x04\n        /* \"#utility.yul\":3694:3709   */\n      mstore\n        /* \"#utility.yul\":3728:3732   */\n      0x24\n        /* \"#utility.yul\":3725:3726   */\n      0x00\n        /* \"#utility.yul\":3718:3733   */\n      revert\n        /* \"#utility.yul\":3745:4065   */\n    tag_61:\n        /* \"#utility.yul\":3789:3795   */\n      0x00\n        /* \"#utility.yul\":3826:3827   */\n      0x02\n        /* \"#utility.yul\":3820:3824   */\n      dup3\n        /* \"#utility.yul\":3816:3828   */\n      div\n        /* \"#utility.yul\":3806:3828   */\n      swap1\n      pop\n        /* \"#utility.yul\":3873:3874   */\n      0x01\n        /* \"#utility.yul\":3867:3871   */\n      dup3\n        /* \"#utility.yul\":3863:3875   */\n      and\n        /* \"#utility.yul\":3894:3912   */\n      dup1\n        /* \"#utility.yul\":3884:3965   */\n      tag_182\n      jumpi\n        /* \"#utility.yul\":3950:3954   */\n      0x7f\n        /* \"#utility.yul\":3942:3948   */\n      dup3\n        /* \"#utility.yul\":3938:3955   */\n      and\n        /* \"#utility.yul\":3928:3955   */\n      swap2\n      pop\n        /* \"#utility.yul\":3884:3965   */\n    tag_182:\n        /* \"#utility.yul\":4012:4014   */\n      0x20\n        /* \"#utility.yul\":4004:4010   */\n      dup3\n        /* \"#utility.yul\":4001:4015   */\n      lt\n        /* \"#utility.yul\":3981:3999   */\n      dup2\n        /* \"#utility.yul\":3978:4016   */\n      sub\n        /* \"#utility.yul\":3975:4059   */\n      tag_183\n      jumpi\n        /* \"#utility.yul\":4031:4049   */\n      tag_184\n      tag_128\n      jump\t// in\n    tag_184:\n        /* \"#utility.yul\":3975:4059   */\n    tag_183:\n        /* \"#utility.yul\":3796:4065   */\n      pop\n        /* \"#utility.yul\":3745:4065   */\n      swap2\n      swap1\n      pop\n      jump\t// out\n        /* \"#utility.yul\":4071:4212   */\n    tag_129:\n        /* \"#utility.yul\":4120:4124   */\n      0x00\n        /* \"#utility.yul\":4143:4146   */\n      dup2\n        /* \"#utility.yul\":4135:4146   */\n      swap1\n      pop\n        /* \"#utility.yul\":4166:4169   */\n      dup2\n        /* \"#utility.yul\":4163:4164   */\n      0x00\n        /* \"#utility.yul\":4156:4170   */\n      mstore\n        /* \"#utility.yul\":4200:4204   */\n      0x20\n        /* \"#utility.yul\":4197:4198   */\n      0x00\n        /* \"#utility.yul\":4187:4205   */\n      keccak256\n        /* \"#utility.yul\":4179:4205   */\n      swap1\n      pop\n        /* \"#utility.yul\":4071:4212   */\n      swap2\n      swap1\n      pop\n      jump\t// out\n        /* \"#utility.yul\":4242:5116   */\n    tag_130:\n        /* \"#utility.yul\":4345:4348   */\n      0x00\n        /* \"#utility.yul\":4382:4387   */\n      dup2\n        /* \"#utility.yul\":4376:4388   */\n      sload\n        /* \"#utility.yul\":4411:4447   */\n      tag_187\n        /* \"#utility.yul\":4437:4446   */\n      dup2\n        /* \"#utility.yul\":4411:4447   */\n      tag_61\n      jump\t// in\n    tag_187:\n        /* \"#utility.yul\":4463:4552   */\n      tag_188\n        /* \"#utility.yul\":4545:4551   */\n      dup2\n        /* \"#utility.yul\":4540:4543   */\n      dup7\n        /* \"#utility.yul\":4463:4552   */\n      tag_125\n      jump\t// in\n    tag_188:\n        /* \"#utility.yul\":4456:4552   */\n      swap5\n      pop\n        /* \"#utility.yul\":4583:4584   */\n      0x01\n        /* \"#utility.yul\":4572:4581   */\n      dup3\n        /* \"#utility.yul\":4568:4585   */\n      and\n        /* \"#utility.yul\":4599:4600   */\n      0x00\n        /* \"#utility.yul\":4594:4760   */\n      dup2\n      eq\n      tag_190\n      jumpi\n        /* \"#utility.yul\":4774:4775   */\n      0x01\n        /* \"#utility.yul\":4769:5110   */\n      dup2\n      eq\n      tag_191\n      jumpi\n        /* \"#utility.yul\":4561:5110   */\n      jump(tag_189)\n        /* \"#utility.yul\":4594:4760   */\n    tag_190:\n        /* \"#utility.yul\":4678:4682   */\n      0xff\n        /* \"#utility.yul\":4674:4683   */\n      not\n        /* \"#utility.yul\":4663:4672   */\n      dup4\n        /* \"#utility.yul\":4659:4684   */\n      and\n        /* \"#utility.yul\":4654:4657   */\n      dup7\n        /* \"#utility.yul\":4647:4685   */\n      mstore\n        /* \"#utility.yul\":4740:4746   */\n      dup2\n        /* \"#utility.yul\":4733:4747   */\n      iszero\n        /* \"#utility.yul\":4726:4748   */\n      iszero\n        /* \"#utility.yul\":4718:4724   */\n      dup3\n        /* \"#utility.yul\":4714:4749   */\n      mul\n        /* \"#utility.yul\":4709:4712   */\n      dup7\n        /* \"#utility.yul\":4705:4750   */\n      add\n        /* \"#utility.yul\":4698:4750   */\n      swap4\n      pop\n        /* \"#utility.yul\":4594:4760   */\n      jump(tag_189)\n        /* \"#utility.yul\":4769:5110   */\n    tag_191:\n        /* \"#utility.yul\":4836:4874   */\n      tag_192\n        /* \"#utility.yul\":4868:4873   */\n      dup6\n        /* \"#utility.yul\":4836:4874   */\n      tag_129\n      jump\t// in\n    tag_192:\n        /* \"#utility.yul\":4896:4897   */\n      0x00\n        /* \"#utility.yul\":4910:5064   */\n    tag_193:\n        /* \"#utility.yul\":4924:4930   */\n      dup4\n        /* \"#utility.yul\":4921:4922   */\n      dup2\n        /* \"#utility.yul\":4918:4931   */\n      lt\n        /* \"#utility.yul\":4910:5064   */\n      iszero\n      tag_195\n      jumpi\n        /* \"#utility.yul\":4998:5005   */\n      dup2\n        /* \"#utility.yul\":4992:5006   */\n      sload\n        /* \"#utility.yul\":4988:4989   */\n      dup2\n        /* \"#utility.yul\":4983:4986   */\n      dup10\n        /* \"#utility.yul\":4979:4990   */\n      add\n        /* \"#utility.yul\":4972:5007   */\n      mstore\n        /* \"#utility.yul\":5048:5049   */\n      0x01\n        /* \"#utility.yul\":5039:5046   */\n      dup3\n        /* \"#utility.yul\":5035:5050   */\n      add\n        /* \"#utility.yul\":5024:5050   */\n      swap2\n      pop\n        /* \"#utility.yul\":4946:4950   */\n      0x20\n        /* \"#utility.yul\":4943:4944   */\n      dup2\n        /* \"#utility.yul\":4939:4951   */\n      add\n        /* \"#utility.yul\":4934:4951   */\n      swap1\n      pop\n        /* \"#utility.yul\":4910:5064   */\n      jump(tag_193)\n    tag_195:\n        /* \"#utility.yul\":5093:5099   */\n      dup4\n        /* \"#utility.yul\":5088:5091   */\n      dup9\n        /* \"#utility.yul\":5084:5100   */\n      add\n        /* \"#utility.yul\":5077:5100   */\n      swap6\n      pop\n        /* \"#utility.yul\":4776:5110   */\n      pop\n      pop\n        /* \"#utility.yul\":4561:5110   */\n    tag_189:\n      pop\n        /* \"#utility.yul\":4349:5116   */\n      pop\n      pop\n        /* \"#utility.yul\":4242:5116   */\n      swap3\n      swap2\n      pop\n      pop\n      jump\t// out\n        /* \"#utility.yul\":5122:5336   */\n    tag_131:\n        /* \"#utility.yul\":5262:5328   */\n      0x0a436f6c6c65676520436f64653a200000000000000000000000000000000000\n        /* \"#utility.yul\":5258:5259   */\n      0x00\n        /* \"#utility.yul\":5250:5256   */\n      dup3\n        /* \"#utility.yul\":5246:5260   */\n      add\n        /* \"#utility.yul\":5239:5329   */\n      mstore\n        /* \"#utility.yul\":5122:5336   */\n      pop\n      jump\t// out\n        /* \"#utility.yul\":5342:5744   */\n    tag_132:\n        /* \"#utility.yul\":5502:5505   */\n      0x00\n        /* \"#utility.yul\":5523:5608   */\n      tag_198\n        /* \"#utility.yul\":5605:5607   */\n      0x0f\n        /* \"#utility.yul\":5600:5603   */\n      dup4\n        /* \"#utility.yul\":5523:5608   */\n      tag_125\n      jump\t// in\n    tag_198:\n        /* \"#utility.yul\":5516:5608   */\n      swap2\n      pop\n        /* \"#utility.yul\":5617:5710   */\n      tag_199\n        /* \"#utility.yul\":5706:5709   */\n      dup3\n        /* \"#utility.yul\":5617:5710   */\n      tag_131\n      jump\t// in\n    tag_199:\n        /* \"#utility.yul\":5735:5737   */\n      0x0f\n        /* \"#utility.yul\":5730:5733   */\n      dup3\n        /* \"#utility.yul\":5726:5738   */\n      add\n        /* \"#utility.yul\":5719:5738   */\n      swap1\n      pop\n        /* \"#utility.yul\":5342:5744   */\n      swap2\n      swap1\n      pop\n      jump\t// out\n        /* \"#utility.yul\":5750:6705   */\n    tag_58:\n        /* \"#utility.yul\":6126:6129   */\n      0x00\n        /* \"#utility.yul\":6148:6296   */\n      tag_201\n        /* \"#utility.yul\":6292:6295   */\n      dup3\n        /* \"#utility.yul\":6148:6296   */\n      tag_127\n      jump\t// in\n    tag_201:\n        /* \"#utility.yul\":6141:6296   */\n      swap2\n      pop\n        /* \"#utility.yul\":6313:6405   */\n      tag_202\n        /* \"#utility.yul\":6401:6404   */\n      dup3\n        /* \"#utility.yul\":6392:6398   */\n      dup6\n        /* \"#utility.yul\":6313:6405   */\n      tag_130\n      jump\t// in\n    tag_202:\n        /* \"#utility.yul\":6306:6405   */\n      swap2\n      pop\n        /* \"#utility.yul\":6422:6570   */\n      tag_203\n        /* \"#utility.yul\":6566:6569   */\n      dup3\n        /* \"#utility.yul\":6422:6570   */\n      tag_132\n      jump\t// in\n    tag_203:\n        /* \"#utility.yul\":6415:6570   */\n      swap2\n      pop\n        /* \"#utility.yul\":6587:6679   */\n      tag_204\n        /* \"#utility.yul\":6675:6678   */\n      dup3\n        /* \"#utility.yul\":6666:6672   */\n      dup5\n        /* \"#utility.yul\":6587:6679   */\n      tag_130\n      jump\t// in\n    tag_204:\n        /* \"#utility.yul\":6580:6679   */\n      swap2\n      pop\n        /* \"#utility.yul\":6696:6699   */\n      dup2\n        /* \"#utility.yul\":6689:6699   */\n      swap1\n      pop\n        /* \"#utility.yul\":5750:6705   */\n      swap4\n      swap3\n      pop\n      pop\n      pop\n      jump\t// out\n        /* \"#utility.yul\":6711:6873   */\n    tag_133:\n        /* \"#utility.yul\":6851:6865   */\n      0x4465706172746d656e743a200000000000000000000000000000000000000000\n        /* \"#utility.yul\":6847:6848   */\n      0x00\n        /* \"#utility.yul\":6839:6845   */\n      dup3\n        /* \"#utility.yul\":6835:6849   */\n      add\n        /* \"#utility.yul\":6828:6866   */\n      mstore\n        /* \"#utility.yul\":6711:6873   */\n      pop\n      jump\t// out\n        /* \"#utility.yul\":6879:7281   */\n    tag_134:\n        /* \"#utility.yul\":7039:7042   */\n      0x00\n        /* \"#utility.yul\":7060:7145   */\n      tag_207\n        /* \"#utility.yul\":7142:7144   */\n      0x0c\n        /* \"#utility.yul\":7137:7140   */\n      dup4\n        /* \"#utility.yul\":7060:7145   */\n      tag_125\n      jump\t// in\n    tag_207:\n        /* \"#utility.yul\":7053:7145   */\n      swap2\n      pop\n        /* \"#utility.yul\":7154:7247   */\n      tag_208\n        /* \"#utility.yul\":7243:7246   */\n      dup3\n        /* \"#utility.yul\":7154:7247   */\n      tag_133\n      jump\t// in\n    tag_208:\n        /* \"#utility.yul\":7272:7274   */\n      0x0c\n        /* \"#utility.yul\":7267:7270   */\n      dup3\n        /* \"#utility.yul\":7263:7275   */\n      add\n        /* \"#utility.yul\":7256:7275   */\n      swap1\n      pop\n        /* \"#utility.yul\":6879:7281   */\n      swap2\n      swap1\n      pop\n      jump\t// out\n        /* \"#utility.yul\":7287:7501   */\n    tag_135:\n        /* \"#utility.yul\":7427:7493   */\n      0x0a486561643a2000000000000000000000000000000000000000000000000000\n        /* \"#utility.yul\":7423:7424   */\n      0x00\n        /* \"#utility.yul\":7415:7421   */\n      dup3\n        /* \"#utility.yul\":7411:7425   */\n      add\n        /* \"#utility.yul\":7404:7494   */\n      mstore\n        /* \"#utility.yul\":7287:7501   */\n      pop\n      jump\t// out\n        /* \"#utility.yul\":7507:7907   */\n    tag_136:\n        /* \"#utility.yul\":7667:7670   */\n      0x00\n        /* \"#utility.yul\":7688:7772   */\n      tag_211\n        /* \"#utility.yul\":7770:7771   */\n      0x07\n        /* \"#utility.yul\":7765:7768   */\n      dup4\n        /* \"#utility.yul\":7688:7772   */\n      tag_125\n      jump\t// in\n    tag_211:\n        /* \"#utility.yul\":7681:7772   */\n      swap2\n      pop\n        /* \"#utility.yul\":7781:7874   */\n      tag_212\n        /* \"#utility.yul\":7870:7873   */\n      dup3\n        /* \"#utility.yul\":7781:7874   */\n      tag_135\n      jump\t// in\n    tag_212:\n        /* \"#utility.yul\":7899:7900   */\n      0x07\n        /* \"#utility.yul\":7894:7897   */\n      dup3\n        /* \"#utility.yul\":7890:7901   */\n      add\n        /* \"#utility.yul\":7883:7901   */\n      swap1\n      pop\n        /* \"#utility.yul\":7507:7907   */\n      swap2\n      swap1\n      pop\n      jump\t// out\n        /* \"#utility.yul\":7913:8868   */\n    tag_73:\n        /* \"#utility.yul\":8289:8292   */\n      0x00\n        /* \"#utility.yul\":8311:8459   */\n      tag_214\n        /* \"#utility.yul\":8455:8458   */\n      dup3\n        /* \"#utility.yul\":8311:8459   */\n      tag_134\n      jump\t// in\n    tag_214:\n        /* \"#utility.yul\":8304:8459   */\n      swap2\n      pop\n        /* \"#utility.yul\":8476:8568   */\n      tag_215\n        /* \"#utility.yul\":8564:8567   */\n      dup3\n        /* \"#utility.yul\":8555:8561   */\n      dup6\n        /* \"#utility.yul\":8476:8568   */\n      tag_130\n      jump\t// in\n    tag_215:\n        /* \"#utility.yul\":8469:8568   */\n      swap2\n      pop\n        /* \"#utility.yul\":8585:8733   */\n      tag_216\n        /* \"#utility.yul\":8729:8732   */\n      dup3\n        /* \"#utility.yul\":8585:8733   */\n      tag_136\n      jump\t// in\n    tag_216:\n        /* \"#utility.yul\":8578:8733   */\n      swap2\n      pop\n        /* \"#utility.yul\":8750:8842   */\n      tag_217\n        /* \"#utility.yul\":8838:8841   */\n      dup3\n        /* \"#utility.yul\":8829:8835   */\n      dup5\n        /* \"#utility.yul\":8750:8842   */\n      tag_130\n      jump\t// in\n    tag_217:\n        /* \"#utility.yul\":8743:8842   */\n      swap2\n      pop\n        /* \"#utility.yul\":8859:8862   */\n      dup2\n        /* \"#utility.yul\":8852:8862   */\n      swap1\n      pop\n        /* \"#utility.yul\":7913:8868   */\n      swap4\n      swap3\n      pop\n      pop\n      pop\n      jump\t// out\n        /* \"#utility.yul\":8874:9038   */\n    tag_137:\n        /* \"#utility.yul\":9014:9030   */\n      0x53747564656e74204e616d653a20000000000000000000000000000000000000\n        /* \"#utility.yul\":9010:9011   */\n      0x00\n        /* \"#utility.yul\":9002:9008   */\n      dup3\n        /* \"#utility.yul\":8998:9012   */\n      add\n        /* \"#utility.yul\":8991:9031   */\n      mstore\n        /* \"#utility.yul\":8874:9038   */\n      pop\n      jump\t// out\n        /* \"#utility.yul\":9044:9446   */\n    tag_138:\n        /* \"#utility.yul\":9204:9207   */\n      0x00\n        /* \"#utility.yul\":9225:9310   */\n      tag_220\n        /* \"#utility.yul\":9307:9309   */\n      0x0e\n        /* \"#utility.yul\":9302:9305   */\n      dup4\n        /* \"#utility.yul\":9225:9310   */\n      tag_125\n      jump\t// in\n    tag_220:\n        /* \"#utility.yul\":9218:9310   */\n      swap2\n      pop\n        /* \"#utility.yul\":9319:9412   */\n      tag_221\n        /* \"#utility.yul\":9408:9411   */\n      dup3\n        /* \"#utility.yul\":9319:9412   */\n      tag_137\n      jump\t// in\n    tag_221:\n        /* \"#utility.yul\":9437:9439   */\n      0x0e\n        /* \"#utility.yul\":9432:9435   */\n      dup3\n        /* \"#utility.yul\":9428:9440   */\n      add\n        /* \"#utility.yul\":9421:9440   */\n      swap1\n      pop\n        /* \"#utility.yul\":9044:9446   */\n      swap2\n      swap1\n      pop\n      jump\t// out\n        /* \"#utility.yul\":9452:9666   */\n    tag_139:\n        /* \"#utility.yul\":9592:9658   */\n      0x0a526567697374726174696f6e204e6f3a200000000000000000000000000000\n        /* \"#utility.yul\":9588:9589   */\n      0x00\n        /* \"#utility.yul\":9580:9586   */\n      dup3\n        /* \"#utility.yul\":9576:9590   */\n      add\n        /* \"#utility.yul\":9569:9659   */\n      mstore\n        /* \"#utility.yul\":9452:9666   */\n      pop\n      jump\t// out\n        /* \"#utility.yul\":9672:10074   */\n    tag_140:\n        /* \"#utility.yul\":9832:9835   */\n      0x00\n        /* \"#utility.yul\":9853:9938   */\n      tag_224\n        /* \"#utility.yul\":9935:9937   */\n      0x12\n        /* \"#utility.yul\":9930:9933   */\n      dup4\n        /* \"#utility.yul\":9853:9938   */\n      tag_125\n      jump\t// in\n    tag_224:\n        /* \"#utility.yul\":9846:9938   */\n      swap2\n      pop\n        /* \"#utility.yul\":9947:10040   */\n      tag_225\n        /* \"#utility.yul\":10036:10039   */\n      dup3\n        /* \"#utility.yul\":9947:10040   */\n      tag_139\n      jump\t// in\n    tag_225:\n        /* \"#utility.yul\":10065:10067   */\n      0x12\n        /* \"#utility.yul\":10060:10063   */\n      dup3\n        /* \"#utility.yul\":10056:10068   */\n      add\n        /* \"#utility.yul\":10049:10068   */\n      swap1\n      pop\n        /* \"#utility.yul\":9672:10074   */\n      swap2\n      swap1\n      pop\n      jump\t// out\n        /* \"#utility.yul\":10080:10294   */\n    tag_141:\n        /* \"#utility.yul\":10220:10286   */\n      0x0a4d61726b733a20000000000000000000000000000000000000000000000000\n        /* \"#utility.yul\":10216:10217   */\n      0x00\n        /* \"#utility.yul\":10208:10214   */\n      dup3\n        /* \"#utility.yul\":10204:10218   */\n      add\n        /* \"#utility.yul\":10197:10287   */\n      mstore\n        /* \"#utility.yul\":10080:10294   */\n      pop\n      jump\t// out\n        /* \"#utility.yul\":10300:10700   */\n    tag_142:\n        /* \"#utility.yul\":10460:10463   */\n      0x00\n        /* \"#utility.yul\":10481:10565   */\n      tag_228\n        /* \"#utility.yul\":10563:10564   */\n      0x08\n        /* \"#utility.yul\":10558:10561   */\n      dup4\n        /* \"#utility.yul\":10481:10565   */\n      tag_125\n      jump\t// in\n    tag_228:\n        /* \"#utility.yul\":10474:10565   */\n      swap2\n      pop\n        /* \"#utility.yul\":10574:10667   */\n      tag_229\n        /* \"#utility.yul\":10663:10666   */\n      dup3\n        /* \"#utility.yul\":10574:10667   */\n      tag_141\n      jump\t// in\n    tag_229:\n        /* \"#utility.yul\":10692:10693   */\n      0x08\n        /* \"#utility.yul\":10687:10690   */\n      dup3\n        /* \"#utility.yul\":10683:10694   */\n      add\n        /* \"#utility.yul\":10676:10694   */\n      swap1\n      pop\n        /* \"#utility.yul\":10300:10700   */\n      swap2\n      swap1\n      pop\n      jump\t// out\n        /* \"#utility.yul\":10706:10785   */\n    tag_143:\n        /* \"#utility.yul\":10745:10752   */\n      0x00\n        /* \"#utility.yul\":10774:10779   */\n      dup2\n        /* \"#utility.yul\":10763:10779   */\n      swap1\n      pop\n        /* \"#utility.yul\":10706:10785   */\n      swap2\n      swap1\n      pop\n      jump\t// out\n        /* \"#utility.yul\":10791:10948   */\n    tag_144:\n        /* \"#utility.yul\":10896:10941   */\n      tag_232\n        /* \"#utility.yul\":10916:10940   */\n      tag_233\n        /* \"#utility.yul\":10934:10939   */\n      dup3\n        /* \"#utility.yul\":10916:10940   */\n      tag_123\n      jump\t// in\n    tag_233:\n        /* \"#utility.yul\":10896:10941   */\n      tag_143\n      jump\t// in\n    tag_232:\n        /* \"#utility.yul\":10891:10894   */\n      dup3\n        /* \"#utility.yul\":10884:10942   */\n      mstore\n        /* \"#utility.yul\":10791:10948   */\n      pop\n      pop\n      jump\t// out\n        /* \"#utility.yul\":10954:11168   */\n    tag_145:\n        /* \"#utility.yul\":11094:11160   */\n      0x0a4465706172746d656e743a2000000000000000000000000000000000000000\n        /* \"#utility.yul\":11090:11091   */\n      0x00\n        /* \"#utility.yul\":11082:11088   */\n      dup3\n        /* \"#utility.yul\":11078:11092   */\n      add\n        /* \"#utility.yul\":11071:11161   */\n      mstore\n        /* \"#utility.yul\":10954:11168   */\n      pop\n      jump\t// out\n        /* \"#utility.yul\":11174:11576   */\n    tag_146:\n        /* \"#utility.yul\":11334:11337   */\n      0x00\n        /* \"#utility.yul\":11355:11440   */\n      tag_236\n        /* \"#utility.yul\":11437:11439   */\n      0x0d\n        /* \"#utility.yul\":11432:11435   */\n      dup4\n        /* \"#utility.yul\":11355:11440   */\n      tag_125\n      jump\t// in\n    tag_236:\n        /* \"#utility.yul\":11348:11440   */\n      swap2\n      pop\n        /* \"#utility.yul\":11449:11542   */\n      tag_237\n        /* \"#utility.yul\":11538:11541   */\n      dup3\n        /* \"#utility.yul\":11449:11542   */\n      tag_145\n      jump\t// in\n    tag_237:\n        /* \"#utility.yul\":11567:11569   */\n      0x0d\n        /* \"#utility.yul\":11562:11565   */\n      dup3\n        /* \"#utility.yul\":11558:11570   */\n      add\n        /* \"#utility.yul\":11551:11570   */\n      swap1\n      pop\n        /* \"#utility.yul\":11174:11576   */\n      swap2\n      swap1\n      pop\n      jump\t// out\n        /* \"#utility.yul\":11582:11796   */\n    tag_147:\n        /* \"#utility.yul\":11722:11788   */\n      0x0a4465706172746d656e7420486561643a200000000000000000000000000000\n        /* \"#utility.yul\":11718:11719   */\n      0x00\n        /* \"#utility.yul\":11710:11716   */\n      dup3\n        /* \"#utility.yul\":11706:11720   */\n      add\n        /* \"#utility.yul\":11699:11789   */\n      mstore\n        /* \"#utility.yul\":11582:11796   */\n      pop\n      jump\t// out\n        /* \"#utility.yul\":11802:12204   */\n    tag_148:\n        /* \"#utility.yul\":11962:11965   */\n      0x00\n        /* \"#utility.yul\":11983:12068   */\n      tag_240\n        /* \"#utility.yul\":12065:12067   */\n      0x12\n        /* \"#utility.yul\":12060:12063   */\n      dup4\n        /* \"#utility.yul\":11983:12068   */\n      tag_125\n      jump\t// in\n    tag_240:\n        /* \"#utility.yul\":11976:12068   */\n      swap2\n      pop\n        /* \"#utility.yul\":12077:12170   */\n      tag_241\n        /* \"#utility.yul\":12166:12169   */\n      dup3\n        /* \"#utility.yul\":12077:12170   */\n      tag_147\n      jump\t// in\n    tag_241:\n        /* \"#utility.yul\":12195:12197   */\n      0x12\n        /* \"#utility.yul\":12190:12193   */\n      dup3\n        /* \"#utility.yul\":12186:12198   */\n      add\n        /* \"#utility.yul\":12179:12198   */\n      swap1\n      pop\n        /* \"#utility.yul\":11802:12204   */\n      swap2\n      swap1\n      pop\n      jump\t// out\n        /* \"#utility.yul\":12210:12424   */\n    tag_149:\n        /* \"#utility.yul\":12350:12416   */\n      0x0a436f6c6c6567653a2000000000000000000000000000000000000000000000\n        /* \"#utility.yul\":12346:12347   */\n      0x00\n        /* \"#utility.yul\":12338:12344   */\n      dup3\n        /* \"#utility.yul\":12334:12348   */\n      add\n        /* \"#utility.yul\":12327:12417   */\n      mstore\n        /* \"#utility.yul\":12210:12424   */\n      pop\n      jump\t// out\n        /* \"#utility.yul\":12430:12832   */\n    tag_150:\n        /* \"#utility.yul\":12590:12593   */\n      0x00\n        /* \"#utility.yul\":12611:12696   */\n      tag_244\n        /* \"#utility.yul\":12693:12695   */\n      0x0a\n        /* \"#utility.yul\":12688:12691   */\n      dup4\n        /* \"#utility.yul\":12611:12696   */\n      tag_125\n      jump\t// in\n    tag_244:\n        /* \"#utility.yul\":12604:12696   */\n      swap2\n      pop\n        /* \"#utility.yul\":12705:12798   */\n      tag_245\n        /* \"#utility.yul\":12794:12797   */\n      dup3\n        /* \"#utility.yul\":12705:12798   */\n      tag_149\n      jump\t// in\n    tag_245:\n        /* \"#utility.yul\":12823:12825   */\n      0x0a\n        /* \"#utility.yul\":12818:12821   */\n      dup3\n        /* \"#utility.yul\":12814:12826   */\n      add\n        /* \"#utility.yul\":12807:12826   */\n      swap1\n      pop\n        /* \"#utility.yul\":12430:12832   */\n      swap2\n      swap1\n      pop\n      jump\t// out\n        /* \"#utility.yul\":12838:15880   */\n    tag_81:\n        /* \"#utility.yul\":13927:13930   */\n      0x00\n        /* \"#utility.yul\":13949:14097   */\n      tag_247\n        /* \"#utility.yul\":14093:14096   */\n      dup3\n        /* \"#utility.yul\":13949:14097   */\n      tag_138\n      jump\t// in\n    tag_247:\n        /* \"#utility.yul\":13942:14097   */\n      swap2\n      pop\n        /* \"#utility.yul\":14114:14206   */\n      tag_248\n        /* \"#utility.yul\":14202:14205   */\n      dup3\n        /* \"#utility.yul\":14193:14199   */\n      dup11\n        /* \"#utility.yul\":14114:14206   */\n      tag_130\n      jump\t// in\n    tag_248:\n        /* \"#utility.yul\":14107:14206   */\n      swap2\n      pop\n        /* \"#utility.yul\":14223:14371   */\n      tag_249\n        /* \"#utility.yul\":14367:14370   */\n      dup3\n        /* \"#utility.yul\":14223:14371   */\n      tag_140\n      jump\t// in\n    tag_249:\n        /* \"#utility.yul\":14216:14371   */\n      swap2\n      pop\n        /* \"#utility.yul\":14388:14480   */\n      tag_250\n        /* \"#utility.yul\":14476:14479   */\n      dup3\n        /* \"#utility.yul\":14467:14473   */\n      dup10\n        /* \"#utility.yul\":14388:14480   */\n      tag_130\n      jump\t// in\n    tag_250:\n        /* \"#utility.yul\":14381:14480   */\n      swap2\n      pop\n        /* \"#utility.yul\":14497:14645   */\n      tag_251\n        /* \"#utility.yul\":14641:14644   */\n      dup3\n        /* \"#utility.yul\":14497:14645   */\n      tag_142\n      jump\t// in\n    tag_251:\n        /* \"#utility.yul\":14490:14645   */\n      swap2\n      pop\n        /* \"#utility.yul\":14655:14730   */\n      tag_252\n        /* \"#utility.yul\":14726:14729   */\n      dup3\n        /* \"#utility.yul\":14717:14723   */\n      dup9\n        /* \"#utility.yul\":14655:14730   */\n      tag_144\n      jump\t// in\n    tag_252:\n        /* \"#utility.yul\":14755:14757   */\n      0x20\n        /* \"#utility.yul\":14750:14753   */\n      dup3\n        /* \"#utility.yul\":14746:14758   */\n      add\n        /* \"#utility.yul\":14739:14758   */\n      swap2\n      pop\n        /* \"#utility.yul\":14775:14923   */\n      tag_253\n        /* \"#utility.yul\":14919:14922   */\n      dup3\n        /* \"#utility.yul\":14775:14923   */\n      tag_146\n      jump\t// in\n    tag_253:\n        /* \"#utility.yul\":14768:14923   */\n      swap2\n      pop\n        /* \"#utility.yul\":14940:15032   */\n      tag_254\n        /* \"#utility.yul\":15028:15031   */\n      dup3\n        /* \"#utility.yul\":15019:15025   */\n      dup8\n        /* \"#utility.yul\":14940:15032   */\n      tag_130\n      jump\t// in\n    tag_254:\n        /* \"#utility.yul\":14933:15032   */\n      swap2\n      pop\n        /* \"#utility.yul\":15049:15197   */\n      tag_255\n        /* \"#utility.yul\":15193:15196   */\n      dup3\n        /* \"#utility.yul\":15049:15197   */\n      tag_148\n      jump\t// in\n    tag_255:\n        /* \"#utility.yul\":15042:15197   */\n      swap2\n      pop\n        /* \"#utility.yul\":15214:15306   */\n      tag_256\n        /* \"#utility.yul\":15302:15305   */\n      dup3\n        /* \"#utility.yul\":15293:15299   */\n      dup7\n        /* \"#utility.yul\":15214:15306   */\n      tag_130\n      jump\t// in\n    tag_256:\n        /* \"#utility.yul\":15207:15306   */\n      swap2\n      pop\n        /* \"#utility.yul\":15323:15471   */\n      tag_257\n        /* \"#utility.yul\":15467:15470   */\n      dup3\n        /* \"#utility.yul\":15323:15471   */\n      tag_150\n      jump\t// in\n    tag_257:\n        /* \"#utility.yul\":15316:15471   */\n      swap2\n      pop\n        /* \"#utility.yul\":15488:15580   */\n      tag_258\n        /* \"#utility.yul\":15576:15579   */\n      dup3\n        /* \"#utility.yul\":15567:15573   */\n      dup6\n        /* \"#utility.yul\":15488:15580   */\n      tag_130\n      jump\t// in\n    tag_258:\n        /* \"#utility.yul\":15481:15580   */\n      swap2\n      pop\n        /* \"#utility.yul\":15597:15745   */\n      tag_259\n        /* \"#utility.yul\":15741:15744   */\n      dup3\n        /* \"#utility.yul\":15597:15745   */\n      tag_132\n      jump\t// in\n    tag_259:\n        /* \"#utility.yul\":15590:15745   */\n      swap2\n      pop\n        /* \"#utility.yul\":15762:15854   */\n      tag_260\n        /* \"#utility.yul\":15850:15853   */\n      dup3\n        /* \"#utility.yul\":15841:15847   */\n      dup5\n        /* \"#utility.yul\":15762:15854   */\n      tag_130\n      jump\t// in\n    tag_260:\n        /* \"#utility.yul\":15755:15854   */\n      swap2\n      pop\n        /* \"#utility.yul\":15871:15874   */\n      dup2\n        /* \"#utility.yul\":15864:15874   */\n      swap1\n      pop\n        /* \"#utility.yul\":12838:15880   */\n      swap9\n      swap8\n      pop\n      pop\n      pop\n      pop\n      pop\n      pop\n      pop\n      pop\n      jump\t// out\n\n    auxdata: 0xa26469706673582212204e90b7e45f7d141db34f5895fae9ed554094df6bf6d12dbdb72b0454ca7e76ea64736f6c634300081a0033\n}\n",
				"bytecode": {
					"linkReferences": {},
					"object": "608060405234801561000f575f80fd5b5060405161152838038061152883398181016040528101906100319190610227565b8383815f90816100419190610570565b5080600190816100519190610570565b50505086600290816100639190610570565b5085600390816100739190610570565b5084600481905550816005908161008a9190610570565b50806006908161009a9190610570565b505050505050505061063f565b5f604051905090565b5f80fd5b5f80fd5b5f80fd5b5f80fd5b5f601f19601f8301169050919050565b7f4e487b71000000000000000000000000000000000000000000000000000000005f52604160045260245ffd5b610106826100c0565b810181811067ffffffffffffffff82111715610125576101246100d0565b5b80604052505050565b5f6101376100a7565b905061014382826100fd565b919050565b5f67ffffffffffffffff821115610162576101616100d0565b5b61016b826100c0565b9050602081019050919050565b8281835e5f83830152505050565b5f61019861019384610148565b61012e565b9050828152602081018484840111156101b4576101b36100bc565b5b6101bf848285610178565b509392505050565b5f82601f8301126101db576101da6100b8565b5b81516101eb848260208601610186565b91505092915050565b5f819050919050565b610206816101f4565b8114610210575f80fd5b50565b5f81519050610221816101fd565b92915050565b5f805f805f805f60e0888a031215610242576102416100b0565b5b5f88015167ffffffffffffffff81111561025f5761025e6100b4565b5b61026b8a828b016101c7565b975050602088015167ffffffffffffffff81111561028c5761028b6100b4565b5b6102988a828b016101c7565b96505060406102a98a828b01610213565b955050606088015167ffffffffffffffff8111156102ca576102c96100b4565b5b6102d68a828b016101c7565b945050608088015167ffffffffffffffff8111156102f7576102f66100b4565b5b6103038a828b016101c7565b93505060a088015167ffffffffffffffff811115610324576103236100b4565b5b6103308a828b016101c7565b92505060c088015167ffffffffffffffff811115610351576103506100b4565b5b61035d8a828b016101c7565b91505092959891949750929550565b5f81519050919050565b7f4e487b71000000000000000000000000000000000000000000000000000000005f52602260045260245ffd5b5f60028204905060018216806103ba57607f821691505b6020821081036103cd576103cc610376565b5b50919050565b5f819050815f5260205f209050919050565b5f6020601f8301049050919050565b5f82821b905092915050565b5f6008830261042f7fffffffffffffffffffffffffffffffffffffffffffffffffffffffffffffffff826103f4565b61043986836103f4565b95508019841693508086168417925050509392505050565b5f819050919050565b5f61047461046f61046a846101f4565b610451565b6101f4565b9050919050565b5f819050919050565b61048d8361045a565b6104a16104998261047b565b848454610400565b825550505050565b5f90565b6104b56104a9565b6104c0818484610484565b505050565b5b818110156104e3576104d85f826104ad565b6001810190506104c6565b5050565b601f821115610528576104f9816103d3565b610502846103e5565b81016020851015610511578190505b61052561051d856103e5565b8301826104c5565b50505b505050565b5f82821c905092915050565b5f6105485f198460080261052d565b1980831691505092915050565b5f6105608383610539565b9150826002028217905092915050565b6105798261036c565b67ffffffffffffffff811115610592576105916100d0565b5b61059c82546103a3565b6105a78282856104e7565b5f60209050601f8311600181146105d8575f84156105c6578287015190505b6105d08582610555565b865550610637565b601f1984166105e6866103d3565b5f5b8281101561060d578489015182556001820191506020850194506020810190506105e8565b8683101561062a5784890151610626601f891682610539565b8355505b6001600288020188555050505b505050505050565b610edc8061064c5f395ff3fe608060405234801561000f575f80fd5b50600436106100b2575f3560e01c80638dfd3b181161006f5780638dfd3b181461016b5780639aa7cf7614610189578063b508ba31146101a7578063b975abb3146101c5578063bc658659146101e3578063eb96548f14610203576100b2565b80630c1b7c1e146100b657806314e851b8146100d45780631b0c2670146100f35780633c84c5a5146101115780636ef9a2781461012f57806370d1f9861461014d575b5f80fd5b6100be610221565b6040516100cb91906108b9565b60405180910390f35b6100dc61024c565b6040516100ea9291906108d9565b60405180910390f35b6100fb61036e565b60405161010891906108b9565b60405180910390f35b610119610398565b6040516101269190610926565b60405180910390f35b61013761039e565b60405161014491906108b9565b60405180910390f35b61015561042a565b60405161016291906108b9565b60405180910390f35b610173610464565b60405161018091906108b9565b60405180910390f35b6101916104f0565b60405161019e91906108b9565b60405180910390f35b6101af61057c565b6040516101bc91906108b9565b60405180910390f35b6101cd610608565b6040516101da91906108b9565b60405180910390f35b6101eb610693565b6040516101fa9392919061093f565b60405180910390f35b61020b6107bd565b60405161021891906108b9565b60405180910390f35b606060056006604051602001610238929190610b0f565b604051602081830303815290604052905090565b6060805f600181805461025e90610a03565b80601f016020809104026020016040519081016040528092919081815260200182805461028a90610a03565b80156102d55780601f106102ac576101008083540402835291602001916102d5565b820191905f5260205f20905b8154815290600101906020018083116102b857829003601f168201915b505050505091508080546102e890610a03565b80601f016020809104026020016040519081016040528092919081815260200182805461031490610a03565b801561035f5780601f106103365761010080835404028352916020019161035f565b820191905f5260205f20905b81548152906001019060200180831161034257829003601f168201915b50505050509050915091509091565b60605f6001604051602001610384929190610bdc565b604051602081830303815290604052905090565b60045481565b600380546103ab90610a03565b80601f01602080910402602001604051908101604052809291908181526020018280546103d790610a03565b80156104225780601f106103f957610100808354040283529160200191610422565b820191905f5260205f20905b81548152906001019060200180831161040557829003601f168201915b505050505081565b6060600260036004545f6001600560066040516020016104509796959493929190610df1565b604051602081830303815290604052905090565b6006805461047190610a03565b80601f016020809104026020016040519081016040528092919081815260200182805461049d90610a03565b80156104e85780601f106104bf576101008083540402835291602001916104e8565b820191905f5260205f20905b8154815290600101906020018083116104cb57829003601f168201915b505050505081565b600580546104fd90610a03565b80601f016020809104026020016040519081016040528092919081815260200182805461052990610a03565b80156105745780601f1061054b57610100808354040283529160200191610574565b820191905f5260205f20905b81548152906001019060200180831161055757829003601f168201915b505050505081565b6002805461058990610a03565b80601f01602080910402602001604051908101604052809291908181526020018280546105b590610a03565b80156106005780601f106105d757610100808354040283529160200191610600565b820191905f5260205f20905b8154815290600101906020018083116105e357829003601f168201915b505050505081565b5f805461061490610a03565b80601f016020809104026020016040519081016040528092919081815260200182805461064090610a03565b801561068b5780601f106106625761010080835404028352916020019161068b565b820191905f5260205f20905b81548152906001019060200180831161066e57829003601f168201915b505050505081565b6060805f600260036004548280546106aa90610a03565b80601f01602080910402602001604051908101604052809291908181526020018280546106d690610a03565b80156107215780601f106106f857610100808354040283529160200191610721565b820191905f5260205f20905b81548152906001019060200180831161070457829003601f168201915b5050505050925081805461073490610a03565b80601f016020809104026020016040519081016040528092919081815260200182805461076090610a03565b80156107ab5780601f10610782576101008083540402835291602001916107ab565b820191905f5260205f20905b81548152906001019060200180831161078e57829003601f168201915b50505050509150925092509250909192565b600180546107ca90610a03565b80601f01602080910402602001604051908101604052809291908181526020018280546107f690610a03565b80156108415780601f1061081857610100808354040283529160200191610841565b820191905f5260205f20905b81548152906001019060200180831161082457829003601f168201915b505050505081565b5f81519050919050565b5f82825260208201905092915050565b8281835e5f83830152505050565b5f601f19601f8301169050919050565b5f61088b82610849565b6108958185610853565b93506108a5818560208601610863565b6108ae81610871565b840191505092915050565b5f6020820190508181035f8301526108d18184610881565b905092915050565b5f6040820190508181035f8301526108f18185610881565b905081810360208301526109058184610881565b90509392505050565b5f819050919050565b6109208161090e565b82525050565b5f6020820190506109395f830184610917565b92915050565b5f6060820190508181035f8301526109578186610881565b9050818103602083015261096b8185610881565b905061097a6040830184610917565b949350505050565b5f81905092915050565b7f436f6c6c656765204e616d653a200000000000000000000000000000000000005f82015250565b5f6109c0600e83610982565b91506109cb8261098c565b600e82019050919050565b7f4e487b71000000000000000000000000000000000000000000000000000000005f52602260045260245ffd5b5f6002820490506001821680610a1a57607f821691505b602082108103610a2d57610a2c6109d6565b5b50919050565b5f819050815f5260205f209050919050565b5f8154610a5181610a03565b610a5b8186610982565b9450600182165f8114610a755760018114610a8a57610abc565b60ff1983168652811515820286019350610abc565b610a9385610a33565b5f5b83811015610ab457815481890152600182019150602081019050610a95565b838801955050505b50505092915050565b7f0a436f6c6c65676520436f64653a2000000000000000000000000000000000005f82015250565b5f610af9600f83610982565b9150610b0482610ac5565b600f82019050919050565b5f610b19826109b4565b9150610b258285610a45565b9150610b3082610aed565b9150610b3c8284610a45565b91508190509392505050565b7f4465706172746d656e743a2000000000000000000000000000000000000000005f82015250565b5f610b7c600c83610982565b9150610b8782610b48565b600c82019050919050565b7f0a486561643a20000000000000000000000000000000000000000000000000005f82015250565b5f610bc6600783610982565b9150610bd182610b92565b600782019050919050565b5f610be682610b70565b9150610bf28285610a45565b9150610bfd82610bba565b9150610c098284610a45565b91508190509392505050565b7f53747564656e74204e616d653a200000000000000000000000000000000000005f82015250565b5f610c49600e83610982565b9150610c5482610c15565b600e82019050919050565b7f0a526567697374726174696f6e204e6f3a2000000000000000000000000000005f82015250565b5f610c93601283610982565b9150610c9e82610c5f565b601282019050919050565b7f0a4d61726b733a200000000000000000000000000000000000000000000000005f82015250565b5f610cdd600883610982565b9150610ce882610ca9565b600882019050919050565b5f819050919050565b610d0d610d088261090e565b610cf3565b82525050565b7f0a4465706172746d656e743a20000000000000000000000000000000000000005f82015250565b5f610d47600d83610982565b9150610d5282610d13565b600d82019050919050565b7f0a4465706172746d656e7420486561643a2000000000000000000000000000005f82015250565b5f610d91601283610982565b9150610d9c82610d5d565b601282019050919050565b7f0a436f6c6c6567653a20000000000000000000000000000000000000000000005f82015250565b5f610ddb600a83610982565b9150610de682610da7565b600a82019050919050565b5f610dfb82610c3d565b9150610e07828a610a45565b9150610e1282610c87565b9150610e1e8289610a45565b9150610e2982610cd1565b9150610e358288610cfc565b602082019150610e4482610d3b565b9150610e508287610a45565b9150610e5b82610d85565b9150610e678286610a45565b9150610e7282610dcf565b9150610e7e8285610a45565b9150610e8982610aed565b9150610e958284610a45565b91508190509897505050505050505056fea26469706673582212204e90b7e45f7d141db34f5895fae9ed554094df6bf6d12dbdb72b0454ca7e76ea64736f6c634300081a0033",
					"opcodes": "PUSH1 0x80 PUSH1 0x40 MSTORE CALLVALUE DUP1 ISZERO PUSH2 0xF JUMPI PUSH0 DUP1 REVERT JUMPDEST POP PUSH1 0x40 MLOAD PUSH2 0x1528 CODESIZE SUB DUP1 PUSH2 0x1528 DUP4 CODECOPY DUP2 DUP2 ADD PUSH1 0x40 MSTORE DUP2 ADD SWAP1 PUSH2 0x31 SWAP2 SWAP1 PUSH2 0x227 JUMP JUMPDEST DUP4 DUP4 DUP2 PUSH0 SWAP1 DUP2 PUSH2 0x41 SWAP2 SWAP1 PUSH2 0x570 JUMP JUMPDEST POP DUP1 PUSH1 0x1 SWAP1 DUP2 PUSH2 0x51 SWAP2 SWAP1 PUSH2 0x570 JUMP JUMPDEST POP POP POP DUP7 PUSH1 0x2 SWAP1 DUP2 PUSH2 0x63 SWAP2 SWAP1 PUSH2 0x570 JUMP JUMPDEST POP DUP6 PUSH1 0x3 SWAP1 DUP2 PUSH2 0x73 SWAP2 SWAP1 PUSH2 0x570 JUMP JUMPDEST POP DUP5 PUSH1 0x4 DUP2 SWAP1 SSTORE POP DUP2 PUSH1 0x5 SWAP1 DUP2 PUSH2 0x8A SWAP2 SWAP1 PUSH2 0x570 JUMP JUMPDEST POP DUP1 PUSH1 0x6 SWAP1 DUP2 PUSH2 0x9A SWAP2 SWAP1 PUSH2 0x570 JUMP JUMPDEST POP POP POP POP POP POP POP POP PUSH2 0x63F JUMP JUMPDEST PUSH0 PUSH1 0x40 MLOAD SWAP1 POP SWAP1 JUMP JUMPDEST PUSH0 DUP1 REVERT JUMPDEST PUSH0 DUP1 REVERT JUMPDEST PUSH0 DUP1 REVERT JUMPDEST PUSH0 DUP1 REVERT JUMPDEST PUSH0 PUSH1 0x1F NOT PUSH1 0x1F DUP4 ADD AND SWAP1 POP SWAP2 SWAP1 POP JUMP JUMPDEST PUSH32 0x4E487B7100000000000000000000000000000000000000000000000000000000 PUSH0 MSTORE PUSH1 0x41 PUSH1 0x4 MSTORE PUSH1 0x24 PUSH0 REVERT JUMPDEST PUSH2 0x106 DUP3 PUSH2 0xC0 JUMP JUMPDEST DUP2 ADD DUP2 DUP2 LT PUSH8 0xFFFFFFFFFFFFFFFF DUP3 GT OR ISZERO PUSH2 0x125 JUMPI PUSH2 0x124 PUSH2 0xD0 JUMP JUMPDEST JUMPDEST DUP1 PUSH1 0x40 MSTORE POP POP POP JUMP JUMPDEST PUSH0 PUSH2 0x137 PUSH2 0xA7 JUMP JUMPDEST SWAP1 POP PUSH2 0x143 DUP3 DUP3 PUSH2 0xFD JUMP JUMPDEST SWAP2 SWAP1 POP JUMP JUMPDEST PUSH0 PUSH8 0xFFFFFFFFFFFFFFFF DUP3 GT ISZERO PUSH2 0x162 JUMPI PUSH2 0x161 PUSH2 0xD0 JUMP JUMPDEST JUMPDEST PUSH2 0x16B DUP3 PUSH2 0xC0 JUMP JUMPDEST SWAP1 POP PUSH1 0x20 DUP2 ADD SWAP1 POP SWAP2 SWAP1 POP JUMP JUMPDEST DUP3 DUP2 DUP4 MCOPY PUSH0 DUP4 DUP4 ADD MSTORE POP POP POP JUMP JUMPDEST PUSH0 PUSH2 0x198 PUSH2 0x193 DUP5 PUSH2 0x148 JUMP JUMPDEST PUSH2 0x12E JUMP JUMPDEST SWAP1 POP DUP3 DUP2 MSTORE PUSH1 0x20 DUP2 ADD DUP5 DUP5 DUP5 ADD GT ISZERO PUSH2 0x1B4 JUMPI PUSH2 0x1B3 PUSH2 0xBC JUMP JUMPDEST JUMPDEST PUSH2 0x1BF DUP5 DUP3 DUP6 PUSH2 0x178 JUMP JUMPDEST POP SWAP4 SWAP3 POP POP POP JUMP JUMPDEST PUSH0 DUP3 PUSH1 0x1F DUP4 ADD SLT PUSH2 0x1DB JUMPI PUSH2 0x1DA PUSH2 0xB8 JUMP JUMPDEST JUMPDEST DUP2 MLOAD PUSH2 0x1EB DUP5 DUP3 PUSH1 0x20 DUP7 ADD PUSH2 0x186 JUMP JUMPDEST SWAP2 POP POP SWAP3 SWAP2 POP POP JUMP JUMPDEST PUSH0 DUP2 SWAP1 POP SWAP2 SWAP1 POP JUMP JUMPDEST PUSH2 0x206 DUP2 PUSH2 0x1F4 JUMP JUMPDEST DUP2 EQ PUSH2 0x210 JUMPI PUSH0 DUP1 REVERT JUMPDEST POP JUMP JUMPDEST PUSH0 DUP2 MLOAD SWAP1 POP PUSH2 0x221 DUP2 PUSH2 0x1FD JUMP JUMPDEST SWAP3 SWAP2 POP POP JUMP JUMPDEST PUSH0 DUP1 PUSH0 DUP1 PUSH0 DUP1 PUSH0 PUSH1 0xE0 DUP9 DUP11 SUB SLT ISZERO PUSH2 0x242 JUMPI PUSH2 0x241 PUSH2 0xB0 JUMP JUMPDEST JUMPDEST PUSH0 DUP9 ADD MLOAD PUSH8 0xFFFFFFFFFFFFFFFF DUP2 GT ISZERO PUSH2 0x25F JUMPI PUSH2 0x25E PUSH2 0xB4 JUMP JUMPDEST JUMPDEST PUSH2 0x26B DUP11 DUP3 DUP12 ADD PUSH2 0x1C7 JUMP JUMPDEST SWAP8 POP POP PUSH1 0x20 DUP9 ADD MLOAD PUSH8 0xFFFFFFFFFFFFFFFF DUP2 GT ISZERO PUSH2 0x28C JUMPI PUSH2 0x28B PUSH2 0xB4 JUMP JUMPDEST JUMPDEST PUSH2 0x298 DUP11 DUP3 DUP12 ADD PUSH2 0x1C7 JUMP JUMPDEST SWAP7 POP POP PUSH1 0x40 PUSH2 0x2A9 DUP11 DUP3 DUP12 ADD PUSH2 0x213 JUMP JUMPDEST SWAP6 POP POP PUSH1 0x60 DUP9 ADD MLOAD PUSH8 0xFFFFFFFFFFFFFFFF DUP2 GT ISZERO PUSH2 0x2CA JUMPI PUSH2 0x2C9 PUSH2 0xB4 JUMP JUMPDEST JUMPDEST PUSH2 0x2D6 DUP11 DUP3 DUP12 ADD PUSH2 0x1C7 JUMP JUMPDEST SWAP5 POP POP PUSH1 0x80 DUP9 ADD MLOAD PUSH8 0xFFFFFFFFFFFFFFFF DUP2 GT ISZERO PUSH2 0x2F7 JUMPI PUSH2 0x2F6 PUSH2 0xB4 JUMP JUMPDEST JUMPDEST PUSH2 0x303 DUP11 DUP3 DUP12 ADD PUSH2 0x1C7 JUMP JUMPDEST SWAP4 POP POP PUSH1 0xA0 DUP9 ADD MLOAD PUSH8 0xFFFFFFFFFFFFFFFF DUP2 GT ISZERO PUSH2 0x324 JUMPI PUSH2 0x323 PUSH2 0xB4 JUMP JUMPDEST JUMPDEST PUSH2 0x330 DUP11 DUP3 DUP12 ADD PUSH2 0x1C7 JUMP JUMPDEST SWAP3 POP POP PUSH1 0xC0 DUP9 ADD MLOAD PUSH8 0xFFFFFFFFFFFFFFFF DUP2 GT ISZERO PUSH2 0x351 JUMPI PUSH2 0x350 PUSH2 0xB4 JUMP JUMPDEST JUMPDEST PUSH2 0x35D DUP11 DUP3 DUP12 ADD PUSH2 0x1C7 JUMP JUMPDEST SWAP2 POP POP SWAP3 SWAP6 SWAP9 SWAP2 SWAP5 SWAP8 POP SWAP3 SWAP6 POP JUMP JUMPDEST PUSH0 DUP2 MLOAD SWAP1 POP SWAP2 SWAP1 POP JUMP JUMPDEST PUSH32 0x4E487B7100000000000000000000000000000000000000000000000000000000 PUSH0 MSTORE PUSH1 0x22 PUSH1 0x4 MSTORE PUSH1 0x24 PUSH0 REVERT JUMPDEST PUSH0 PUSH1 0x2 DUP3 DIV SWAP1 POP PUSH1 0x1 DUP3 AND DUP1 PUSH2 0x3BA JUMPI PUSH1 0x7F DUP3 AND SWAP2 POP JUMPDEST PUSH1 0x20 DUP3 LT DUP2 SUB PUSH2 0x3CD JUMPI PUSH2 0x3CC PUSH2 0x376 JUMP JUMPDEST JUMPDEST POP SWAP2 SWAP1 POP JUMP JUMPDEST PUSH0 DUP2 SWAP1 POP DUP2 PUSH0 MSTORE PUSH1 0x20 PUSH0 KECCAK256 SWAP1 POP SWAP2 SWAP1 POP JUMP JUMPDEST PUSH0 PUSH1 0x20 PUSH1 0x1F DUP4 ADD DIV SWAP1 POP SWAP2 SWAP1 POP JUMP JUMPDEST PUSH0 DUP3 DUP3 SHL SWAP1 POP SWAP3 SWAP2 POP POP JUMP JUMPDEST PUSH0 PUSH1 0x8 DUP4 MUL PUSH2 0x42F PUSH32 0xFFFFFFFFFFFFFFFFFFFFFFFFFFFFFFFFFFFFFFFFFFFFFFFFFFFFFFFFFFFFFFFF DUP3 PUSH2 0x3F4 JUMP JUMPDEST PUSH2 0x439 DUP7 DUP4 PUSH2 0x3F4 JUMP JUMPDEST SWAP6 POP DUP1 NOT DUP5 AND SWAP4 POP DUP1 DUP7 AND DUP5 OR SWAP3 POP POP POP SWAP4 SWAP3 POP POP POP JUMP JUMPDEST PUSH0 DUP2 SWAP1 POP SWAP2 SWAP1 POP JUMP JUMPDEST PUSH0 PUSH2 0x474 PUSH2 0x46F PUSH2 0x46A DUP5 PUSH2 0x1F4 JUMP JUMPDEST PUSH2 0x451 JUMP JUMPDEST PUSH2 0x1F4 JUMP JUMPDEST SWAP1 POP SWAP2 SWAP1 POP JUMP JUMPDEST PUSH0 DUP2 SWAP1 POP SWAP2 SWAP1 POP JUMP JUMPDEST PUSH2 0x48D DUP4 PUSH2 0x45A JUMP JUMPDEST PUSH2 0x4A1 PUSH2 0x499 DUP3 PUSH2 0x47B JUMP JUMPDEST DUP5 DUP5 SLOAD PUSH2 0x400 JUMP JUMPDEST DUP3 SSTORE POP POP POP POP JUMP JUMPDEST PUSH0 SWAP1 JUMP JUMPDEST PUSH2 0x4B5 PUSH2 0x4A9 JUMP JUMPDEST PUSH2 0x4C0 DUP2 DUP5 DUP5 PUSH2 0x484 JUMP JUMPDEST POP POP POP JUMP JUMPDEST JUMPDEST DUP2 DUP2 LT ISZERO PUSH2 0x4E3 JUMPI PUSH2 0x4D8 PUSH0 DUP3 PUSH2 0x4AD JUMP JUMPDEST PUSH1 0x1 DUP2 ADD SWAP1 POP PUSH2 0x4C6 JUMP JUMPDEST POP POP JUMP JUMPDEST PUSH1 0x1F DUP3 GT ISZERO PUSH2 0x528 JUMPI PUSH2 0x4F9 DUP2 PUSH2 0x3D3 JUMP JUMPDEST PUSH2 0x502 DUP5 PUSH2 0x3E5 JUMP JUMPDEST DUP2 ADD PUSH1 0x20 DUP6 LT ISZERO PUSH2 0x511 JUMPI DUP2 SWAP1 POP JUMPDEST PUSH2 0x525 PUSH2 0x51D DUP6 PUSH2 0x3E5 JUMP JUMPDEST DUP4 ADD DUP3 PUSH2 0x4C5 JUMP JUMPDEST POP POP JUMPDEST POP POP POP JUMP JUMPDEST PUSH0 DUP3 DUP3 SHR SWAP1 POP SWAP3 SWAP2 POP POP JUMP JUMPDEST PUSH0 PUSH2 0x548 PUSH0 NOT DUP5 PUSH1 0x8 MUL PUSH2 0x52D JUMP JUMPDEST NOT DUP1 DUP4 AND SWAP2 POP POP SWAP3 SWAP2 POP POP JUMP JUMPDEST PUSH0 PUSH2 0x560 DUP4 DUP4 PUSH2 0x539 JUMP JUMPDEST SWAP2 POP DUP3 PUSH1 0x2 MUL DUP3 OR SWAP1 POP SWAP3 SWAP2 POP POP JUMP JUMPDEST PUSH2 0x579 DUP3 PUSH2 0x36C JUMP JUMPDEST PUSH8 0xFFFFFFFFFFFFFFFF DUP2 GT ISZERO PUSH2 0x592 JUMPI PUSH2 0x591 PUSH2 0xD0 JUMP JUMPDEST JUMPDEST PUSH2 0x59C DUP3 SLOAD PUSH2 0x3A3 JUMP JUMPDEST PUSH2 0x5A7 DUP3 DUP3 DUP6 PUSH2 0x4E7 JUMP JUMPDEST PUSH0 PUSH1 0x20 SWAP1 POP PUSH1 0x1F DUP4 GT PUSH1 0x1 DUP2 EQ PUSH2 0x5D8 JUMPI PUSH0 DUP5 ISZERO PUSH2 0x5C6 JUMPI DUP3 DUP8 ADD MLOAD SWAP1 POP JUMPDEST PUSH2 0x5D0 DUP6 DUP3 PUSH2 0x555 JUMP JUMPDEST DUP7 SSTORE POP PUSH2 0x637 JUMP JUMPDEST PUSH1 0x1F NOT DUP5 AND PUSH2 0x5E6 DUP7 PUSH2 0x3D3 JUMP JUMPDEST PUSH0 JUMPDEST DUP3 DUP2 LT ISZERO PUSH2 0x60D JUMPI DUP5 DUP10 ADD MLOAD DUP3 SSTORE PUSH1 0x1 DUP3 ADD SWAP2 POP PUSH1 0x20 DUP6 ADD SWAP5 POP PUSH1 0x20 DUP2 ADD SWAP1 POP PUSH2 0x5E8 JUMP JUMPDEST DUP7 DUP4 LT ISZERO PUSH2 0x62A JUMPI DUP5 DUP10 ADD MLOAD PUSH2 0x626 PUSH1 0x1F DUP10 AND DUP3 PUSH2 0x539 JUMP JUMPDEST DUP4 SSTORE POP JUMPDEST PUSH1 0x1 PUSH1 0x2 DUP9 MUL ADD DUP9 SSTORE POP POP POP JUMPDEST POP POP POP POP POP POP JUMP JUMPDEST PUSH2 0xEDC DUP1 PUSH2 0x64C PUSH0 CODECOPY PUSH0 RETURN INVALID PUSH1 0x80 PUSH1 0x40 MSTORE CALLVALUE DUP1 ISZERO PUSH2 0xF JUMPI PUSH0 DUP1 REVERT JUMPDEST POP PUSH1 0x4 CALLDATASIZE LT PUSH2 0xB2 JUMPI PUSH0 CALLDATALOAD PUSH1 0xE0 SHR DUP1 PUSH4 0x8DFD3B18 GT PUSH2 0x6F JUMPI DUP1 PUSH4 0x8DFD3B18 EQ PUSH2 0x16B JUMPI DUP1 PUSH4 0x9AA7CF76 EQ PUSH2 0x189 JUMPI DUP1 PUSH4 0xB508BA31 EQ PUSH2 0x1A7 JUMPI DUP1 PUSH4 0xB975ABB3 EQ PUSH2 0x1C5 JUMPI DUP1 PUSH4 0xBC658659 EQ PUSH2 0x1E3 JUMPI DUP1 PUSH4 0xEB96548F EQ PUSH2 0x203 JUMPI PUSH2 0xB2 JUMP JUMPDEST DUP1 PUSH4 0xC1B7C1E EQ PUSH2 0xB6 JUMPI DUP1 PUSH4 0x14E851B8 EQ PUSH2 0xD4 JUMPI DUP1 PUSH4 0x1B0C2670 EQ PUSH2 0xF3 JUMPI DUP1 PUSH4 0x3C84C5A5 EQ PUSH2 0x111 JUMPI DUP1 PUSH4 0x6EF9A278 EQ PUSH2 0x12F JUMPI DUP1 PUSH4 0x70D1F986 EQ PUSH2 0x14D JUMPI JUMPDEST PUSH0 DUP1 REVERT JUMPDEST PUSH2 0xBE PUSH2 0x221 JUMP JUMPDEST PUSH1 0x40 MLOAD PUSH2 0xCB SWAP2 SWAP1 PUSH2 0x8B9 JUMP JUMPDEST PUSH1 0x40 MLOAD DUP1 SWAP2 SUB SWAP1 RETURN JUMPDEST PUSH2 0xDC PUSH2 0x24C JUMP JUMPDEST PUSH1 0x40 MLOAD PUSH2 0xEA SWAP3 SWAP2 SWAP1 PUSH2 0x8D9 JUMP JUMPDEST PUSH1 0x40 MLOAD DUP1 SWAP2 SUB SWAP1 RETURN JUMPDEST PUSH2 0xFB PUSH2 0x36E JUMP JUMPDEST PUSH1 0x40 MLOAD PUSH2 0x108 SWAP2 SWAP1 PUSH2 0x8B9 JUMP JUMPDEST PUSH1 0x40 MLOAD DUP1 SWAP2 SUB SWAP1 RETURN JUMPDEST PUSH2 0x119 PUSH2 0x398 JUMP JUMPDEST PUSH1 0x40 MLOAD PUSH2 0x126 SWAP2 SWAP1 PUSH2 0x926 JUMP JUMPDEST PUSH1 0x40 MLOAD DUP1 SWAP2 SUB SWAP1 RETURN JUMPDEST PUSH2 0x137 PUSH2 0x39E JUMP JUMPDEST PUSH1 0x40 MLOAD PUSH2 0x144 SWAP2 SWAP1 PUSH2 0x8B9 JUMP JUMPDEST PUSH1 0x40 MLOAD DUP1 SWAP2 SUB SWAP1 RETURN JUMPDEST PUSH2 0x155 PUSH2 0x42A JUMP JUMPDEST PUSH1 0x40 MLOAD PUSH2 0x162 SWAP2 SWAP1 PUSH2 0x8B9 JUMP JUMPDEST PUSH1 0x40 MLOAD DUP1 SWAP2 SUB SWAP1 RETURN JUMPDEST PUSH2 0x173 PUSH2 0x464 JUMP JUMPDEST PUSH1 0x40 MLOAD PUSH2 0x180 SWAP2 SWAP1 PUSH2 0x8B9 JUMP JUMPDEST PUSH1 0x40 MLOAD DUP1 SWAP2 SUB SWAP1 RETURN JUMPDEST PUSH2 0x191 PUSH2 0x4F0 JUMP JUMPDEST PUSH1 0x40 MLOAD PUSH2 0x19E SWAP2 SWAP1 PUSH2 0x8B9 JUMP JUMPDEST PUSH1 0x40 MLOAD DUP1 SWAP2 SUB SWAP1 RETURN JUMPDEST PUSH2 0x1AF PUSH2 0x57C JUMP JUMPDEST PUSH1 0x40 MLOAD PUSH2 0x1BC SWAP2 SWAP1 PUSH2 0x8B9 JUMP JUMPDEST PUSH1 0x40 MLOAD DUP1 SWAP2 SUB SWAP1 RETURN JUMPDEST PUSH2 0x1CD PUSH2 0x608 JUMP JUMPDEST PUSH1 0x40 MLOAD PUSH2 0x1DA SWAP2 SWAP1 PUSH2 0x8B9 JUMP JUMPDEST PUSH1 0x40 MLOAD DUP1 SWAP2 SUB SWAP1 RETURN JUMPDEST PUSH2 0x1EB PUSH2 0x693 JUMP JUMPDEST PUSH1 0x40 MLOAD PUSH2 0x1FA SWAP4 SWAP3 SWAP2 SWAP1 PUSH2 0x93F JUMP JUMPDEST PUSH1 0x40 MLOAD DUP1 SWAP2 SUB SWAP1 RETURN JUMPDEST PUSH2 0x20B PUSH2 0x7BD JUMP JUMPDEST PUSH1 0x40 MLOAD PUSH2 0x218 SWAP2 SWAP1 PUSH2 0x8B9 JUMP JUMPDEST PUSH1 0x40 MLOAD DUP1 SWAP2 SUB SWAP1 RETURN JUMPDEST PUSH1 0x60 PUSH1 0x5 PUSH1 0x6 PUSH1 0x40 MLOAD PUSH1 0x20 ADD PUSH2 0x238 SWAP3 SWAP2 SWAP1 PUSH2 0xB0F JUMP JUMPDEST PUSH1 0x40 MLOAD PUSH1 0x20 DUP2 DUP4 SUB SUB DUP2 MSTORE SWAP1 PUSH1 0x40 MSTORE SWAP1 POP SWAP1 JUMP JUMPDEST PUSH1 0x60 DUP1 PUSH0 PUSH1 0x1 DUP2 DUP1 SLOAD PUSH2 0x25E SWAP1 PUSH2 0xA03 JUMP JUMPDEST DUP1 PUSH1 0x1F ADD PUSH1 0x20 DUP1 SWAP2 DIV MUL PUSH1 0x20 ADD PUSH1 0x40 MLOAD SWAP1 DUP2 ADD PUSH1 0x40 MSTORE DUP1 SWAP3 SWAP2 SWAP1 DUP2 DUP2 MSTORE PUSH1 0x20 ADD DUP3 DUP1 SLOAD PUSH2 0x28A SWAP1 PUSH2 0xA03 JUMP JUMPDEST DUP1 ISZERO PUSH2 0x2D5 JUMPI DUP1 PUSH1 0x1F LT PUSH2 0x2AC JUMPI PUSH2 0x100 DUP1 DUP4 SLOAD DIV MUL DUP4 MSTORE SWAP2 PUSH1 0x20 ADD SWAP2 PUSH2 0x2D5 JUMP JUMPDEST DUP3 ADD SWAP2 SWAP1 PUSH0 MSTORE PUSH1 0x20 PUSH0 KECCAK256 SWAP1 JUMPDEST DUP2 SLOAD DUP2 MSTORE SWAP1 PUSH1 0x1 ADD SWAP1 PUSH1 0x20 ADD DUP1 DUP4 GT PUSH2 0x2B8 JUMPI DUP3 SWAP1 SUB PUSH1 0x1F AND DUP3 ADD SWAP2 JUMPDEST POP POP POP POP POP SWAP2 POP DUP1 DUP1 SLOAD PUSH2 0x2E8 SWAP1 PUSH2 0xA03 JUMP JUMPDEST DUP1 PUSH1 0x1F ADD PUSH1 0x20 DUP1 SWAP2 DIV MUL PUSH1 0x20 ADD PUSH1 0x40 MLOAD SWAP1 DUP2 ADD PUSH1 0x40 MSTORE DUP1 SWAP3 SWAP2 SWAP1 DUP2 DUP2 MSTORE PUSH1 0x20 ADD DUP3 DUP1 SLOAD PUSH2 0x314 SWAP1 PUSH2 0xA03 JUMP JUMPDEST DUP1 ISZERO PUSH2 0x35F JUMPI DUP1 PUSH1 0x1F LT PUSH2 0x336 JUMPI PUSH2 0x100 DUP1 DUP4 SLOAD DIV MUL DUP4 MSTORE SWAP2 PUSH1 0x20 ADD SWAP2 PUSH2 0x35F JUMP JUMPDEST DUP3 ADD SWAP2 SWAP1 PUSH0 MSTORE PUSH1 0x20 PUSH0 KECCAK256 SWAP1 JUMPDEST DUP2 SLOAD DUP2 MSTORE SWAP1 PUSH1 0x1 ADD SWAP1 PUSH1 0x20 ADD DUP1 DUP4 GT PUSH2 0x342 JUMPI DUP3 SWAP1 SUB PUSH1 0x1F AND DUP3 ADD SWAP2 JUMPDEST POP POP POP POP POP SWAP1 POP SWAP2 POP SWAP2 POP SWAP1 SWAP2 JUMP JUMPDEST PUSH1 0x60 PUSH0 PUSH1 0x1 PUSH1 0x40 MLOAD PUSH1 0x20 ADD PUSH2 0x384 SWAP3 SWAP2 SWAP1 PUSH2 0xBDC JUMP JUMPDEST PUSH1 0x40 MLOAD PUSH1 0x20 DUP2 DUP4 SUB SUB DUP2 MSTORE SWAP1 PUSH1 0x40 MSTORE SWAP1 POP SWAP1 JUMP JUMPDEST PUSH1 0x4 SLOAD DUP2 JUMP JUMPDEST PUSH1 0x3 DUP1 SLOAD PUSH2 0x3AB SWAP1 PUSH2 0xA03 JUMP JUMPDEST DUP1 PUSH1 0x1F ADD PUSH1 0x20 DUP1 SWAP2 DIV MUL PUSH1 0x20 ADD PUSH1 0x40 MLOAD SWAP1 DUP2 ADD PUSH1 0x40 MSTORE DUP1 SWAP3 SWAP2 SWAP1 DUP2 DUP2 MSTORE PUSH1 0x20 ADD DUP3 DUP1 SLOAD PUSH2 0x3D7 SWAP1 PUSH2 0xA03 JUMP JUMPDEST DUP1 ISZERO PUSH2 0x422 JUMPI DUP1 PUSH1 0x1F LT PUSH2 0x3F9 JUMPI PUSH2 0x100 DUP1 DUP4 SLOAD DIV MUL DUP4 MSTORE SWAP2 PUSH1 0x20 ADD SWAP2 PUSH2 0x422 JUMP JUMPDEST DUP3 ADD SWAP2 SWAP1 PUSH0 MSTORE PUSH1 0x20 PUSH0 KECCAK256 SWAP1 JUMPDEST DUP2 SLOAD DUP2 MSTORE SWAP1 PUSH1 0x1 ADD SWAP1 PUSH1 0x20 ADD DUP1 DUP4 GT PUSH2 0x405 JUMPI DUP3 SWAP1 SUB PUSH1 0x1F AND DUP3 ADD SWAP2 JUMPDEST POP POP POP POP POP DUP2 JUMP JUMPDEST PUSH1 0x60 PUSH1 0x2 PUSH1 0x3 PUSH1 0x4 SLOAD PUSH0 PUSH1 0x1 PUSH1 0x5 PUSH1 0x6 PUSH1 0x40 MLOAD PUSH1 0x20 ADD PUSH2 0x450 SWAP8 SWAP7 SWAP6 SWAP5 SWAP4 SWAP3 SWAP2 SWAP1 PUSH2 0xDF1 JUMP JUMPDEST PUSH1 0x40 MLOAD PUSH1 0x20 DUP2 DUP4 SUB SUB DUP2 MSTORE SWAP1 PUSH1 0x40 MSTORE SWAP1 POP SWAP1 JUMP JUMPDEST PUSH1 0x6 DUP1 SLOAD PUSH2 0x471 SWAP1 PUSH2 0xA03 JUMP JUMPDEST DUP1 PUSH1 0x1F ADD PUSH1 0x20 DUP1 SWAP2 DIV MUL PUSH1 0x20 ADD PUSH1 0x40 MLOAD SWAP1 DUP2 ADD PUSH1 0x40 MSTORE DUP1 SWAP3 SWAP2 SWAP1 DUP2 DUP2 MSTORE PUSH1 0x20 ADD DUP3 DUP1 SLOAD PUSH2 0x49D SWAP1 PUSH2 0xA03 JUMP JUMPDEST DUP1 ISZERO PUSH2 0x4E8 JUMPI DUP1 PUSH1 0x1F LT PUSH2 0x4BF JUMPI PUSH2 0x100 DUP1 DUP4 SLOAD DIV MUL DUP4 MSTORE SWAP2 PUSH1 0x20 ADD SWAP2 PUSH2 0x4E8 JUMP JUMPDEST DUP3 ADD SWAP2 SWAP1 PUSH0 MSTORE PUSH1 0x20 PUSH0 KECCAK256 SWAP1 JUMPDEST DUP2 SLOAD DUP2 MSTORE SWAP1 PUSH1 0x1 ADD SWAP1 PUSH1 0x20 ADD DUP1 DUP4 GT PUSH2 0x4CB JUMPI DUP3 SWAP1 SUB PUSH1 0x1F AND DUP3 ADD SWAP2 JUMPDEST POP POP POP POP POP DUP2 JUMP JUMPDEST PUSH1 0x5 DUP1 SLOAD PUSH2 0x4FD SWAP1 PUSH2 0xA03 JUMP JUMPDEST DUP1 PUSH1 0x1F ADD PUSH1 0x20 DUP1 SWAP2 DIV MUL PUSH1 0x20 ADD PUSH1 0x40 MLOAD SWAP1 DUP2 ADD PUSH1 0x40 MSTORE DUP1 SWAP3 SWAP2 SWAP1 DUP2 DUP2 MSTORE PUSH1 0x20 ADD DUP3 DUP1 SLOAD PUSH2 0x529 SWAP1 PUSH2 0xA03 JUMP JUMPDEST DUP1 ISZERO PUSH2 0x574 JUMPI DUP1 PUSH1 0x1F LT PUSH2 0x54B JUMPI PUSH2 0x100 DUP1 DUP4 SLOAD DIV MUL DUP4 MSTORE SWAP2 PUSH1 0x20 ADD SWAP2 PUSH2 0x574 JUMP JUMPDEST DUP3 ADD SWAP2 SWAP1 PUSH0 MSTORE PUSH1 0x20 PUSH0 KECCAK256 SWAP1 JUMPDEST DUP2 SLOAD DUP2 MSTORE SWAP1 PUSH1 0x1 ADD SWAP1 PUSH1 0x20 ADD DUP1 DUP4 GT PUSH2 0x557 JUMPI DUP3 SWAP1 SUB PUSH1 0x1F AND DUP3 ADD SWAP2 JUMPDEST POP POP POP POP POP DUP2 JUMP JUMPDEST PUSH1 0x2 DUP1 SLOAD PUSH2 0x589 SWAP1 PUSH2 0xA03 JUMP JUMPDEST DUP1 PUSH1 0x1F ADD PUSH1 0x20 DUP1 SWAP2 DIV MUL PUSH1 0x20 ADD PUSH1 0x40 MLOAD SWAP1 DUP2 ADD PUSH1 0x40 MSTORE DUP1 SWAP3 SWAP2 SWAP1 DUP2 DUP2 MSTORE PUSH1 0x20 ADD DUP3 DUP1 SLOAD PUSH2 0x5B5 SWAP1 PUSH2 0xA03 JUMP JUMPDEST DUP1 ISZERO PUSH2 0x600 JUMPI DUP1 PUSH1 0x1F LT PUSH2 0x5D7 JUMPI PUSH2 0x100 DUP1 DUP4 SLOAD DIV MUL DUP4 MSTORE SWAP2 PUSH1 0x20 ADD SWAP2 PUSH2 0x600 JUMP JUMPDEST DUP3 ADD SWAP2 SWAP1 PUSH0 MSTORE PUSH1 0x20 PUSH0 KECCAK256 SWAP1 JUMPDEST DUP2 SLOAD DUP2 MSTORE SWAP1 PUSH1 0x1 ADD SWAP1 PUSH1 0x20 ADD DUP1 DUP4 GT PUSH2 0x5E3 JUMPI DUP3 SWAP1 SUB PUSH1 0x1F AND DUP3 ADD SWAP2 JUMPDEST POP POP POP POP POP DUP2 JUMP JUMPDEST PUSH0 DUP1 SLOAD PUSH2 0x614 SWAP1 PUSH2 0xA03 JUMP JUMPDEST DUP1 PUSH1 0x1F ADD PUSH1 0x20 DUP1 SWAP2 DIV MUL PUSH1 0x20 ADD PUSH1 0x40 MLOAD SWAP1 DUP2 ADD PUSH1 0x40 MSTORE DUP1 SWAP3 SWAP2 SWAP1 DUP2 DUP2 MSTORE PUSH1 0x20 ADD DUP3 DUP1 SLOAD PUSH2 0x640 SWAP1 PUSH2 0xA03 JUMP JUMPDEST DUP1 ISZERO PUSH2 0x68B JUMPI DUP1 PUSH1 0x1F LT PUSH2 0x662 JUMPI PUSH2 0x100 DUP1 DUP4 SLOAD DIV MUL DUP4 MSTORE SWAP2 PUSH1 0x20 ADD SWAP2 PUSH2 0x68B JUMP JUMPDEST DUP3 ADD SWAP2 SWAP1 PUSH0 MSTORE PUSH1 0x20 PUSH0 KECCAK256 SWAP1 JUMPDEST DUP2 SLOAD DUP2 MSTORE SWAP1 PUSH1 0x1 ADD SWAP1 PUSH1 0x20 ADD DUP1 DUP4 GT PUSH2 0x66E JUMPI DUP3 SWAP1 SUB PUSH1 0x1F AND DUP3 ADD SWAP2 JUMPDEST POP POP POP POP POP DUP2 JUMP JUMPDEST PUSH1 0x60 DUP1 PUSH0 PUSH1 0x2 PUSH1 0x3 PUSH1 0x4 SLOAD DUP3 DUP1 SLOAD PUSH2 0x6AA SWAP1 PUSH2 0xA03 JUMP JUMPDEST DUP1 PUSH1 0x1F ADD PUSH1 0x20 DUP1 SWAP2 DIV MUL PUSH1 0x20 ADD PUSH1 0x40 MLOAD SWAP1 DUP2 ADD PUSH1 0x40 MSTORE DUP1 SWAP3 SWAP2 SWAP1 DUP2 DUP2 MSTORE PUSH1 0x20 ADD DUP3 DUP1 SLOAD PUSH2 0x6D6 SWAP1 PUSH2 0xA03 JUMP JUMPDEST DUP1 ISZERO PUSH2 0x721 JUMPI DUP1 PUSH1 0x1F LT PUSH2 0x6F8 JUMPI PUSH2 0x100 DUP1 DUP4 SLOAD DIV MUL DUP4 MSTORE SWAP2 PUSH1 0x20 ADD SWAP2 PUSH2 0x721 JUMP JUMPDEST DUP3 ADD SWAP2 SWAP1 PUSH0 MSTORE PUSH1 0x20 PUSH0 KECCAK256 SWAP1 JUMPDEST DUP2 SLOAD DUP2 MSTORE SWAP1 PUSH1 0x1 ADD SWAP1 PUSH1 0x20 ADD DUP1 DUP4 GT PUSH2 0x704 JUMPI DUP3 SWAP1 SUB PUSH1 0x1F AND DUP3 ADD SWAP2 JUMPDEST POP POP POP POP POP SWAP3 POP DUP2 DUP1 SLOAD PUSH2 0x734 SWAP1 PUSH2 0xA03 JUMP JUMPDEST DUP1 PUSH1 0x1F ADD PUSH1 0x20 DUP1 SWAP2 DIV MUL PUSH1 0x20 ADD PUSH1 0x40 MLOAD SWAP1 DUP2 ADD PUSH1 0x40 MSTORE DUP1 SWAP3 SWAP2 SWAP1 DUP2 DUP2 MSTORE PUSH1 0x20 ADD DUP3 DUP1 SLOAD PUSH2 0x760 SWAP1 PUSH2 0xA03 JUMP JUMPDEST DUP1 ISZERO PUSH2 0x7AB JUMPI DUP1 PUSH1 0x1F LT PUSH2 0x782 JUMPI PUSH2 0x100 DUP1 DUP4 SLOAD DIV MUL DUP4 MSTORE SWAP2 PUSH1 0x20 ADD SWAP2 PUSH2 0x7AB JUMP JUMPDEST DUP3 ADD SWAP2 SWAP1 PUSH0 MSTORE PUSH1 0x20 PUSH0 KECCAK256 SWAP1 JUMPDEST DUP2 SLOAD DUP2 MSTORE SWAP1 PUSH1 0x1 ADD SWAP1 PUSH1 0x20 ADD DUP1 DUP4 GT PUSH2 0x78E JUMPI DUP3 SWAP1 SUB PUSH1 0x1F AND DUP3 ADD SWAP2 JUMPDEST POP POP POP POP POP SWAP2 POP SWAP3 POP SWAP3 POP SWAP3 POP SWAP1 SWAP2 SWAP3 JUMP JUMPDEST PUSH1 0x1 DUP1 SLOAD PUSH2 0x7CA SWAP1 PUSH2 0xA03 JUMP JUMPDEST DUP1 PUSH1 0x1F ADD PUSH1 0x20 DUP1 SWAP2 DIV MUL PUSH1 0x20 ADD PUSH1 0x40 MLOAD SWAP1 DUP2 ADD PUSH1 0x40 MSTORE DUP1 SWAP3 SWAP2 SWAP1 DUP2 DUP2 MSTORE PUSH1 0x20 ADD DUP3 DUP1 SLOAD PUSH2 0x7F6 SWAP1 PUSH2 0xA03 JUMP JUMPDEST DUP1 ISZERO PUSH2 0x841 JUMPI DUP1 PUSH1 0x1F LT PUSH2 0x818 JUMPI PUSH2 0x100 DUP1 DUP4 SLOAD DIV MUL DUP4 MSTORE SWAP2 PUSH1 0x20 ADD SWAP2 PUSH2 0x841 JUMP JUMPDEST DUP3 ADD SWAP2 SWAP1 PUSH0 MSTORE PUSH1 0x20 PUSH0 KECCAK256 SWAP1 JUMPDEST DUP2 SLOAD DUP2 MSTORE SWAP1 PUSH1 0x1 ADD SWAP1 PUSH1 0x20 ADD DUP1 DUP4 GT PUSH2 0x824 JUMPI DUP3 SWAP1 SUB PUSH1 0x1F AND DUP3 ADD SWAP2 JUMPDEST POP POP POP POP POP DUP2 JUMP JUMPDEST PUSH0 DUP2 MLOAD SWAP1 POP SWAP2 SWAP1 POP JUMP JUMPDEST PUSH0 DUP3 DUP3 MSTORE PUSH1 0x20 DUP3 ADD SWAP1 POP SWAP3 SWAP2 POP POP JUMP JUMPDEST DUP3 DUP2 DUP4 MCOPY PUSH0 DUP4 DUP4 ADD MSTORE POP POP POP JUMP JUMPDEST PUSH0 PUSH1 0x1F NOT PUSH1 0x1F DUP4 ADD AND SWAP1 POP SWAP2 SWAP1 POP JUMP JUMPDEST PUSH0 PUSH2 0x88B DUP3 PUSH2 0x849 JUMP JUMPDEST PUSH2 0x895 DUP2 DUP6 PUSH2 0x853 JUMP JUMPDEST SWAP4 POP PUSH2 0x8A5 DUP2 DUP6 PUSH1 0x20 DUP7 ADD PUSH2 0x863 JUMP JUMPDEST PUSH2 0x8AE DUP2 PUSH2 0x871 JUMP JUMPDEST DUP5 ADD SWAP2 POP POP SWAP3 SWAP2 POP POP JUMP JUMPDEST PUSH0 PUSH1 0x20 DUP3 ADD SWAP1 POP DUP2 DUP2 SUB PUSH0 DUP4 ADD MSTORE PUSH2 0x8D1 DUP2 DUP5 PUSH2 0x881 JUMP JUMPDEST SWAP1 POP SWAP3 SWAP2 POP POP JUMP JUMPDEST PUSH0 PUSH1 0x40 DUP3 ADD SWAP1 POP DUP2 DUP2 SUB PUSH0 DUP4 ADD MSTORE PUSH2 0x8F1 DUP2 DUP6 PUSH2 0x881 JUMP JUMPDEST SWAP1 POP DUP2 DUP2 SUB PUSH1 0x20 DUP4 ADD MSTORE PUSH2 0x905 DUP2 DUP5 PUSH2 0x881 JUMP JUMPDEST SWAP1 POP SWAP4 SWAP3 POP POP POP JUMP JUMPDEST PUSH0 DUP2 SWAP1 POP SWAP2 SWAP1 POP JUMP JUMPDEST PUSH2 0x920 DUP2 PUSH2 0x90E JUMP JUMPDEST DUP3 MSTORE POP POP JUMP JUMPDEST PUSH0 PUSH1 0x20 DUP3 ADD SWAP1 POP PUSH2 0x939 PUSH0 DUP4 ADD DUP5 PUSH2 0x917 JUMP JUMPDEST SWAP3 SWAP2 POP POP JUMP JUMPDEST PUSH0 PUSH1 0x60 DUP3 ADD SWAP1 POP DUP2 DUP2 SUB PUSH0 DUP4 ADD MSTORE PUSH2 0x957 DUP2 DUP7 PUSH2 0x881 JUMP JUMPDEST SWAP1 POP DUP2 DUP2 SUB PUSH1 0x20 DUP4 ADD MSTORE PUSH2 0x96B DUP2 DUP6 PUSH2 0x881 JUMP JUMPDEST SWAP1 POP PUSH2 0x97A PUSH1 0x40 DUP4 ADD DUP5 PUSH2 0x917 JUMP JUMPDEST SWAP5 SWAP4 POP POP POP POP JUMP JUMPDEST PUSH0 DUP2 SWAP1 POP SWAP3 SWAP2 POP POP JUMP JUMPDEST PUSH32 0x436F6C6C656765204E616D653A20000000000000000000000000000000000000 PUSH0 DUP3 ADD MSTORE POP JUMP JUMPDEST PUSH0 PUSH2 0x9C0 PUSH1 0xE DUP4 PUSH2 0x982 JUMP JUMPDEST SWAP2 POP PUSH2 0x9CB DUP3 PUSH2 0x98C JUMP JUMPDEST PUSH1 0xE DUP3 ADD SWAP1 POP SWAP2 SWAP1 POP JUMP JUMPDEST PUSH32 0x4E487B7100000000000000000000000000000000000000000000000000000000 PUSH0 MSTORE PUSH1 0x22 PUSH1 0x4 MSTORE PUSH1 0x24 PUSH0 REVERT JUMPDEST PUSH0 PUSH1 0x2 DUP3 DIV SWAP1 POP PUSH1 0x1 DUP3 AND DUP1 PUSH2 0xA1A JUMPI PUSH1 0x7F DUP3 AND SWAP2 POP JUMPDEST PUSH1 0x20 DUP3 LT DUP2 SUB PUSH2 0xA2D JUMPI PUSH2 0xA2C PUSH2 0x9D6 JUMP JUMPDEST JUMPDEST POP SWAP2 SWAP1 POP JUMP JUMPDEST PUSH0 DUP2 SWAP1 POP DUP2 PUSH0 MSTORE PUSH1 0x20 PUSH0 KECCAK256 SWAP1 POP SWAP2 SWAP1 POP JUMP JUMPDEST PUSH0 DUP2 SLOAD PUSH2 0xA51 DUP2 PUSH2 0xA03 JUMP JUMPDEST PUSH2 0xA5B DUP2 DUP7 PUSH2 0x982 JUMP JUMPDEST SWAP5 POP PUSH1 0x1 DUP3 AND PUSH0 DUP2 EQ PUSH2 0xA75 JUMPI PUSH1 0x1 DUP2 EQ PUSH2 0xA8A JUMPI PUSH2 0xABC JUMP JUMPDEST PUSH1 0xFF NOT DUP4 AND DUP7 MSTORE DUP2 ISZERO ISZERO DUP3 MUL DUP7 ADD SWAP4 POP PUSH2 0xABC JUMP JUMPDEST PUSH2 0xA93 DUP6 PUSH2 0xA33 JUMP JUMPDEST PUSH0 JUMPDEST DUP4 DUP2 LT ISZERO PUSH2 0xAB4 JUMPI DUP2 SLOAD DUP2 DUP10 ADD MSTORE PUSH1 0x1 DUP3 ADD SWAP2 POP PUSH1 0x20 DUP2 ADD SWAP1 POP PUSH2 0xA95 JUMP JUMPDEST DUP4 DUP9 ADD SWAP6 POP POP POP JUMPDEST POP POP POP SWAP3 SWAP2 POP POP JUMP JUMPDEST PUSH32 0xA436F6C6C65676520436F64653A200000000000000000000000000000000000 PUSH0 DUP3 ADD MSTORE POP JUMP JUMPDEST PUSH0 PUSH2 0xAF9 PUSH1 0xF DUP4 PUSH2 0x982 JUMP JUMPDEST SWAP2 POP PUSH2 0xB04 DUP3 PUSH2 0xAC5 JUMP JUMPDEST PUSH1 0xF DUP3 ADD SWAP1 POP SWAP2 SWAP1 POP JUMP JUMPDEST PUSH0 PUSH2 0xB19 DUP3 PUSH2 0x9B4 JUMP JUMPDEST SWAP2 POP PUSH2 0xB25 DUP3 DUP6 PUSH2 0xA45 JUMP JUMPDEST SWAP2 POP PUSH2 0xB30 DUP3 PUSH2 0xAED JUMP JUMPDEST SWAP2 POP PUSH2 0xB3C DUP3 DUP5 PUSH2 0xA45 JUMP JUMPDEST SWAP2 POP DUP2 SWAP1 POP SWAP4 SWAP3 POP POP POP JUMP JUMPDEST PUSH32 0x4465706172746D656E743A200000000000000000000000000000000000000000 PUSH0 DUP3 ADD MSTORE POP JUMP JUMPDEST PUSH0 PUSH2 0xB7C PUSH1 0xC DUP4 PUSH2 0x982 JUMP JUMPDEST SWAP2 POP PUSH2 0xB87 DUP3 PUSH2 0xB48 JUMP JUMPDEST PUSH1 0xC DUP3 ADD SWAP1 POP SWAP2 SWAP1 POP JUMP JUMPDEST PUSH32 0xA486561643A2000000000000000000000000000000000000000000000000000 PUSH0 DUP3 ADD MSTORE POP JUMP JUMPDEST PUSH0 PUSH2 0xBC6 PUSH1 0x7 DUP4 PUSH2 0x982 JUMP JUMPDEST SWAP2 POP PUSH2 0xBD1 DUP3 PUSH2 0xB92 JUMP JUMPDEST PUSH1 0x7 DUP3 ADD SWAP1 POP SWAP2 SWAP1 POP JUMP JUMPDEST PUSH0 PUSH2 0xBE6 DUP3 PUSH2 0xB70 JUMP JUMPDEST SWAP2 POP PUSH2 0xBF2 DUP3 DUP6 PUSH2 0xA45 JUMP JUMPDEST SWAP2 POP PUSH2 0xBFD DUP3 PUSH2 0xBBA JUMP JUMPDEST SWAP2 POP PUSH2 0xC09 DUP3 DUP5 PUSH2 0xA45 JUMP JUMPDEST SWAP2 POP DUP2 SWAP1 POP SWAP4 SWAP3 POP POP POP JUMP JUMPDEST PUSH32 0x53747564656E74204E616D653A20000000000000000000000000000000000000 PUSH0 DUP3 ADD MSTORE POP JUMP JUMPDEST PUSH0 PUSH2 0xC49 PUSH1 0xE DUP4 PUSH2 0x982 JUMP JUMPDEST SWAP2 POP PUSH2 0xC54 DUP3 PUSH2 0xC15 JUMP JUMPDEST PUSH1 0xE DUP3 ADD SWAP1 POP SWAP2 SWAP1 POP JUMP JUMPDEST PUSH32 0xA526567697374726174696F6E204E6F3A200000000000000000000000000000 PUSH0 DUP3 ADD MSTORE POP JUMP JUMPDEST PUSH0 PUSH2 0xC93 PUSH1 0x12 DUP4 PUSH2 0x982 JUMP JUMPDEST SWAP2 POP PUSH2 0xC9E DUP3 PUSH2 0xC5F JUMP JUMPDEST PUSH1 0x12 DUP3 ADD SWAP1 POP SWAP2 SWAP1 POP JUMP JUMPDEST PUSH32 0xA4D61726B733A20000000000000000000000000000000000000000000000000 PUSH0 DUP3 ADD MSTORE POP JUMP JUMPDEST PUSH0 PUSH2 0xCDD PUSH1 0x8 DUP4 PUSH2 0x982 JUMP JUMPDEST SWAP2 POP PUSH2 0xCE8 DUP3 PUSH2 0xCA9 JUMP JUMPDEST PUSH1 0x8 DUP3 ADD SWAP1 POP SWAP2 SWAP1 POP JUMP JUMPDEST PUSH0 DUP2 SWAP1 POP SWAP2 SWAP1 POP JUMP JUMPDEST PUSH2 0xD0D PUSH2 0xD08 DUP3 PUSH2 0x90E JUMP JUMPDEST PUSH2 0xCF3 JUMP JUMPDEST DUP3 MSTORE POP POP JUMP JUMPDEST PUSH32 0xA4465706172746D656E743A2000000000000000000000000000000000000000 PUSH0 DUP3 ADD MSTORE POP JUMP JUMPDEST PUSH0 PUSH2 0xD47 PUSH1 0xD DUP4 PUSH2 0x982 JUMP JUMPDEST SWAP2 POP PUSH2 0xD52 DUP3 PUSH2 0xD13 JUMP JUMPDEST PUSH1 0xD DUP3 ADD SWAP1 POP SWAP2 SWAP1 POP JUMP JUMPDEST PUSH32 0xA4465706172746D656E7420486561643A200000000000000000000000000000 PUSH0 DUP3 ADD MSTORE POP JUMP JUMPDEST PUSH0 PUSH2 0xD91 PUSH1 0x12 DUP4 PUSH2 0x982 JUMP JUMPDEST SWAP2 POP PUSH2 0xD9C DUP3 PUSH2 0xD5D JUMP JUMPDEST PUSH1 0x12 DUP3 ADD SWAP1 POP SWAP2 SWAP1 POP JUMP JUMPDEST PUSH32 0xA436F6C6C6567653A2000000000000000000000000000000000000000000000 PUSH0 DUP3 ADD MSTORE POP JUMP JUMPDEST PUSH0 PUSH2 0xDDB PUSH1 0xA DUP4 PUSH2 0x982 JUMP JUMPDEST SWAP2 POP PUSH2 0xDE6 DUP3 PUSH2 0xDA7 JUMP JUMPDEST PUSH1 0xA DUP3 ADD SWAP1 POP SWAP2 SWAP1 POP JUMP JUMPDEST PUSH0 PUSH2 0xDFB DUP3 PUSH2 0xC3D JUMP JUMPDEST SWAP2 POP PUSH2 0xE07 DUP3 DUP11 PUSH2 0xA45 JUMP JUMPDEST SWAP2 POP PUSH2 0xE12 DUP3 PUSH2 0xC87 JUMP JUMPDEST SWAP2 POP PUSH2 0xE1E DUP3 DUP10 PUSH2 0xA45 JUMP JUMPDEST SWAP2 POP PUSH2 0xE29 DUP3 PUSH2 0xCD1 JUMP JUMPDEST SWAP2 POP PUSH2 0xE35 DUP3 DUP9 PUSH2 0xCFC JUMP JUMPDEST PUSH1 0x20 DUP3 ADD SWAP2 POP PUSH2 0xE44 DUP3 PUSH2 0xD3B JUMP JUMPDEST SWAP2 POP PUSH2 0xE50 DUP3 DUP8 PUSH2 0xA45 JUMP JUMPDEST SWAP2 POP PUSH2 0xE5B DUP3 PUSH2 0xD85 JUMP JUMPDEST SWAP2 POP PUSH2 0xE67 DUP3 DUP7 PUSH2 0xA45 JUMP JUMPDEST SWAP2 POP PUSH2 0xE72 DUP3 PUSH2 0xDCF JUMP JUMPDEST SWAP2 POP PUSH2 0xE7E DUP3 DUP6 PUSH2 0xA45 JUMP JUMPDEST SWAP2 POP PUSH2 0xE89 DUP3 PUSH2 0xAED JUMP JUMPDEST SWAP2 POP PUSH2 0xE95 DUP3 DUP5 PUSH2 0xA45 JUMP JUMPDEST SWAP2 POP DUP2 SWAP1 POP SWAP9 SWAP8 POP POP POP POP POP POP POP POP JUMP INVALID LOG2 PUSH5 0x6970667358 0x22 SLT KECCAK256 0x4E SWAP1 0xB7 0xE4 PUSH0 PUSH30 0x141DB34F5895FAE9ED554094DF6BF6D12DBDB72B0454CA7E76EA64736F6C PUSH4 0x4300081A STOP CALLER "
				},
				"gasEstimates": {
					"creation": {
						"codeDepositCost": "760800",
						"executionCost": "infinite",
						"totalCost": "infinite"
					},
					"external": {
						"collegeCode()": "infinite",
						"collegeName()": "infinite",
						"deptHead()": "infinite",
						"deptName()": "infinite",
						"display()": "infinite",
						"getDeptDetails()": "infinite",
						"getStudentDetails()": "infinite",
						"marks()": "2492",
						"printDeptDetails()": "infinite",
						"printReportCard()": "infinite",
						"regNo()": "infinite",
						"studentName()": "infinite"
					}
				},
				"methodIdentifiers": {
					"collegeCode()": "8dfd3b18",
					"collegeName()": "9aa7cf76",
					"deptHead()": "eb96548f",
					"deptName()": "b975abb3",
					"display()": "0c1b7c1e",
					"getDeptDetails()": "14e851b8",
					"getStudentDetails()": "bc658659",
					"marks()": "3c84c5a5",
					"printDeptDetails()": "1b0c2670",
					"printReportCard()": "70d1f986",
					"regNo()": "6ef9a278",
					"studentName()": "b508ba31"
				}
			},
			"storageLayout": {
				"storage": [
					{
						"astId": 9,
						"contract": "day10/p2.sol:Student",
						"label": "deptName",
						"offset": 0,
						"slot": "0",
						"type": "t_string_storage"
					},
					{
						"astId": 11,
						"contract": "day10/p2.sol:Student",
						"label": "deptHead",
						"offset": 0,
						"slot": "1",
						"type": "t_string_storage"
					},
					{
						"astId": 63,
						"contract": "day10/p2.sol:Student",
						"label": "studentName",
						"offset": 0,
						"slot": "2",
						"type": "t_string_storage"
					},
					{
						"astId": 65,
						"contract": "day10/p2.sol:Student",
						"label": "regNo",
						"offset": 0,
						"slot": "3",
						"type": "t_string_storage"
					},
					{
						"astId": 67,
						"contract": "day10/p2.sol:Student",
						"label": "marks",
						"offset": 0,
						"slot": "4",
						"type": "t_uint256"
					},
					{
						"astId": 69,
						"contract": "day10/p2.sol:Student",
						"label": "collegeName",
						"offset": 0,
						"slot": "5",
						"type": "t_string_storage"
					},
					{
						"astId": 71,
						"contract": "day10/p2.sol:Student",
						"label": "collegeCode",
						"offset": 0,
						"slot": "6",
						"type": "t_string_storage"
					}
				],
				"types": {
					"t_string_storage": {
						"encoding": "bytes",
						"label": "string",
						"numberOfBytes": "32"
					},
					"t_uint256": {
						"encoding": "inplace",
						"label": "uint256",
						"numberOfBytes": "32"
					}
				}
			},
			"userdoc": {
				"kind": "user",
				"methods": {},
				"version": 1
			}
		}
	}
}