{
	"data": {
		"bytecode": {
			"linkReferences": {},
			"object": "6080604052348015600e575f80fd5b50612c0a8061001c5f395ff3fe608060405234801561000f575f80fd5b5060043610610054575f3560e01c8062059893146100585780636881f23b14610074578063a0f9384d146100a4578063c7ef6bfb146100d4578063e0e9544014610105575b5f80fd5b610072600480360381019061006d9190610a74565b610121565b005b61008e60048036038101906100899190610bfc565b610248565b60405161009b9190610ca3565b60405180910390f35b6100be60048036038101906100b99190610cc3565b6103ab565b6040516100cb9190610ca3565b60405180910390f35b6100ee60048036038101906100e99190610bfc565b610451565b6040516100fc929190610d68565b60405180910390f35b61011f600480360381019061011a9190610d96565b61052d565b005b5f898989898989898989604051610137906108e7565b61014999989796959493929190610e5d565b604051809103905ff080158015610162573d5f803e3d5ffd5b50905060405180604001604052808273ffffffffffffffffffffffffffffffffffffffff1681526020018a8152505f8a60405161019f9190610f53565b90815260200160405180910390205f820151815f015f6101000a81548173ffffffffffffffffffffffffffffffffffffffff021916908373ffffffffffffffffffffffffffffffffffffffff1602179055506020820151816001019081610206919061115a565b50905050600189908060018154018082558091505060019003905f5260205f20015f90919091909150908161023b919061115a565b5050505050505050505050565b60605f73ffffffffffffffffffffffffffffffffffffffff165f836040516102709190610f53565b90815260200160405180910390205f015f9054906101000a900473ffffffffffffffffffffffffffffffffffffffff1673ffffffffffffffffffffffffffffffffffffffff16036102f6576040517f08c379a00000000000000000000000000000000000000000000000000000000081526004016102ed90611273565b60405180910390fd5b5f826040516103059190610f53565b90815260200160405180910390205f015f9054906101000a900473ffffffffffffffffffffffffffffffffffffffff1673ffffffffffffffffffffffffffffffffffffffff1663e81bd2a46040518163ffffffff1660e01b81526004015f60405180830381865afa15801561037c573d5f803e3d5ffd5b505050506040513d5f823e3d601f19601f820116820180604052508101906103a491906112ff565b9050919050565b600181815481106103ba575f80fd5b905f5260205f20015f9150905080546103d290610f96565b80601f01602080910402602001604051908101604052809291908181526020018280546103fe90610f96565b80156104495780601f1061042057610100808354040283529160200191610449565b820191905f5260205f20905b81548152906001019060200180831161042c57829003601f168201915b505050505081565b5f818051602081018201805184825260208301602085012081835280955050505050505f91509050805f015f9054906101000a900473ffffffffffffffffffffffffffffffffffffffff16908060010180546104ac90610f96565b80601f01602080910402602001604051908101604052809291908181526020018280546104d890610f96565b80156105235780601f106104fa57610100808354040283529160200191610523565b820191905f5260205f20905b81548152906001019060200180831161050657829003601f168201915b5050505050905082565b5f73ffffffffffffffffffffffffffffffffffffffff165f856040516105539190610f53565b90815260200160405180910390205f015f9054906101000a900473ffffffffffffffffffffffffffffffffffffffff1673ffffffffffffffffffffffffffffffffffffffff16036105d9576040517f08c379a00000000000000000000000000000000000000000000000000000000081526004016105d090611273565b60405180910390fd5b5f80856040516105e99190610f53565b90815260200160405180910390205f015f9054906101000a900473ffffffffffffffffffffffffffffffffffffffff1690508073ffffffffffffffffffffffffffffffffffffffff1663b508ba316040518163ffffffff1660e01b81526004015f60405180830381865afa158015610663573d5f803e3d5ffd5b505050506040513d5f823e3d601f19601f8201168201806040525081019061068b91906112ff565b858273ffffffffffffffffffffffffffffffffffffffff1663c607ba4d6040518163ffffffff1660e01b81526004015f60405180830381865afa1580156106d4573d5f803e3d5ffd5b505050506040513d5f823e3d601f19601f820116820180604052508101906106fc91906112ff565b8373ffffffffffffffffffffffffffffffffffffffff1663d57831f56040518163ffffffff1660e01b8152600401602060405180830381865afa158015610745573d5f803e3d5ffd5b505050506040513d601f19601f82011682018060405250810190610769919061135a565b8473ffffffffffffffffffffffffffffffffffffffff1663b975abb36040518163ffffffff1660e01b81526004015f60405180830381865afa1580156107b1573d5f803e3d5ffd5b505050506040513d5f823e3d601f19601f820116820180604052508101906107d991906112ff565b8573ffffffffffffffffffffffffffffffffffffffff1663eb96548f6040518163ffffffff1660e01b81526004015f60405180830381865afa158015610821573d5f803e3d5ffd5b505050506040513d5f823e3d601f19601f8201168201806040525081019061084991906112ff565b898989604051610858906108e7565b61086a99989796959493929190610e5d565b604051809103905ff080158015610883573d5f803e3d5ffd5b505f866040516108939190610f53565b90815260200160405180910390205f015f6101000a81548173ffffffffffffffffffffffffffffffffffffffff021916908373ffffffffffffffffffffffffffffffffffffffff1602179055505050505050565b61184f8061138683390190565b5f604051905090565b5f80fd5b5f80fd5b5f80fd5b5f80fd5b5f601f19601f8301169050919050565b7f4e487b71000000000000000000000000000000000000000000000000000000005f52604160045260245ffd5b6109538261090d565b810181811067ffffffffffffffff821117156109725761097161091d565b5b80604052505050565b5f6109846108f4565b9050610990828261094a565b919050565b5f67ffffffffffffffff8211156109af576109ae61091d565b5b6109b88261090d565b9050602081019050919050565b828183375f83830152505050565b5f6109e56109e084610995565b61097b565b905082815260208101848484011115610a0157610a00610909565b5b610a0c8482856109c5565b509392505050565b5f82601f830112610a2857610a27610905565b5b8135610a388482602086016109d3565b91505092915050565b5f819050919050565b610a5381610a41565b8114610a5d575f80fd5b50565b5f81359050610a6e81610a4a565b92915050565b5f805f805f805f805f6101208a8c031215610a9257610a916108fd565b5b5f8a013567ffffffffffffffff811115610aaf57610aae610901565b5b610abb8c828d01610a14565b99505060208a013567ffffffffffffffff811115610adc57610adb610901565b5b610ae88c828d01610a14565b98505060408a013567ffffffffffffffff811115610b0957610b08610901565b5b610b158c828d01610a14565b9750506060610b268c828d01610a60565b96505060808a013567ffffffffffffffff811115610b4757610b46610901565b5b610b538c828d01610a14565b95505060a08a013567ffffffffffffffff811115610b7457610b73610901565b5b610b808c828d01610a14565b94505060c08a013567ffffffffffffffff811115610ba157610ba0610901565b5b610bad8c828d01610a14565b93505060e08a013567ffffffffffffffff811115610bce57610bcd610901565b5b610bda8c828d01610a14565b925050610100610bec8c828d01610a60565b9150509295985092959850929598565b5f60208284031215610c1157610c106108fd565b5b5f82013567ffffffffffffffff811115610c2e57610c2d610901565b5b610c3a84828501610a14565b91505092915050565b5f81519050919050565b5f82825260208201905092915050565b8281835e5f83830152505050565b5f610c7582610c43565b610c7f8185610c4d565b9350610c8f818560208601610c5d565b610c988161090d565b840191505092915050565b5f6020820190508181035f830152610cbb8184610c6b565b905092915050565b5f60208284031215610cd857610cd76108fd565b5b5f610ce584828501610a60565b91505092915050565b5f73ffffffffffffffffffffffffffffffffffffffff82169050919050565b5f819050919050565b5f610d30610d2b610d2684610cee565b610d0d565b610cee565b9050919050565b5f610d4182610d16565b9050919050565b5f610d5282610d37565b9050919050565b610d6281610d48565b82525050565b5f604082019050610d7b5f830185610d59565b8181036020830152610d8d8184610c6b565b90509392505050565b5f805f8060808587031215610dae57610dad6108fd565b5b5f85013567ffffffffffffffff811115610dcb57610dca610901565b5b610dd787828801610a14565b945050602085013567ffffffffffffffff811115610df857610df7610901565b5b610e0487828801610a14565b935050604085013567ffffffffffffffff811115610e2557610e24610901565b5b610e3187828801610a14565b9250506060610e4287828801610a60565b91505092959194509250565b610e5781610a41565b82525050565b5f610120820190508181035f830152610e76818c610c6b565b90508181036020830152610e8a818b610c6b565b90508181036040830152610e9e818a610c6b565b9050610ead6060830189610e4e565b8181036080830152610ebf8188610c6b565b905081810360a0830152610ed38187610c6b565b905081810360c0830152610ee78186610c6b565b905081810360e0830152610efb8185610c6b565b9050610f0b610100830184610e4e565b9a9950505050505050505050565b5f81905092915050565b5f610f2d82610c43565b610f378185610f19565b9350610f47818560208601610c5d565b80840191505092915050565b5f610f5e8284610f23565b915081905092915050565b7f4e487b71000000000000000000000000000000000000000000000000000000005f52602260045260245ffd5b5f6002820490506001821680610fad57607f821691505b602082108103610fc057610fbf610f69565b5b50919050565b5f819050815f5260205f209050919050565b5f6020601f8301049050919050565b5f82821b905092915050565b5f600883026110227fffffffffffffffffffffffffffffffffffffffffffffffffffffffffffffffff82610fe7565b61102c8683610fe7565b95508019841693508086168417925050509392505050565b5f61105e61105961105484610a41565b610d0d565b610a41565b9050919050565b5f819050919050565b61107783611044565b61108b61108382611065565b848454610ff3565b825550505050565b5f90565b61109f611093565b6110aa81848461106e565b505050565b5b818110156110cd576110c25f82611097565b6001810190506110b0565b5050565b601f821115611112576110e381610fc6565b6110ec84610fd8565b810160208510156110fb578190505b61110f61110785610fd8565b8301826110af565b50505b505050565b5f82821c905092915050565b5f6111325f1984600802611117565b1980831691505092915050565b5f61114a8383611123565b9150826002028217905092915050565b61116382610c43565b67ffffffffffffffff81111561117c5761117b61091d565b5b6111868254610f96565b6111918282856110d1565b5f60209050601f8311600181146111c2575f84156111b0578287015190505b6111ba858261113f565b865550611221565b601f1984166111d086610fc6565b5f5b828110156111f7578489015182556001820191506020850194506020810190506111d2565b868310156112145784890151611210601f891682611123565b8355505b6001600288020188555050505b505050505050565b7f53747564656e74206e6f7420666f756e640000000000000000000000000000005f82015250565b5f61125d601183610c4d565b915061126882611229565b602082019050919050565b5f6020820190508181035f83015261128a81611251565b9050919050565b5f6112a361129e84610995565b61097b565b9050828152602081018484840111156112bf576112be610909565b5b6112ca848285610c5d565b509392505050565b5f82601f8301126112e6576112e5610905565b5b81516112f6848260208601611291565b91505092915050565b5f60208284031215611314576113136108fd565b5b5f82015167ffffffffffffffff81111561133157611330610901565b5b61133d848285016112d2565b91505092915050565b5f8151905061135481610a4a565b92915050565b5f6020828403121561136f5761136e6108fd565b5b5f61137c84828501611346565b9150509291505056fe608060405234801561000f575f80fd5b5060405161184f38038061184f83398181016040528101906100319190610242565b828282825f908161004291906105ce565b50816001908161005291906105ce565b5080600281905550505050886003908161006c91906105ce565b50876004908161007c91906105ce565b50866005908161008c91906105ce565b508560068190555084600790816100a391906105ce565b5083600890816100b391906105ce565b5050505050505050505061069d565b5f604051905090565b5f80fd5b5f80fd5b5f80fd5b5f80fd5b5f601f19601f8301169050919050565b7f4e487b71000000000000000000000000000000000000000000000000000000005f52604160045260245ffd5b610121826100db565b810181811067ffffffffffffffff821117156101405761013f6100eb565b5b80604052505050565b5f6101526100c2565b905061015e8282610118565b919050565b5f67ffffffffffffffff82111561017d5761017c6100eb565b5b610186826100db565b9050602081019050919050565b8281835e5f83830152505050565b5f6101b36101ae84610163565b610149565b9050828152602081018484840111156101cf576101ce6100d7565b5b6101da848285610193565b509392505050565b5f82601f8301126101f6576101f56100d3565b5b81516102068482602086016101a1565b91505092915050565b5f819050919050565b6102218161020f565b811461022b575f80fd5b50565b5f8151905061023c81610218565b92915050565b5f805f805f805f805f6101208a8c0312156102605761025f6100cb565b5b5f8a015167ffffffffffffffff81111561027d5761027c6100cf565b5b6102898c828d016101e2565b99505060208a015167ffffffffffffffff8111156102aa576102a96100cf565b5b6102b68c828d016101e2565b98505060408a015167ffffffffffffffff8111156102d7576102d66100cf565b5b6102e38c828d016101e2565b97505060606102f48c828d0161022e565b96505060808a015167ffffffffffffffff811115610315576103146100cf565b5b6103218c828d016101e2565b95505060a08a015167ffffffffffffffff811115610342576103416100cf565b5b61034e8c828d016101e2565b94505060c08a015167ffffffffffffffff81111561036f5761036e6100cf565b5b61037b8c828d016101e2565b93505060e08a015167ffffffffffffffff81111561039c5761039b6100cf565b5b6103a88c828d016101e2565b9250506101006103ba8c828d0161022e565b9150509295985092959850929598565b5f81519050919050565b7f4e487b71000000000000000000000000000000000000000000000000000000005f52602260045260245ffd5b5f600282049050600182168061041857607f821691505b60208210810361042b5761042a6103d4565b5b50919050565b5f819050815f5260205f209050919050565b5f6020601f8301049050919050565b5f82821b905092915050565b5f6008830261048d7fffffffffffffffffffffffffffffffffffffffffffffffffffffffffffffffff82610452565b6104978683610452565b95508019841693508086168417925050509392505050565b5f819050919050565b5f6104d26104cd6104c88461020f565b6104af565b61020f565b9050919050565b5f819050919050565b6104eb836104b8565b6104ff6104f7826104d9565b84845461045e565b825550505050565b5f90565b610513610507565b61051e8184846104e2565b505050565b5b81811015610541576105365f8261050b565b600181019050610524565b5050565b601f8211156105865761055781610431565b61056084610443565b8101602085101561056f578190505b61058361057b85610443565b830182610523565b50505b505050565b5f82821c905092915050565b5f6105a65f198460080261058b565b1980831691505092915050565b5f6105be8383610597565b9150826002028217905092915050565b6105d7826103ca565b67ffffffffffffffff8111156105f0576105ef6100eb565b5b6105fa8254610401565b610605828285610545565b5f60209050601f831160018114610636575f8415610624578287015190505b61062e85826105b3565b865550610695565b601f19841661064486610431565b5f5b8281101561066b57848901518255600182019150602085019450602081019050610646565b868310156106885784890151610684601f891682610597565b8355505b6001600288020188555050505b505050505050565b6111a5806106aa5f395ff3fe608060405234801561000f575f80fd5b50600436106100f3575f3560e01c8063b508ba3111610095578063d57831f511610064578063d57831f514610247578063e81bd2a414610265578063eb96548f14610283578063f8fd1948146102a1576100f3565b8063b508ba31146101cf578063b975abb3146101ed578063c607ba4d1461020b578063cb9cb0c214610229576100f3565b80633bc5de30116100d15780633bc5de30146101525780638d1d2d901461017357806399d568b3146101915780639d8c8315146101af576100f3565b806311ebae41146100f757806314e851b8146101155780631b0c267014610134575b5f80fd5b6100ff6102bf565b60405161010c9190610ba0565b60405180910390f35b61011d61034b565b60405161012b929190610bc0565b60405180910390f35b61013c61046e565b6040516101499190610ba0565b60405180910390f35b61015a610499565b60405161016a9493929190610c0d565b60405180910390f35b61017b610654565b6040516101889190610ba0565b60405180910390f35b6101996106e0565b6040516101a69190610c65565b60405180910390f35b6101b76106e6565b6040516101c693929190610c7e565b60405180910390f35b6101d761080f565b6040516101e49190610ba0565b60405180910390f35b6101f561089b565b6040516102029190610ba0565b60405180910390f35b610213610927565b6040516102209190610ba0565b60405180910390f35b6102316109b3565b60405161023e9190610ba0565b60405180910390f35b61024f610a3e565b60405161025c9190610c65565b60405180910390f35b61026d610a44565b60405161027a9190610ba0565b60405180910390f35b61028b610a76565b6040516102989190610ba0565b60405180910390f35b6102a9610b02565b6040516102b69190610ba0565b60405180910390f35b600180546102cc90610cee565b80601f01602080910402602001604051908101604052809291908181526020018280546102f890610cee565b80156103435780601f1061031a57610100808354040283529160200191610343565b820191905f5260205f20905b81548152906001019060200180831161032657829003601f168201915b505050505081565b6060806007600881805461035e90610cee565b80601f016020809104026020016040519081016040528092919081815260200182805461038a90610cee565b80156103d55780601f106103ac576101008083540402835291602001916103d5565b820191905f5260205f20905b8154815290600101906020018083116103b857829003601f168201915b505050505091508080546103e890610cee565b80601f016020809104026020016040519081016040528092919081815260200182805461041490610cee565b801561045f5780601f106104365761010080835404028352916020019161045f565b820191905f5260205f20905b81548152906001019060200180831161044257829003601f168201915b50505050509050915091509091565b606060076008604051602001610485929190610e4e565b604051602081830303815290604052905090565b60608060605f6003600460056006548380546104b490610cee565b80601f01602080910402602001604051908101604052809291908181526020018280546104e090610cee565b801561052b5780601f106105025761010080835404028352916020019161052b565b820191905f5260205f20905b81548152906001019060200180831161050e57829003601f168201915b5050505050935082805461053e90610cee565b80601f016020809104026020016040519081016040528092919081815260200182805461056a90610cee565b80156105b55780601f1061058c576101008083540402835291602001916105b5565b820191905f5260205f20905b81548152906001019060200180831161059857829003601f168201915b505050505092508180546105c890610cee565b80601f01602080910402602001604051908101604052809291908181526020018280546105f490610cee565b801561063f5780601f106106165761010080835404028352916020019161063f565b820191905f5260205f20905b81548152906001019060200180831161062257829003601f168201915b50505050509150935093509350935090919293565b6004805461066190610cee565b80601f016020809104026020016040519081016040528092919081815260200182805461068d90610cee565b80156106d85780601f106106af576101008083540402835291602001916106d8565b820191905f5260205f20905b8154815290600101906020018083116106bb57829003601f168201915b505050505081565b60025481565b6060805f8060016002548280546106fc90610cee565b80601f016020809104026020016040519081016040528092919081815260200182805461072890610cee565b80156107735780601f1061074a57610100808354040283529160200191610773565b820191905f5260205f20905b81548152906001019060200180831161075657829003601f168201915b5050505050925081805461078690610cee565b80601f01602080910402602001604051908101604052809291908181526020018280546107b290610cee565b80156107fd5780601f106107d4576101008083540402835291602001916107fd565b820191905f5260205f20905b8154815290600101906020018083116107e057829003601f168201915b50505050509150925092509250909192565b6003805461081c90610cee565b80601f016020809104026020016040519081016040528092919081815260200182805461084890610cee565b80156108935780601f1061086a57610100808354040283529160200191610893565b820191905f5260205f20905b81548152906001019060200180831161087657829003601f168201915b505050505081565b600780546108a890610cee565b80601f01602080910402602001604051908101604052809291908181526020018280546108d490610cee565b801561091f5780601f106108f65761010080835404028352916020019161091f565b820191905f5260205f20905b81548152906001019060200180831161090257829003601f168201915b505050505081565b6005805461093490610cee565b80601f016020809104026020016040519081016040528092919081815260200182805461096090610cee565b80156109ab5780601f10610982576101008083540402835291602001916109ab565b820191905f5260205f20905b81548152906001019060200180831161098e57829003601f168201915b505050505081565b5f80546109bf90610cee565b80601f01602080910402602001604051908101604052809291908181526020018280546109eb90610cee565b8015610a365780601f10610a0d57610100808354040283529160200191610a36565b820191905f5260205f20905b815481529060010190602001808311610a1957829003601f168201915b505050505081565b60065481565b6060600360046005600654604051602001610a629493929190610fcf565b604051602081830303815290604052905090565b60088054610a8390610cee565b80601f0160208091040260200160405190810160405280929190818152602001828054610aaf90610cee565b8015610afa5780601f10610ad157610100808354040283529160200191610afa565b820191905f5260205f20905b815481529060010190602001808311610add57829003601f168201915b505050505081565b60605f6001600254604051602001610b1c9392919061111a565b604051602081830303815290604052905090565b5f81519050919050565b5f82825260208201905092915050565b8281835e5f83830152505050565b5f601f19601f8301169050919050565b5f610b7282610b30565b610b7c8185610b3a565b9350610b8c818560208601610b4a565b610b9581610b58565b840191505092915050565b5f6020820190508181035f830152610bb88184610b68565b905092915050565b5f6040820190508181035f830152610bd88185610b68565b90508181036020830152610bec8184610b68565b90509392505050565b5f819050919050565b610c0781610bf5565b82525050565b5f6080820190508181035f830152610c258187610b68565b90508181036020830152610c398186610b68565b90508181036040830152610c4d8185610b68565b9050610c5c6060830184610bfe565b95945050505050565b5f602082019050610c785f830184610bfe565b92915050565b5f6060820190508181035f830152610c968186610b68565b90508181036020830152610caa8185610b68565b9050610cb96040830184610bfe565b949350505050565b7f4e487b71000000000000000000000000000000000000000000000000000000005f52602260045260245ffd5b5f6002820490506001821680610d0557607f821691505b602082108103610d1857610d17610cc1565b5b50919050565b5f81905092915050565b7f4465706172746d656e743a2000000000000000000000000000000000000000005f82015250565b5f610d5c600c83610d1e565b9150610d6782610d28565b600c82019050919050565b5f819050815f5260205f209050919050565b5f8154610d9081610cee565b610d9a8186610d1e565b9450600182165f8114610db45760018114610dc957610dfb565b60ff1983168652811515820286019350610dfb565b610dd285610d72565b5f5b83811015610df357815481890152600182019150602081019050610dd4565b838801955050505b50505092915050565b7f0a486561643a20000000000000000000000000000000000000000000000000005f82015250565b5f610e38600783610d1e565b9150610e4382610e04565b600782019050919050565b5f610e5882610d50565b9150610e648285610d84565b9150610e6f82610e2c565b9150610e7b8284610d84565b91508190509392505050565b7f4e616d653a2000000000000000000000000000000000000000000000000000005f82015250565b5f610ebb600683610d1e565b9150610ec682610e87565b600682019050919050565b7f0a526567204e6f3a2000000000000000000000000000000000000000000000005f82015250565b5f610f05600983610d1e565b9150610f1082610ed1565b600982019050919050565b7f0a456c6563746976653a200000000000000000000000000000000000000000005f82015250565b5f610f4f600b83610d1e565b9150610f5a82610f1b565b600b82019050919050565b7f0a41766572616765204d61726b733a20000000000000000000000000000000005f82015250565b5f610f99601083610d1e565b9150610fa482610f65565b601082019050919050565b5f819050919050565b610fc9610fc482610bf5565b610faf565b82525050565b5f610fd982610eaf565b9150610fe58287610d84565b9150610ff082610ef9565b9150610ffc8286610d84565b915061100782610f43565b91506110138285610d84565b915061101e82610f8d565b915061102a8284610fb8565b60208201915081905095945050505050565b7f486f7374656c204e616d653a20000000000000000000000000000000000000005f82015250565b5f611070600d83610d1e565b915061107b8261103c565b600d82019050919050565b7f0a4c6f636174696f6e3a200000000000000000000000000000000000000000005f82015250565b5f6110ba600b83610d1e565b91506110c582611086565b600b82019050919050565b7f0a526f6f6d733a200000000000000000000000000000000000000000000000005f82015250565b5f611104600883610d1e565b915061110f826110d0565b600882019050919050565b5f61112482611064565b91506111308286610d84565b915061113b826110ae565b91506111478285610d84565b9150611152826110f8565b915061115e8284610fb8565b60208201915081905094935050505056fea2646970667358221220794d356488f6b0c0ba0831d9c98dd8f3cc1824a574e76d656be045aee6e599b464736f6c634300081a0033a2646970667358221220bcbc1a936ba252862511fd9f739fc1919dd4ebfcbbb479fe06e372d58584c75164736f6c634300081a0033",
			"opcodes": "PUSH1 0x80 PUSH1 0x40 MSTORE CALLVALUE DUP1 ISZERO PUSH1 0xE JUMPI PUSH0 DUP1 REVERT JUMPDEST POP PUSH2 0x2C0A DUP1 PUSH2 0x1C PUSH0 CODECOPY PUSH0 RETURN INVALID PUSH1 0x80 PUSH1 0x40 MSTORE CALLVALUE DUP1 ISZERO PUSH2 0xF JUMPI PUSH0 DUP1 REVERT JUMPDEST POP PUSH1 0x4 CALLDATASIZE LT PUSH2 0x54 JUMPI PUSH0 CALLDATALOAD PUSH1 0xE0 SHR DUP1 PUSH3 0x59893 EQ PUSH2 0x58 JUMPI DUP1 PUSH4 0x6881F23B EQ PUSH2 0x74 JUMPI DUP1 PUSH4 0xA0F9384D EQ PUSH2 0xA4 JUMPI DUP1 PUSH4 0xC7EF6BFB EQ PUSH2 0xD4 JUMPI DUP1 PUSH4 0xE0E95440 EQ PUSH2 0x105 JUMPI JUMPDEST PUSH0 DUP1 REVERT JUMPDEST PUSH2 0x72 PUSH1 0x4 DUP1 CALLDATASIZE SUB DUP2 ADD SWAP1 PUSH2 0x6D SWAP2 SWAP1 PUSH2 0xA74 JUMP JUMPDEST PUSH2 0x121 JUMP JUMPDEST STOP JUMPDEST PUSH2 0x8E PUSH1 0x4 DUP1 CALLDATASIZE SUB DUP2 ADD SWAP1 PUSH2 0x89 SWAP2 SWAP1 PUSH2 0xBFC JUMP JUMPDEST PUSH2 0x248 JUMP JUMPDEST PUSH1 0x40 MLOAD PUSH2 0x9B SWAP2 SWAP1 PUSH2 0xCA3 JUMP JUMPDEST PUSH1 0x40 MLOAD DUP1 SWAP2 SUB SWAP1 RETURN JUMPDEST PUSH2 0xBE PUSH1 0x4 DUP1 CALLDATASIZE SUB DUP2 ADD SWAP1 PUSH2 0xB9 SWAP2 SWAP1 PUSH2 0xCC3 JUMP JUMPDEST PUSH2 0x3AB JUMP JUMPDEST PUSH1 0x40 MLOAD PUSH2 0xCB SWAP2 SWAP1 PUSH2 0xCA3 JUMP JUMPDEST PUSH1 0x40 MLOAD DUP1 SWAP2 SUB SWAP1 RETURN JUMPDEST PUSH2 0xEE PUSH1 0x4 DUP1 CALLDATASIZE SUB DUP2 ADD SWAP1 PUSH2 0xE9 SWAP2 SWAP1 PUSH2 0xBFC JUMP JUMPDEST PUSH2 0x451 JUMP JUMPDEST PUSH1 0x40 MLOAD PUSH2 0xFC SWAP3 SWAP2 SWAP1 PUSH2 0xD68 JUMP JUMPDEST PUSH1 0x40 MLOAD DUP1 SWAP2 SUB SWAP1 RETURN JUMPDEST PUSH2 0x11F PUSH1 0x4 DUP1 CALLDATASIZE SUB DUP2 ADD SWAP1 PUSH2 0x11A SWAP2 SWAP1 PUSH2 0xD96 JUMP JUMPDEST PUSH2 0x52D JUMP JUMPDEST STOP JUMPDEST PUSH0 DUP10 DUP10 DUP10 DUP10 DUP10 DUP10 DUP10 DUP10 DUP10 PUSH1 0x40 MLOAD PUSH2 0x137 SWAP1 PUSH2 0x8E7 JUMP JUMPDEST PUSH2 0x149 SWAP10 SWAP9 SWAP8 SWAP7 SWAP6 SWAP5 SWAP4 SWAP3 SWAP2 SWAP1 PUSH2 0xE5D JUMP JUMPDEST PUSH1 0x40 MLOAD DUP1 SWAP2 SUB SWAP1 PUSH0 CREATE DUP1 ISZERO DUP1 ISZERO PUSH2 0x162 JUMPI RETURNDATASIZE PUSH0 DUP1 RETURNDATACOPY RETURNDATASIZE PUSH0 REVERT JUMPDEST POP SWAP1 POP PUSH1 0x40 MLOAD DUP1 PUSH1 0x40 ADD PUSH1 0x40 MSTORE DUP1 DUP3 PUSH20 0xFFFFFFFFFFFFFFFFFFFFFFFFFFFFFFFFFFFFFFFF AND DUP2 MSTORE PUSH1 0x20 ADD DUP11 DUP2 MSTORE POP PUSH0 DUP11 PUSH1 0x40 MLOAD PUSH2 0x19F SWAP2 SWAP1 PUSH2 0xF53 JUMP JUMPDEST SWAP1 DUP2 MSTORE PUSH1 0x20 ADD PUSH1 0x40 MLOAD DUP1 SWAP2 SUB SWAP1 KECCAK256 PUSH0 DUP3 ADD MLOAD DUP2 PUSH0 ADD PUSH0 PUSH2 0x100 EXP DUP2 SLOAD DUP2 PUSH20 0xFFFFFFFFFFFFFFFFFFFFFFFFFFFFFFFFFFFFFFFF MUL NOT AND SWAP1 DUP4 PUSH20 0xFFFFFFFFFFFFFFFFFFFFFFFFFFFFFFFFFFFFFFFF AND MUL OR SWAP1 SSTORE POP PUSH1 0x20 DUP3 ADD MLOAD DUP2 PUSH1 0x1 ADD SWAP1 DUP2 PUSH2 0x206 SWAP2 SWAP1 PUSH2 0x115A JUMP JUMPDEST POP SWAP1 POP POP PUSH1 0x1 DUP10 SWAP1 DUP1 PUSH1 0x1 DUP2 SLOAD ADD DUP1 DUP3 SSTORE DUP1 SWAP2 POP POP PUSH1 0x1 SWAP1 SUB SWAP1 PUSH0 MSTORE PUSH1 0x20 PUSH0 KECCAK256 ADD PUSH0 SWAP1 SWAP2 SWAP1 SWAP2 SWAP1 SWAP2 POP SWAP1 DUP2 PUSH2 0x23B SWAP2 SWAP1 PUSH2 0x115A JUMP JUMPDEST POP POP POP POP POP POP POP POP POP POP POP JUMP JUMPDEST PUSH1 0x60 PUSH0 PUSH20 0xFFFFFFFFFFFFFFFFFFFFFFFFFFFFFFFFFFFFFFFF AND PUSH0 DUP4 PUSH1 0x40 MLOAD PUSH2 0x270 SWAP2 SWAP1 PUSH2 0xF53 JUMP JUMPDEST SWAP1 DUP2 MSTORE PUSH1 0x20 ADD PUSH1 0x40 MLOAD DUP1 SWAP2 SUB SWAP1 KECCAK256 PUSH0 ADD PUSH0 SWAP1 SLOAD SWAP1 PUSH2 0x100 EXP SWAP1 DIV PUSH20 0xFFFFFFFFFFFFFFFFFFFFFFFFFFFFFFFFFFFFFFFF AND PUSH20 0xFFFFFFFFFFFFFFFFFFFFFFFFFFFFFFFFFFFFFFFF AND SUB PUSH2 0x2F6 JUMPI PUSH1 0x40 MLOAD PUSH32 0x8C379A000000000000000000000000000000000000000000000000000000000 DUP2 MSTORE PUSH1 0x4 ADD PUSH2 0x2ED SWAP1 PUSH2 0x1273 JUMP JUMPDEST PUSH1 0x40 MLOAD DUP1 SWAP2 SUB SWAP1 REVERT JUMPDEST PUSH0 DUP3 PUSH1 0x40 MLOAD PUSH2 0x305 SWAP2 SWAP1 PUSH2 0xF53 JUMP JUMPDEST SWAP1 DUP2 MSTORE PUSH1 0x20 ADD PUSH1 0x40 MLOAD DUP1 SWAP2 SUB SWAP1 KECCAK256 PUSH0 ADD PUSH0 SWAP1 SLOAD SWAP1 PUSH2 0x100 EXP SWAP1 DIV PUSH20 0xFFFFFFFFFFFFFFFFFFFFFFFFFFFFFFFFFFFFFFFF AND PUSH20 0xFFFFFFFFFFFFFFFFFFFFFFFFFFFFFFFFFFFFFFFF AND PUSH4 0xE81BD2A4 PUSH1 0x40 MLOAD DUP2 PUSH4 0xFFFFFFFF AND PUSH1 0xE0 SHL DUP2 MSTORE PUSH1 0x4 ADD PUSH0 PUSH1 0x40 MLOAD DUP1 DUP4 SUB DUP2 DUP7 GAS STATICCALL ISZERO DUP1 ISZERO PUSH2 0x37C JUMPI RETURNDATASIZE PUSH0 DUP1 RETURNDATACOPY RETURNDATASIZE PUSH0 REVERT JUMPDEST POP POP POP POP PUSH1 0x40 MLOAD RETURNDATASIZE PUSH0 DUP3 RETURNDATACOPY RETURNDATASIZE PUSH1 0x1F NOT PUSH1 0x1F DUP3 ADD AND DUP3 ADD DUP1 PUSH1 0x40 MSTORE POP DUP2 ADD SWAP1 PUSH2 0x3A4 SWAP2 SWAP1 PUSH2 0x12FF JUMP JUMPDEST SWAP1 POP SWAP2 SWAP1 POP JUMP JUMPDEST PUSH1 0x1 DUP2 DUP2 SLOAD DUP2 LT PUSH2 0x3BA JUMPI PUSH0 DUP1 REVERT JUMPDEST SWAP1 PUSH0 MSTORE PUSH1 0x20 PUSH0 KECCAK256 ADD PUSH0 SWAP2 POP SWAP1 POP DUP1 SLOAD PUSH2 0x3D2 SWAP1 PUSH2 0xF96 JUMP JUMPDEST DUP1 PUSH1 0x1F ADD PUSH1 0x20 DUP1 SWAP2 DIV MUL PUSH1 0x20 ADD PUSH1 0x40 MLOAD SWAP1 DUP2 ADD PUSH1 0x40 MSTORE DUP1 SWAP3 SWAP2 SWAP1 DUP2 DUP2 MSTORE PUSH1 0x20 ADD DUP3 DUP1 SLOAD PUSH2 0x3FE SWAP1 PUSH2 0xF96 JUMP JUMPDEST DUP1 ISZERO PUSH2 0x449 JUMPI DUP1 PUSH1 0x1F LT PUSH2 0x420 JUMPI PUSH2 0x100 DUP1 DUP4 SLOAD DIV MUL DUP4 MSTORE SWAP2 PUSH1 0x20 ADD SWAP2 PUSH2 0x449 JUMP JUMPDEST DUP3 ADD SWAP2 SWAP1 PUSH0 MSTORE PUSH1 0x20 PUSH0 KECCAK256 SWAP1 JUMPDEST DUP2 SLOAD DUP2 MSTORE SWAP1 PUSH1 0x1 ADD SWAP1 PUSH1 0x20 ADD DUP1 DUP4 GT PUSH2 0x42C JUMPI DUP3 SWAP1 SUB PUSH1 0x1F AND DUP3 ADD SWAP2 JUMPDEST POP POP POP POP POP DUP2 JUMP JUMPDEST PUSH0 DUP2 DUP1 MLOAD PUSH1 0x20 DUP2 ADD DUP3 ADD DUP1 MLOAD DUP5 DUP3 MSTORE PUSH1 0x20 DUP4 ADD PUSH1 0x20 DUP6 ADD KECCAK256 DUP2 DUP4 MSTORE DUP1 SWAP6 POP POP POP POP POP POP PUSH0 SWAP2 POP SWAP1 POP DUP1 PUSH0 ADD PUSH0 SWAP1 SLOAD SWAP1 PUSH2 0x100 EXP SWAP1 DIV PUSH20 0xFFFFFFFFFFFFFFFFFFFFFFFFFFFFFFFFFFFFFFFF AND SWAP1 DUP1 PUSH1 0x1 ADD DUP1 SLOAD PUSH2 0x4AC SWAP1 PUSH2 0xF96 JUMP JUMPDEST DUP1 PUSH1 0x1F ADD PUSH1 0x20 DUP1 SWAP2 DIV MUL PUSH1 0x20 ADD PUSH1 0x40 MLOAD SWAP1 DUP2 ADD PUSH1 0x40 MSTORE DUP1 SWAP3 SWAP2 SWAP1 DUP2 DUP2 MSTORE PUSH1 0x20 ADD DUP3 DUP1 SLOAD PUSH2 0x4D8 SWAP1 PUSH2 0xF96 JUMP JUMPDEST DUP1 ISZERO PUSH2 0x523 JUMPI DUP1 PUSH1 0x1F LT PUSH2 0x4FA JUMPI PUSH2 0x100 DUP1 DUP4 SLOAD DIV MUL DUP4 MSTORE SWAP2 PUSH1 0x20 ADD SWAP2 PUSH2 0x523 JUMP JUMPDEST DUP3 ADD SWAP2 SWAP1 PUSH0 MSTORE PUSH1 0x20 PUSH0 KECCAK256 SWAP1 JUMPDEST DUP2 SLOAD DUP2 MSTORE SWAP1 PUSH1 0x1 ADD SWAP1 PUSH1 0x20 ADD DUP1 DUP4 GT PUSH2 0x506 JUMPI DUP3 SWAP1 SUB PUSH1 0x1F AND DUP3 ADD SWAP2 JUMPDEST POP POP POP POP POP SWAP1 POP DUP3 JUMP JUMPDEST PUSH0 PUSH20 0xFFFFFFFFFFFFFFFFFFFFFFFFFFFFFFFFFFFFFFFF AND PUSH0 DUP6 PUSH1 0x40 MLOAD PUSH2 0x553 SWAP2 SWAP1 PUSH2 0xF53 JUMP JUMPDEST SWAP1 DUP2 MSTORE PUSH1 0x20 ADD PUSH1 0x40 MLOAD DUP1 SWAP2 SUB SWAP1 KECCAK256 PUSH0 ADD PUSH0 SWAP1 SLOAD SWAP1 PUSH2 0x100 EXP SWAP1 DIV PUSH20 0xFFFFFFFFFFFFFFFFFFFFFFFFFFFFFFFFFFFFFFFF AND PUSH20 0xFFFFFFFFFFFFFFFFFFFFFFFFFFFFFFFFFFFFFFFF AND SUB PUSH2 0x5D9 JUMPI PUSH1 0x40 MLOAD PUSH32 0x8C379A000000000000000000000000000000000000000000000000000000000 DUP2 MSTORE PUSH1 0x4 ADD PUSH2 0x5D0 SWAP1 PUSH2 0x1273 JUMP JUMPDEST PUSH1 0x40 MLOAD DUP1 SWAP2 SUB SWAP1 REVERT JUMPDEST PUSH0 DUP1 DUP6 PUSH1 0x40 MLOAD PUSH2 0x5E9 SWAP2 SWAP1 PUSH2 0xF53 JUMP JUMPDEST SWAP1 DUP2 MSTORE PUSH1 0x20 ADD PUSH1 0x40 MLOAD DUP1 SWAP2 SUB SWAP1 KECCAK256 PUSH0 ADD PUSH0 SWAP1 SLOAD SWAP1 PUSH2 0x100 EXP SWAP1 DIV PUSH20 0xFFFFFFFFFFFFFFFFFFFFFFFFFFFFFFFFFFFFFFFF AND SWAP1 POP DUP1 PUSH20 0xFFFFFFFFFFFFFFFFFFFFFFFFFFFFFFFFFFFFFFFF AND PUSH4 0xB508BA31 PUSH1 0x40 MLOAD DUP2 PUSH4 0xFFFFFFFF AND PUSH1 0xE0 SHL DUP2 MSTORE PUSH1 0x4 ADD PUSH0 PUSH1 0x40 MLOAD DUP1 DUP4 SUB DUP2 DUP7 GAS STATICCALL ISZERO DUP1 ISZERO PUSH2 0x663 JUMPI RETURNDATASIZE PUSH0 DUP1 RETURNDATACOPY RETURNDATASIZE PUSH0 REVERT JUMPDEST POP POP POP POP PUSH1 0x40 MLOAD RETURNDATASIZE PUSH0 DUP3 RETURNDATACOPY RETURNDATASIZE PUSH1 0x1F NOT PUSH1 0x1F DUP3 ADD AND DUP3 ADD DUP1 PUSH1 0x40 MSTORE POP DUP2 ADD SWAP1 PUSH2 0x68B SWAP2 SWAP1 PUSH2 0x12FF JUMP JUMPDEST DUP6 DUP3 PUSH20 0xFFFFFFFFFFFFFFFFFFFFFFFFFFFFFFFFFFFFFFFF AND PUSH4 0xC607BA4D PUSH1 0x40 MLOAD DUP2 PUSH4 0xFFFFFFFF AND PUSH1 0xE0 SHL DUP2 MSTORE PUSH1 0x4 ADD PUSH0 PUSH1 0x40 MLOAD DUP1 DUP4 SUB DUP2 DUP7 GAS STATICCALL ISZERO DUP1 ISZERO PUSH2 0x6D4 JUMPI RETURNDATASIZE PUSH0 DUP1 RETURNDATACOPY RETURNDATASIZE PUSH0 REVERT JUMPDEST POP POP POP POP PUSH1 0x40 MLOAD RETURNDATASIZE PUSH0 DUP3 RETURNDATACOPY RETURNDATASIZE PUSH1 0x1F NOT PUSH1 0x1F DUP3 ADD AND DUP3 ADD DUP1 PUSH1 0x40 MSTORE POP DUP2 ADD SWAP1 PUSH2 0x6FC SWAP2 SWAP1 PUSH2 0x12FF JUMP JUMPDEST DUP4 PUSH20 0xFFFFFFFFFFFFFFFFFFFFFFFFFFFFFFFFFFFFFFFF AND PUSH4 0xD57831F5 PUSH1 0x40 MLOAD DUP2 PUSH4 0xFFFFFFFF AND PUSH1 0xE0 SHL DUP2 MSTORE PUSH1 0x4 ADD PUSH1 0x20 PUSH1 0x40 MLOAD DUP1 DUP4 SUB DUP2 DUP7 GAS STATICCALL ISZERO DUP1 ISZERO PUSH2 0x745 JUMPI RETURNDATASIZE PUSH0 DUP1 RETURNDATACOPY RETURNDATASIZE PUSH0 REVERT JUMPDEST POP POP POP POP PUSH1 0x40 MLOAD RETURNDATASIZE PUSH1 0x1F NOT PUSH1 0x1F DUP3 ADD AND DUP3 ADD DUP1 PUSH1 0x40 MSTORE POP DUP2 ADD SWAP1 PUSH2 0x769 SWAP2 SWAP1 PUSH2 0x135A JUMP JUMPDEST DUP5 PUSH20 0xFFFFFFFFFFFFFFFFFFFFFFFFFFFFFFFFFFFFFFFF AND PUSH4 0xB975ABB3 PUSH1 0x40 MLOAD DUP2 PUSH4 0xFFFFFFFF AND PUSH1 0xE0 SHL DUP2 MSTORE PUSH1 0x4 ADD PUSH0 PUSH1 0x40 MLOAD DUP1 DUP4 SUB DUP2 DUP7 GAS STATICCALL ISZERO DUP1 ISZERO PUSH2 0x7B1 JUMPI RETURNDATASIZE PUSH0 DUP1 RETURNDATACOPY RETURNDATASIZE PUSH0 REVERT JUMPDEST POP POP POP POP PUSH1 0x40 MLOAD RETURNDATASIZE PUSH0 DUP3 RETURNDATACOPY RETURNDATASIZE PUSH1 0x1F NOT PUSH1 0x1F DUP3 ADD AND DUP3 ADD DUP1 PUSH1 0x40 MSTORE POP DUP2 ADD SWAP1 PUSH2 0x7D9 SWAP2 SWAP1 PUSH2 0x12FF JUMP JUMPDEST DUP6 PUSH20 0xFFFFFFFFFFFFFFFFFFFFFFFFFFFFFFFFFFFFFFFF AND PUSH4 0xEB96548F PUSH1 0x40 MLOAD DUP2 PUSH4 0xFFFFFFFF AND PUSH1 0xE0 SHL DUP2 MSTORE PUSH1 0x4 ADD PUSH0 PUSH1 0x40 MLOAD DUP1 DUP4 SUB DUP2 DUP7 GAS STATICCALL ISZERO DUP1 ISZERO PUSH2 0x821 JUMPI RETURNDATASIZE PUSH0 DUP1 RETURNDATACOPY RETURNDATASIZE PUSH0 REVERT JUMPDEST POP POP POP POP PUSH1 0x40 MLOAD RETURNDATASIZE PUSH0 DUP3 RETURNDATACOPY RETURNDATASIZE PUSH1 0x1F NOT PUSH1 0x1F DUP3 ADD AND DUP3 ADD DUP1 PUSH1 0x40 MSTORE POP DUP2 ADD SWAP1 PUSH2 0x849 SWAP2 SWAP1 PUSH2 0x12FF JUMP JUMPDEST DUP10 DUP10 DUP10 PUSH1 0x40 MLOAD PUSH2 0x858 SWAP1 PUSH2 0x8E7 JUMP JUMPDEST PUSH2 0x86A SWAP10 SWAP9 SWAP8 SWAP7 SWAP6 SWAP5 SWAP4 SWAP3 SWAP2 SWAP1 PUSH2 0xE5D JUMP JUMPDEST PUSH1 0x40 MLOAD DUP1 SWAP2 SUB SWAP1 PUSH0 CREATE DUP1 ISZERO DUP1 ISZERO PUSH2 0x883 JUMPI RETURNDATASIZE PUSH0 DUP1 RETURNDATACOPY RETURNDATASIZE PUSH0 REVERT JUMPDEST POP PUSH0 DUP7 PUSH1 0x40 MLOAD PUSH2 0x893 SWAP2 SWAP1 PUSH2 0xF53 JUMP JUMPDEST SWAP1 DUP2 MSTORE PUSH1 0x20 ADD PUSH1 0x40 MLOAD DUP1 SWAP2 SUB SWAP1 KECCAK256 PUSH0 ADD PUSH0 PUSH2 0x100 EXP DUP2 SLOAD DUP2 PUSH20 0xFFFFFFFFFFFFFFFFFFFFFFFFFFFFFFFFFFFFFFFF MUL NOT AND SWAP1 DUP4 PUSH20 0xFFFFFFFFFFFFFFFFFFFFFFFFFFFFFFFFFFFFFFFF AND MUL OR SWAP1 SSTORE POP POP POP POP POP POP JUMP JUMPDEST PUSH2 0x184F DUP1 PUSH2 0x1386 DUP4 CODECOPY ADD SWAP1 JUMP JUMPDEST PUSH0 PUSH1 0x40 MLOAD SWAP1 POP SWAP1 JUMP JUMPDEST PUSH0 DUP1 REVERT JUMPDEST PUSH0 DUP1 REVERT JUMPDEST PUSH0 DUP1 REVERT JUMPDEST PUSH0 DUP1 REVERT JUMPDEST PUSH0 PUSH1 0x1F NOT PUSH1 0x1F DUP4 ADD AND SWAP1 POP SWAP2 SWAP1 POP JUMP JUMPDEST PUSH32 0x4E487B7100000000000000000000000000000000000000000000000000000000 PUSH0 MSTORE PUSH1 0x41 PUSH1 0x4 MSTORE PUSH1 0x24 PUSH0 REVERT JUMPDEST PUSH2 0x953 DUP3 PUSH2 0x90D JUMP JUMPDEST DUP2 ADD DUP2 DUP2 LT PUSH8 0xFFFFFFFFFFFFFFFF DUP3 GT OR ISZERO PUSH2 0x972 JUMPI PUSH2 0x971 PUSH2 0x91D JUMP JUMPDEST JUMPDEST DUP1 PUSH1 0x40 MSTORE POP POP POP JUMP JUMPDEST PUSH0 PUSH2 0x984 PUSH2 0x8F4 JUMP JUMPDEST SWAP1 POP PUSH2 0x990 DUP3 DUP3 PUSH2 0x94A JUMP JUMPDEST SWAP2 SWAP1 POP JUMP JUMPDEST PUSH0 PUSH8 0xFFFFFFFFFFFFFFFF DUP3 GT ISZERO PUSH2 0x9AF JUMPI PUSH2 0x9AE PUSH2 0x91D JUMP JUMPDEST JUMPDEST PUSH2 0x9B8 DUP3 PUSH2 0x90D JUMP JUMPDEST SWAP1 POP PUSH1 0x20 DUP2 ADD SWAP1 POP SWAP2 SWAP1 POP JUMP JUMPDEST DUP3 DUP2 DUP4 CALLDATACOPY PUSH0 DUP4 DUP4 ADD MSTORE POP POP POP JUMP JUMPDEST PUSH0 PUSH2 0x9E5 PUSH2 0x9E0 DUP5 PUSH2 0x995 JUMP JUMPDEST PUSH2 0x97B JUMP JUMPDEST SWAP1 POP DUP3 DUP2 MSTORE PUSH1 0x20 DUP2 ADD DUP5 DUP5 DUP5 ADD GT ISZERO PUSH2 0xA01 JUMPI PUSH2 0xA00 PUSH2 0x909 JUMP JUMPDEST JUMPDEST PUSH2 0xA0C DUP5 DUP3 DUP6 PUSH2 0x9C5 JUMP JUMPDEST POP SWAP4 SWAP3 POP POP POP JUMP JUMPDEST PUSH0 DUP3 PUSH1 0x1F DUP4 ADD SLT PUSH2 0xA28 JUMPI PUSH2 0xA27 PUSH2 0x905 JUMP JUMPDEST JUMPDEST DUP2 CALLDATALOAD PUSH2 0xA38 DUP5 DUP3 PUSH1 0x20 DUP7 ADD PUSH2 0x9D3 JUMP JUMPDEST SWAP2 POP POP SWAP3 SWAP2 POP POP JUMP JUMPDEST PUSH0 DUP2 SWAP1 POP SWAP2 SWAP1 POP JUMP JUMPDEST PUSH2 0xA53 DUP2 PUSH2 0xA41 JUMP JUMPDEST DUP2 EQ PUSH2 0xA5D JUMPI PUSH0 DUP1 REVERT JUMPDEST POP JUMP JUMPDEST PUSH0 DUP2 CALLDATALOAD SWAP1 POP PUSH2 0xA6E DUP2 PUSH2 0xA4A JUMP JUMPDEST SWAP3 SWAP2 POP POP JUMP JUMPDEST PUSH0 DUP1 PUSH0 DUP1 PUSH0 DUP1 PUSH0 DUP1 PUSH0 PUSH2 0x120 DUP11 DUP13 SUB SLT ISZERO PUSH2 0xA92 JUMPI PUSH2 0xA91 PUSH2 0x8FD JUMP JUMPDEST JUMPDEST PUSH0 DUP11 ADD CALLDATALOAD PUSH8 0xFFFFFFFFFFFFFFFF DUP2 GT ISZERO PUSH2 0xAAF JUMPI PUSH2 0xAAE PUSH2 0x901 JUMP JUMPDEST JUMPDEST PUSH2 0xABB DUP13 DUP3 DUP14 ADD PUSH2 0xA14 JUMP JUMPDEST SWAP10 POP POP PUSH1 0x20 DUP11 ADD CALLDATALOAD PUSH8 0xFFFFFFFFFFFFFFFF DUP2 GT ISZERO PUSH2 0xADC JUMPI PUSH2 0xADB PUSH2 0x901 JUMP JUMPDEST JUMPDEST PUSH2 0xAE8 DUP13 DUP3 DUP14 ADD PUSH2 0xA14 JUMP JUMPDEST SWAP9 POP POP PUSH1 0x40 DUP11 ADD CALLDATALOAD PUSH8 0xFFFFFFFFFFFFFFFF DUP2 GT ISZERO PUSH2 0xB09 JUMPI PUSH2 0xB08 PUSH2 0x901 JUMP JUMPDEST JUMPDEST PUSH2 0xB15 DUP13 DUP3 DUP14 ADD PUSH2 0xA14 JUMP JUMPDEST SWAP8 POP POP PUSH1 0x60 PUSH2 0xB26 DUP13 DUP3 DUP14 ADD PUSH2 0xA60 JUMP JUMPDEST SWAP7 POP POP PUSH1 0x80 DUP11 ADD CALLDATALOAD PUSH8 0xFFFFFFFFFFFFFFFF DUP2 GT ISZERO PUSH2 0xB47 JUMPI PUSH2 0xB46 PUSH2 0x901 JUMP JUMPDEST JUMPDEST PUSH2 0xB53 DUP13 DUP3 DUP14 ADD PUSH2 0xA14 JUMP JUMPDEST SWAP6 POP POP PUSH1 0xA0 DUP11 ADD CALLDATALOAD PUSH8 0xFFFFFFFFFFFFFFFF DUP2 GT ISZERO PUSH2 0xB74 JUMPI PUSH2 0xB73 PUSH2 0x901 JUMP JUMPDEST JUMPDEST PUSH2 0xB80 DUP13 DUP3 DUP14 ADD PUSH2 0xA14 JUMP JUMPDEST SWAP5 POP POP PUSH1 0xC0 DUP11 ADD CALLDATALOAD PUSH8 0xFFFFFFFFFFFFFFFF DUP2 GT ISZERO PUSH2 0xBA1 JUMPI PUSH2 0xBA0 PUSH2 0x901 JUMP JUMPDEST JUMPDEST PUSH2 0xBAD DUP13 DUP3 DUP14 ADD PUSH2 0xA14 JUMP JUMPDEST SWAP4 POP POP PUSH1 0xE0 DUP11 ADD CALLDATALOAD PUSH8 0xFFFFFFFFFFFFFFFF DUP2 GT ISZERO PUSH2 0xBCE JUMPI PUSH2 0xBCD PUSH2 0x901 JUMP JUMPDEST JUMPDEST PUSH2 0xBDA DUP13 DUP3 DUP14 ADD PUSH2 0xA14 JUMP JUMPDEST SWAP3 POP POP PUSH2 0x100 PUSH2 0xBEC DUP13 DUP3 DUP14 ADD PUSH2 0xA60 JUMP JUMPDEST SWAP2 POP POP SWAP3 SWAP6 SWAP9 POP SWAP3 SWAP6 SWAP9 POP SWAP3 SWAP6 SWAP9 JUMP JUMPDEST PUSH0 PUSH1 0x20 DUP3 DUP5 SUB SLT ISZERO PUSH2 0xC11 JUMPI PUSH2 0xC10 PUSH2 0x8FD JUMP JUMPDEST JUMPDEST PUSH0 DUP3 ADD CALLDATALOAD PUSH8 0xFFFFFFFFFFFFFFFF DUP2 GT ISZERO PUSH2 0xC2E JUMPI PUSH2 0xC2D PUSH2 0x901 JUMP JUMPDEST JUMPDEST PUSH2 0xC3A DUP5 DUP3 DUP6 ADD PUSH2 0xA14 JUMP JUMPDEST SWAP2 POP POP SWAP3 SWAP2 POP POP JUMP JUMPDEST PUSH0 DUP2 MLOAD SWAP1 POP SWAP2 SWAP1 POP JUMP JUMPDEST PUSH0 DUP3 DUP3 MSTORE PUSH1 0x20 DUP3 ADD SWAP1 POP SWAP3 SWAP2 POP POP JUMP JUMPDEST DUP3 DUP2 DUP4 MCOPY PUSH0 DUP4 DUP4 ADD MSTORE POP POP POP JUMP JUMPDEST PUSH0 PUSH2 0xC75 DUP3 PUSH2 0xC43 JUMP JUMPDEST PUSH2 0xC7F DUP2 DUP6 PUSH2 0xC4D JUMP JUMPDEST SWAP4 POP PUSH2 0xC8F DUP2 DUP6 PUSH1 0x20 DUP7 ADD PUSH2 0xC5D JUMP JUMPDEST PUSH2 0xC98 DUP2 PUSH2 0x90D JUMP JUMPDEST DUP5 ADD SWAP2 POP POP SWAP3 SWAP2 POP POP JUMP JUMPDEST PUSH0 PUSH1 0x20 DUP3 ADD SWAP1 POP DUP2 DUP2 SUB PUSH0 DUP4 ADD MSTORE PUSH2 0xCBB DUP2 DUP5 PUSH2 0xC6B JUMP JUMPDEST SWAP1 POP SWAP3 SWAP2 POP POP JUMP JUMPDEST PUSH0 PUSH1 0x20 DUP3 DUP5 SUB SLT ISZERO PUSH2 0xCD8 JUMPI PUSH2 0xCD7 PUSH2 0x8FD JUMP JUMPDEST JUMPDEST PUSH0 PUSH2 0xCE5 DUP5 DUP3 DUP6 ADD PUSH2 0xA60 JUMP JUMPDEST SWAP2 POP POP SWAP3 SWAP2 POP POP JUMP JUMPDEST PUSH0 PUSH20 0xFFFFFFFFFFFFFFFFFFFFFFFFFFFFFFFFFFFFFFFF DUP3 AND SWAP1 POP SWAP2 SWAP1 POP JUMP JUMPDEST PUSH0 DUP2 SWAP1 POP SWAP2 SWAP1 POP JUMP JUMPDEST PUSH0 PUSH2 0xD30 PUSH2 0xD2B PUSH2 0xD26 DUP5 PUSH2 0xCEE JUMP JUMPDEST PUSH2 0xD0D JUMP JUMPDEST PUSH2 0xCEE JUMP JUMPDEST SWAP1 POP SWAP2 SWAP1 POP JUMP JUMPDEST PUSH0 PUSH2 0xD41 DUP3 PUSH2 0xD16 JUMP JUMPDEST SWAP1 POP SWAP2 SWAP1 POP JUMP JUMPDEST PUSH0 PUSH2 0xD52 DUP3 PUSH2 0xD37 JUMP JUMPDEST SWAP1 POP SWAP2 SWAP1 POP JUMP JUMPDEST PUSH2 0xD62 DUP2 PUSH2 0xD48 JUMP JUMPDEST DUP3 MSTORE POP POP JUMP JUMPDEST PUSH0 PUSH1 0x40 DUP3 ADD SWAP1 POP PUSH2 0xD7B PUSH0 DUP4 ADD DUP6 PUSH2 0xD59 JUMP JUMPDEST DUP2 DUP2 SUB PUSH1 0x20 DUP4 ADD MSTORE PUSH2 0xD8D DUP2 DUP5 PUSH2 0xC6B JUMP JUMPDEST SWAP1 POP SWAP4 SWAP3 POP POP POP JUMP JUMPDEST PUSH0 DUP1 PUSH0 DUP1 PUSH1 0x80 DUP6 DUP8 SUB SLT ISZERO PUSH2 0xDAE JUMPI PUSH2 0xDAD PUSH2 0x8FD JUMP JUMPDEST JUMPDEST PUSH0 DUP6 ADD CALLDATALOAD PUSH8 0xFFFFFFFFFFFFFFFF DUP2 GT ISZERO PUSH2 0xDCB JUMPI PUSH2 0xDCA PUSH2 0x901 JUMP JUMPDEST JUMPDEST PUSH2 0xDD7 DUP8 DUP3 DUP9 ADD PUSH2 0xA14 JUMP JUMPDEST SWAP5 POP POP PUSH1 0x20 DUP6 ADD CALLDATALOAD PUSH8 0xFFFFFFFFFFFFFFFF DUP2 GT ISZERO PUSH2 0xDF8 JUMPI PUSH2 0xDF7 PUSH2 0x901 JUMP JUMPDEST JUMPDEST PUSH2 0xE04 DUP8 DUP3 DUP9 ADD PUSH2 0xA14 JUMP JUMPDEST SWAP4 POP POP PUSH1 0x40 DUP6 ADD CALLDATALOAD PUSH8 0xFFFFFFFFFFFFFFFF DUP2 GT ISZERO PUSH2 0xE25 JUMPI PUSH2 0xE24 PUSH2 0x901 JUMP JUMPDEST JUMPDEST PUSH2 0xE31 DUP8 DUP3 DUP9 ADD PUSH2 0xA14 JUMP JUMPDEST SWAP3 POP POP PUSH1 0x60 PUSH2 0xE42 DUP8 DUP3 DUP9 ADD PUSH2 0xA60 JUMP JUMPDEST SWAP2 POP POP SWAP3 SWAP6 SWAP2 SWAP5 POP SWAP3 POP JUMP JUMPDEST PUSH2 0xE57 DUP2 PUSH2 0xA41 JUMP JUMPDEST DUP3 MSTORE POP POP JUMP JUMPDEST PUSH0 PUSH2 0x120 DUP3 ADD SWAP1 POP DUP2 DUP2 SUB PUSH0 DUP4 ADD MSTORE PUSH2 0xE76 DUP2 DUP13 PUSH2 0xC6B JUMP JUMPDEST SWAP1 POP DUP2 DUP2 SUB PUSH1 0x20 DUP4 ADD MSTORE PUSH2 0xE8A DUP2 DUP12 PUSH2 0xC6B JUMP JUMPDEST SWAP1 POP DUP2 DUP2 SUB PUSH1 0x40 DUP4 ADD MSTORE PUSH2 0xE9E DUP2 DUP11 PUSH2 0xC6B JUMP JUMPDEST SWAP1 POP PUSH2 0xEAD PUSH1 0x60 DUP4 ADD DUP10 PUSH2 0xE4E JUMP JUMPDEST DUP2 DUP2 SUB PUSH1 0x80 DUP4 ADD MSTORE PUSH2 0xEBF DUP2 DUP9 PUSH2 0xC6B JUMP JUMPDEST SWAP1 POP DUP2 DUP2 SUB PUSH1 0xA0 DUP4 ADD MSTORE PUSH2 0xED3 DUP2 DUP8 PUSH2 0xC6B JUMP JUMPDEST SWAP1 POP DUP2 DUP2 SUB PUSH1 0xC0 DUP4 ADD MSTORE PUSH2 0xEE7 DUP2 DUP7 PUSH2 0xC6B JUMP JUMPDEST SWAP1 POP DUP2 DUP2 SUB PUSH1 0xE0 DUP4 ADD MSTORE PUSH2 0xEFB DUP2 DUP6 PUSH2 0xC6B JUMP JUMPDEST SWAP1 POP PUSH2 0xF0B PUSH2 0x100 DUP4 ADD DUP5 PUSH2 0xE4E JUMP JUMPDEST SWAP11 SWAP10 POP POP POP POP POP POP POP POP POP POP JUMP JUMPDEST PUSH0 DUP2 SWAP1 POP SWAP3 SWAP2 POP POP JUMP JUMPDEST PUSH0 PUSH2 0xF2D DUP3 PUSH2 0xC43 JUMP JUMPDEST PUSH2 0xF37 DUP2 DUP6 PUSH2 0xF19 JUMP JUMPDEST SWAP4 POP PUSH2 0xF47 DUP2 DUP6 PUSH1 0x20 DUP7 ADD PUSH2 0xC5D JUMP JUMPDEST DUP1 DUP5 ADD SWAP2 POP POP SWAP3 SWAP2 POP POP JUMP JUMPDEST PUSH0 PUSH2 0xF5E DUP3 DUP5 PUSH2 0xF23 JUMP JUMPDEST SWAP2 POP DUP2 SWAP1 POP SWAP3 SWAP2 POP POP JUMP JUMPDEST PUSH32 0x4E487B7100000000000000000000000000000000000000000000000000000000 PUSH0 MSTORE PUSH1 0x22 PUSH1 0x4 MSTORE PUSH1 0x24 PUSH0 REVERT JUMPDEST PUSH0 PUSH1 0x2 DUP3 DIV SWAP1 POP PUSH1 0x1 DUP3 AND DUP1 PUSH2 0xFAD JUMPI PUSH1 0x7F DUP3 AND SWAP2 POP JUMPDEST PUSH1 0x20 DUP3 LT DUP2 SUB PUSH2 0xFC0 JUMPI PUSH2 0xFBF PUSH2 0xF69 JUMP JUMPDEST JUMPDEST POP SWAP2 SWAP1 POP JUMP JUMPDEST PUSH0 DUP2 SWAP1 POP DUP2 PUSH0 MSTORE PUSH1 0x20 PUSH0 KECCAK256 SWAP1 POP SWAP2 SWAP1 POP JUMP JUMPDEST PUSH0 PUSH1 0x20 PUSH1 0x1F DUP4 ADD DIV SWAP1 POP SWAP2 SWAP1 POP JUMP JUMPDEST PUSH0 DUP3 DUP3 SHL SWAP1 POP SWAP3 SWAP2 POP POP JUMP JUMPDEST PUSH0 PUSH1 0x8 DUP4 MUL PUSH2 0x1022 PUSH32 0xFFFFFFFFFFFFFFFFFFFFFFFFFFFFFFFFFFFFFFFFFFFFFFFFFFFFFFFFFFFFFFFF DUP3 PUSH2 0xFE7 JUMP JUMPDEST PUSH2 0x102C DUP7 DUP4 PUSH2 0xFE7 JUMP JUMPDEST SWAP6 POP DUP1 NOT DUP5 AND SWAP4 POP DUP1 DUP7 AND DUP5 OR SWAP3 POP POP POP SWAP4 SWAP3 POP POP POP JUMP JUMPDEST PUSH0 PUSH2 0x105E PUSH2 0x1059 PUSH2 0x1054 DUP5 PUSH2 0xA41 JUMP JUMPDEST PUSH2 0xD0D JUMP JUMPDEST PUSH2 0xA41 JUMP JUMPDEST SWAP1 POP SWAP2 SWAP1 POP JUMP JUMPDEST PUSH0 DUP2 SWAP1 POP SWAP2 SWAP1 POP JUMP JUMPDEST PUSH2 0x1077 DUP4 PUSH2 0x1044 JUMP JUMPDEST PUSH2 0x108B PUSH2 0x1083 DUP3 PUSH2 0x1065 JUMP JUMPDEST DUP5 DUP5 SLOAD PUSH2 0xFF3 JUMP JUMPDEST DUP3 SSTORE POP POP POP POP JUMP JUMPDEST PUSH0 SWAP1 JUMP JUMPDEST PUSH2 0x109F PUSH2 0x1093 JUMP JUMPDEST PUSH2 0x10AA DUP2 DUP5 DUP5 PUSH2 0x106E JUMP JUMPDEST POP POP POP JUMP JUMPDEST JUMPDEST DUP2 DUP2 LT ISZERO PUSH2 0x10CD JUMPI PUSH2 0x10C2 PUSH0 DUP3 PUSH2 0x1097 JUMP JUMPDEST PUSH1 0x1 DUP2 ADD SWAP1 POP PUSH2 0x10B0 JUMP JUMPDEST POP POP JUMP JUMPDEST PUSH1 0x1F DUP3 GT ISZERO PUSH2 0x1112 JUMPI PUSH2 0x10E3 DUP2 PUSH2 0xFC6 JUMP JUMPDEST PUSH2 0x10EC DUP5 PUSH2 0xFD8 JUMP JUMPDEST DUP2 ADD PUSH1 0x20 DUP6 LT ISZERO PUSH2 0x10FB JUMPI DUP2 SWAP1 POP JUMPDEST PUSH2 0x110F PUSH2 0x1107 DUP6 PUSH2 0xFD8 JUMP JUMPDEST DUP4 ADD DUP3 PUSH2 0x10AF JUMP JUMPDEST POP POP JUMPDEST POP POP POP JUMP JUMPDEST PUSH0 DUP3 DUP3 SHR SWAP1 POP SWAP3 SWAP2 POP POP JUMP JUMPDEST PUSH0 PUSH2 0x1132 PUSH0 NOT DUP5 PUSH1 0x8 MUL PUSH2 0x1117 JUMP JUMPDEST NOT DUP1 DUP4 AND SWAP2 POP POP SWAP3 SWAP2 POP POP JUMP JUMPDEST PUSH0 PUSH2 0x114A DUP4 DUP4 PUSH2 0x1123 JUMP JUMPDEST SWAP2 POP DUP3 PUSH1 0x2 MUL DUP3 OR SWAP1 POP SWAP3 SWAP2 POP POP JUMP JUMPDEST PUSH2 0x1163 DUP3 PUSH2 0xC43 JUMP JUMPDEST PUSH8 0xFFFFFFFFFFFFFFFF DUP2 GT ISZERO PUSH2 0x117C JUMPI PUSH2 0x117B PUSH2 0x91D JUMP JUMPDEST JUMPDEST PUSH2 0x1186 DUP3 SLOAD PUSH2 0xF96 JUMP JUMPDEST PUSH2 0x1191 DUP3 DUP3 DUP6 PUSH2 0x10D1 JUMP JUMPDEST PUSH0 PUSH1 0x20 SWAP1 POP PUSH1 0x1F DUP4 GT PUSH1 0x1 DUP2 EQ PUSH2 0x11C2 JUMPI PUSH0 DUP5 ISZERO PUSH2 0x11B0 JUMPI DUP3 DUP8 ADD MLOAD SWAP1 POP JUMPDEST PUSH2 0x11BA DUP6 DUP3 PUSH2 0x113F JUMP JUMPDEST DUP7 SSTORE POP PUSH2 0x1221 JUMP JUMPDEST PUSH1 0x1F NOT DUP5 AND PUSH2 0x11D0 DUP7 PUSH2 0xFC6 JUMP JUMPDEST PUSH0 JUMPDEST DUP3 DUP2 LT ISZERO PUSH2 0x11F7 JUMPI DUP5 DUP10 ADD MLOAD DUP3 SSTORE PUSH1 0x1 DUP3 ADD SWAP2 POP PUSH1 0x20 DUP6 ADD SWAP5 POP PUSH1 0x20 DUP2 ADD SWAP1 POP PUSH2 0x11D2 JUMP JUMPDEST DUP7 DUP4 LT ISZERO PUSH2 0x1214 JUMPI DUP5 DUP10 ADD MLOAD PUSH2 0x1210 PUSH1 0x1F DUP10 AND DUP3 PUSH2 0x1123 JUMP JUMPDEST DUP4 SSTORE POP JUMPDEST PUSH1 0x1 PUSH1 0x2 DUP9 MUL ADD DUP9 SSTORE POP POP POP JUMPDEST POP POP POP POP POP POP JUMP JUMPDEST PUSH32 0x53747564656E74206E6F7420666F756E64000000000000000000000000000000 PUSH0 DUP3 ADD MSTORE POP JUMP JUMPDEST PUSH0 PUSH2 0x125D PUSH1 0x11 DUP4 PUSH2 0xC4D JUMP JUMPDEST SWAP2 POP PUSH2 0x1268 DUP3 PUSH2 0x1229 JUMP JUMPDEST PUSH1 0x20 DUP3 ADD SWAP1 POP SWAP2 SWAP1 POP JUMP JUMPDEST PUSH0 PUSH1 0x20 DUP3 ADD SWAP1 POP DUP2 DUP2 SUB PUSH0 DUP4 ADD MSTORE PUSH2 0x128A DUP2 PUSH2 0x1251 JUMP JUMPDEST SWAP1 POP SWAP2 SWAP1 POP JUMP JUMPDEST PUSH0 PUSH2 0x12A3 PUSH2 0x129E DUP5 PUSH2 0x995 JUMP JUMPDEST PUSH2 0x97B JUMP JUMPDEST SWAP1 POP DUP3 DUP2 MSTORE PUSH1 0x20 DUP2 ADD DUP5 DUP5 DUP5 ADD GT ISZERO PUSH2 0x12BF JUMPI PUSH2 0x12BE PUSH2 0x909 JUMP JUMPDEST JUMPDEST PUSH2 0x12CA DUP5 DUP3 DUP6 PUSH2 0xC5D JUMP JUMPDEST POP SWAP4 SWAP3 POP POP POP JUMP JUMPDEST PUSH0 DUP3 PUSH1 0x1F DUP4 ADD SLT PUSH2 0x12E6 JUMPI PUSH2 0x12E5 PUSH2 0x905 JUMP JUMPDEST JUMPDEST DUP2 MLOAD PUSH2 0x12F6 DUP5 DUP3 PUSH1 0x20 DUP7 ADD PUSH2 0x1291 JUMP JUMPDEST SWAP2 POP POP SWAP3 SWAP2 POP POP JUMP JUMPDEST PUSH0 PUSH1 0x20 DUP3 DUP5 SUB SLT ISZERO PUSH2 0x1314 JUMPI PUSH2 0x1313 PUSH2 0x8FD JUMP JUMPDEST JUMPDEST PUSH0 DUP3 ADD MLOAD PUSH8 0xFFFFFFFFFFFFFFFF DUP2 GT ISZERO PUSH2 0x1331 JUMPI PUSH2 0x1330 PUSH2 0x901 JUMP JUMPDEST JUMPDEST PUSH2 0x133D DUP5 DUP3 DUP6 ADD PUSH2 0x12D2 JUMP JUMPDEST SWAP2 POP POP SWAP3 SWAP2 POP POP JUMP JUMPDEST PUSH0 DUP2 MLOAD SWAP1 POP PUSH2 0x1354 DUP2 PUSH2 0xA4A JUMP JUMPDEST SWAP3 SWAP2 POP POP JUMP JUMPDEST PUSH0 PUSH1 0x20 DUP3 DUP5 SUB SLT ISZERO PUSH2 0x136F JUMPI PUSH2 0x136E PUSH2 0x8FD JUMP JUMPDEST JUMPDEST PUSH0 PUSH2 0x137C DUP5 DUP3 DUP6 ADD PUSH2 0x1346 JUMP JUMPDEST SWAP2 POP POP SWAP3 SWAP2 POP POP JUMP INVALID PUSH1 0x80 PUSH1 0x40 MSTORE CALLVALUE DUP1 ISZERO PUSH2 0xF JUMPI PUSH0 DUP1 REVERT JUMPDEST POP PUSH1 0x40 MLOAD PUSH2 0x184F CODESIZE SUB DUP1 PUSH2 0x184F DUP4 CODECOPY DUP2 DUP2 ADD PUSH1 0x40 MSTORE DUP2 ADD SWAP1 PUSH2 0x31 SWAP2 SWAP1 PUSH2 0x242 JUMP JUMPDEST DUP3 DUP3 DUP3 DUP3 PUSH0 SWAP1 DUP2 PUSH2 0x42 SWAP2 SWAP1 PUSH2 0x5CE JUMP JUMPDEST POP DUP2 PUSH1 0x1 SWAP1 DUP2 PUSH2 0x52 SWAP2 SWAP1 PUSH2 0x5CE JUMP JUMPDEST POP DUP1 PUSH1 0x2 DUP2 SWAP1 SSTORE POP POP POP POP DUP9 PUSH1 0x3 SWAP1 DUP2 PUSH2 0x6C SWAP2 SWAP1 PUSH2 0x5CE JUMP JUMPDEST POP DUP8 PUSH1 0x4 SWAP1 DUP2 PUSH2 0x7C SWAP2 SWAP1 PUSH2 0x5CE JUMP JUMPDEST POP DUP7 PUSH1 0x5 SWAP1 DUP2 PUSH2 0x8C SWAP2 SWAP1 PUSH2 0x5CE JUMP JUMPDEST POP DUP6 PUSH1 0x6 DUP2 SWAP1 SSTORE POP DUP5 PUSH1 0x7 SWAP1 DUP2 PUSH2 0xA3 SWAP2 SWAP1 PUSH2 0x5CE JUMP JUMPDEST POP DUP4 PUSH1 0x8 SWAP1 DUP2 PUSH2 0xB3 SWAP2 SWAP1 PUSH2 0x5CE JUMP JUMPDEST POP POP POP POP POP POP POP POP POP POP PUSH2 0x69D JUMP JUMPDEST PUSH0 PUSH1 0x40 MLOAD SWAP1 POP SWAP1 JUMP JUMPDEST PUSH0 DUP1 REVERT JUMPDEST PUSH0 DUP1 REVERT JUMPDEST PUSH0 DUP1 REVERT JUMPDEST PUSH0 DUP1 REVERT JUMPDEST PUSH0 PUSH1 0x1F NOT PUSH1 0x1F DUP4 ADD AND SWAP1 POP SWAP2 SWAP1 POP JUMP JUMPDEST PUSH32 0x4E487B7100000000000000000000000000000000000000000000000000000000 PUSH0 MSTORE PUSH1 0x41 PUSH1 0x4 MSTORE PUSH1 0x24 PUSH0 REVERT JUMPDEST PUSH2 0x121 DUP3 PUSH2 0xDB JUMP JUMPDEST DUP2 ADD DUP2 DUP2 LT PUSH8 0xFFFFFFFFFFFFFFFF DUP3 GT OR ISZERO PUSH2 0x140 JUMPI PUSH2 0x13F PUSH2 0xEB JUMP JUMPDEST JUMPDEST DUP1 PUSH1 0x40 MSTORE POP POP POP JUMP JUMPDEST PUSH0 PUSH2 0x152 PUSH2 0xC2 JUMP JUMPDEST SWAP1 POP PUSH2 0x15E DUP3 DUP3 PUSH2 0x118 JUMP JUMPDEST SWAP2 SWAP1 POP JUMP JUMPDEST PUSH0 PUSH8 0xFFFFFFFFFFFFFFFF DUP3 GT ISZERO PUSH2 0x17D JUMPI PUSH2 0x17C PUSH2 0xEB JUMP JUMPDEST JUMPDEST PUSH2 0x186 DUP3 PUSH2 0xDB JUMP JUMPDEST SWAP1 POP PUSH1 0x20 DUP2 ADD SWAP1 POP SWAP2 SWAP1 POP JUMP JUMPDEST DUP3 DUP2 DUP4 MCOPY PUSH0 DUP4 DUP4 ADD MSTORE POP POP POP JUMP JUMPDEST PUSH0 PUSH2 0x1B3 PUSH2 0x1AE DUP5 PUSH2 0x163 JUMP JUMPDEST PUSH2 0x149 JUMP JUMPDEST SWAP1 POP DUP3 DUP2 MSTORE PUSH1 0x20 DUP2 ADD DUP5 DUP5 DUP5 ADD GT ISZERO PUSH2 0x1CF JUMPI PUSH2 0x1CE PUSH2 0xD7 JUMP JUMPDEST JUMPDEST PUSH2 0x1DA DUP5 DUP3 DUP6 PUSH2 0x193 JUMP JUMPDEST POP SWAP4 SWAP3 POP POP POP JUMP JUMPDEST PUSH0 DUP3 PUSH1 0x1F DUP4 ADD SLT PUSH2 0x1F6 JUMPI PUSH2 0x1F5 PUSH2 0xD3 JUMP JUMPDEST JUMPDEST DUP2 MLOAD PUSH2 0x206 DUP5 DUP3 PUSH1 0x20 DUP7 ADD PUSH2 0x1A1 JUMP JUMPDEST SWAP2 POP POP SWAP3 SWAP2 POP POP JUMP JUMPDEST PUSH0 DUP2 SWAP1 POP SWAP2 SWAP1 POP JUMP JUMPDEST PUSH2 0x221 DUP2 PUSH2 0x20F JUMP JUMPDEST DUP2 EQ PUSH2 0x22B JUMPI PUSH0 DUP1 REVERT JUMPDEST POP JUMP JUMPDEST PUSH0 DUP2 MLOAD SWAP1 POP PUSH2 0x23C DUP2 PUSH2 0x218 JUMP JUMPDEST SWAP3 SWAP2 POP POP JUMP JUMPDEST PUSH0 DUP1 PUSH0 DUP1 PUSH0 DUP1 PUSH0 DUP1 PUSH0 PUSH2 0x120 DUP11 DUP13 SUB SLT ISZERO PUSH2 0x260 JUMPI PUSH2 0x25F PUSH2 0xCB JUMP JUMPDEST JUMPDEST PUSH0 DUP11 ADD MLOAD PUSH8 0xFFFFFFFFFFFFFFFF DUP2 GT ISZERO PUSH2 0x27D JUMPI PUSH2 0x27C PUSH2 0xCF JUMP JUMPDEST JUMPDEST PUSH2 0x289 DUP13 DUP3 DUP14 ADD PUSH2 0x1E2 JUMP JUMPDEST SWAP10 POP POP PUSH1 0x20 DUP11 ADD MLOAD PUSH8 0xFFFFFFFFFFFFFFFF DUP2 GT ISZERO PUSH2 0x2AA JUMPI PUSH2 0x2A9 PUSH2 0xCF JUMP JUMPDEST JUMPDEST PUSH2 0x2B6 DUP13 DUP3 DUP14 ADD PUSH2 0x1E2 JUMP JUMPDEST SWAP9 POP POP PUSH1 0x40 DUP11 ADD MLOAD PUSH8 0xFFFFFFFFFFFFFFFF DUP2 GT ISZERO PUSH2 0x2D7 JUMPI PUSH2 0x2D6 PUSH2 0xCF JUMP JUMPDEST JUMPDEST PUSH2 0x2E3 DUP13 DUP3 DUP14 ADD PUSH2 0x1E2 JUMP JUMPDEST SWAP8 POP POP PUSH1 0x60 PUSH2 0x2F4 DUP13 DUP3 DUP14 ADD PUSH2 0x22E JUMP JUMPDEST SWAP7 POP POP PUSH1 0x80 DUP11 ADD MLOAD PUSH8 0xFFFFFFFFFFFFFFFF DUP2 GT ISZERO PUSH2 0x315 JUMPI PUSH2 0x314 PUSH2 0xCF JUMP JUMPDEST JUMPDEST PUSH2 0x321 DUP13 DUP3 DUP14 ADD PUSH2 0x1E2 JUMP JUMPDEST SWAP6 POP POP PUSH1 0xA0 DUP11 ADD MLOAD PUSH8 0xFFFFFFFFFFFFFFFF DUP2 GT ISZERO PUSH2 0x342 JUMPI PUSH2 0x341 PUSH2 0xCF JUMP JUMPDEST JUMPDEST PUSH2 0x34E DUP13 DUP3 DUP14 ADD PUSH2 0x1E2 JUMP JUMPDEST SWAP5 POP POP PUSH1 0xC0 DUP11 ADD MLOAD PUSH8 0xFFFFFFFFFFFFFFFF DUP2 GT ISZERO PUSH2 0x36F JUMPI PUSH2 0x36E PUSH2 0xCF JUMP JUMPDEST JUMPDEST PUSH2 0x37B DUP13 DUP3 DUP14 ADD PUSH2 0x1E2 JUMP JUMPDEST SWAP4 POP POP PUSH1 0xE0 DUP11 ADD MLOAD PUSH8 0xFFFFFFFFFFFFFFFF DUP2 GT ISZERO PUSH2 0x39C JUMPI PUSH2 0x39B PUSH2 0xCF JUMP JUMPDEST JUMPDEST PUSH2 0x3A8 DUP13 DUP3 DUP14 ADD PUSH2 0x1E2 JUMP JUMPDEST SWAP3 POP POP PUSH2 0x100 PUSH2 0x3BA DUP13 DUP3 DUP14 ADD PUSH2 0x22E JUMP JUMPDEST SWAP2 POP POP SWAP3 SWAP6 SWAP9 POP SWAP3 SWAP6 SWAP9 POP SWAP3 SWAP6 SWAP9 JUMP JUMPDEST PUSH0 DUP2 MLOAD SWAP1 POP SWAP2 SWAP1 POP JUMP JUMPDEST PUSH32 0x4E487B7100000000000000000000000000000000000000000000000000000000 PUSH0 MSTORE PUSH1 0x22 PUSH1 0x4 MSTORE PUSH1 0x24 PUSH0 REVERT JUMPDEST PUSH0 PUSH1 0x2 DUP3 DIV SWAP1 POP PUSH1 0x1 DUP3 AND DUP1 PUSH2 0x418 JUMPI PUSH1 0x7F DUP3 AND SWAP2 POP JUMPDEST PUSH1 0x20 DUP3 LT DUP2 SUB PUSH2 0x42B JUMPI PUSH2 0x42A PUSH2 0x3D4 JUMP JUMPDEST JUMPDEST POP SWAP2 SWAP1 POP JUMP JUMPDEST PUSH0 DUP2 SWAP1 POP DUP2 PUSH0 MSTORE PUSH1 0x20 PUSH0 KECCAK256 SWAP1 POP SWAP2 SWAP1 POP JUMP JUMPDEST PUSH0 PUSH1 0x20 PUSH1 0x1F DUP4 ADD DIV SWAP1 POP SWAP2 SWAP1 POP JUMP JUMPDEST PUSH0 DUP3 DUP3 SHL SWAP1 POP SWAP3 SWAP2 POP POP JUMP JUMPDEST PUSH0 PUSH1 0x8 DUP4 MUL PUSH2 0x48D PUSH32 0xFFFFFFFFFFFFFFFFFFFFFFFFFFFFFFFFFFFFFFFFFFFFFFFFFFFFFFFFFFFFFFFF DUP3 PUSH2 0x452 JUMP JUMPDEST PUSH2 0x497 DUP7 DUP4 PUSH2 0x452 JUMP JUMPDEST SWAP6 POP DUP1 NOT DUP5 AND SWAP4 POP DUP1 DUP7 AND DUP5 OR SWAP3 POP POP POP SWAP4 SWAP3 POP POP POP JUMP JUMPDEST PUSH0 DUP2 SWAP1 POP SWAP2 SWAP1 POP JUMP JUMPDEST PUSH0 PUSH2 0x4D2 PUSH2 0x4CD PUSH2 0x4C8 DUP5 PUSH2 0x20F JUMP JUMPDEST PUSH2 0x4AF JUMP JUMPDEST PUSH2 0x20F JUMP JUMPDEST SWAP1 POP SWAP2 SWAP1 POP JUMP JUMPDEST PUSH0 DUP2 SWAP1 POP SWAP2 SWAP1 POP JUMP JUMPDEST PUSH2 0x4EB DUP4 PUSH2 0x4B8 JUMP JUMPDEST PUSH2 0x4FF PUSH2 0x4F7 DUP3 PUSH2 0x4D9 JUMP JUMPDEST DUP5 DUP5 SLOAD PUSH2 0x45E JUMP JUMPDEST DUP3 SSTORE POP POP POP POP JUMP JUMPDEST PUSH0 SWAP1 JUMP JUMPDEST PUSH2 0x513 PUSH2 0x507 JUMP JUMPDEST PUSH2 0x51E DUP2 DUP5 DUP5 PUSH2 0x4E2 JUMP JUMPDEST POP POP POP JUMP JUMPDEST JUMPDEST DUP2 DUP2 LT ISZERO PUSH2 0x541 JUMPI PUSH2 0x536 PUSH0 DUP3 PUSH2 0x50B JUMP JUMPDEST PUSH1 0x1 DUP2 ADD SWAP1 POP PUSH2 0x524 JUMP JUMPDEST POP POP JUMP JUMPDEST PUSH1 0x1F DUP3 GT ISZERO PUSH2 0x586 JUMPI PUSH2 0x557 DUP2 PUSH2 0x431 JUMP JUMPDEST PUSH2 0x560 DUP5 PUSH2 0x443 JUMP JUMPDEST DUP2 ADD PUSH1 0x20 DUP6 LT ISZERO PUSH2 0x56F JUMPI DUP2 SWAP1 POP JUMPDEST PUSH2 0x583 PUSH2 0x57B DUP6 PUSH2 0x443 JUMP JUMPDEST DUP4 ADD DUP3 PUSH2 0x523 JUMP JUMPDEST POP POP JUMPDEST POP POP POP JUMP JUMPDEST PUSH0 DUP3 DUP3 SHR SWAP1 POP SWAP3 SWAP2 POP POP JUMP JUMPDEST PUSH0 PUSH2 0x5A6 PUSH0 NOT DUP5 PUSH1 0x8 MUL PUSH2 0x58B JUMP JUMPDEST NOT DUP1 DUP4 AND SWAP2 POP POP SWAP3 SWAP2 POP POP JUMP JUMPDEST PUSH0 PUSH2 0x5BE DUP4 DUP4 PUSH2 0x597 JUMP JUMPDEST SWAP2 POP DUP3 PUSH1 0x2 MUL DUP3 OR SWAP1 POP SWAP3 SWAP2 POP POP JUMP JUMPDEST PUSH2 0x5D7 DUP3 PUSH2 0x3CA JUMP JUMPDEST PUSH8 0xFFFFFFFFFFFFFFFF DUP2 GT ISZERO PUSH2 0x5F0 JUMPI PUSH2 0x5EF PUSH2 0xEB JUMP JUMPDEST JUMPDEST PUSH2 0x5FA DUP3 SLOAD PUSH2 0x401 JUMP JUMPDEST PUSH2 0x605 DUP3 DUP3 DUP6 PUSH2 0x545 JUMP JUMPDEST PUSH0 PUSH1 0x20 SWAP1 POP PUSH1 0x1F DUP4 GT PUSH1 0x1 DUP2 EQ PUSH2 0x636 JUMPI PUSH0 DUP5 ISZERO PUSH2 0x624 JUMPI DUP3 DUP8 ADD MLOAD SWAP1 POP JUMPDEST PUSH2 0x62E DUP6 DUP3 PUSH2 0x5B3 JUMP JUMPDEST DUP7 SSTORE POP PUSH2 0x695 JUMP JUMPDEST PUSH1 0x1F NOT DUP5 AND PUSH2 0x644 DUP7 PUSH2 0x431 JUMP JUMPDEST PUSH0 JUMPDEST DUP3 DUP2 LT ISZERO PUSH2 0x66B JUMPI DUP5 DUP10 ADD MLOAD DUP3 SSTORE PUSH1 0x1 DUP3 ADD SWAP2 POP PUSH1 0x20 DUP6 ADD SWAP5 POP PUSH1 0x20 DUP2 ADD SWAP1 POP PUSH2 0x646 JUMP JUMPDEST DUP7 DUP4 LT ISZERO PUSH2 0x688 JUMPI DUP5 DUP10 ADD MLOAD PUSH2 0x684 PUSH1 0x1F DUP10 AND DUP3 PUSH2 0x597 JUMP JUMPDEST DUP4 SSTORE POP JUMPDEST PUSH1 0x1 PUSH1 0x2 DUP9 MUL ADD DUP9 SSTORE POP POP POP JUMPDEST POP POP POP POP POP POP JUMP JUMPDEST PUSH2 0x11A5 DUP1 PUSH2 0x6AA PUSH0 CODECOPY PUSH0 RETURN INVALID PUSH1 0x80 PUSH1 0x40 MSTORE CALLVALUE DUP1 ISZERO PUSH2 0xF JUMPI PUSH0 DUP1 REVERT JUMPDEST POP PUSH1 0x4 CALLDATASIZE LT PUSH2 0xF3 JUMPI PUSH0 CALLDATALOAD PUSH1 0xE0 SHR DUP1 PUSH4 0xB508BA31 GT PUSH2 0x95 JUMPI DUP1 PUSH4 0xD57831F5 GT PUSH2 0x64 JUMPI DUP1 PUSH4 0xD57831F5 EQ PUSH2 0x247 JUMPI DUP1 PUSH4 0xE81BD2A4 EQ PUSH2 0x265 JUMPI DUP1 PUSH4 0xEB96548F EQ PUSH2 0x283 JUMPI DUP1 PUSH4 0xF8FD1948 EQ PUSH2 0x2A1 JUMPI PUSH2 0xF3 JUMP JUMPDEST DUP1 PUSH4 0xB508BA31 EQ PUSH2 0x1CF JUMPI DUP1 PUSH4 0xB975ABB3 EQ PUSH2 0x1ED JUMPI DUP1 PUSH4 0xC607BA4D EQ PUSH2 0x20B JUMPI DUP1 PUSH4 0xCB9CB0C2 EQ PUSH2 0x229 JUMPI PUSH2 0xF3 JUMP JUMPDEST DUP1 PUSH4 0x3BC5DE30 GT PUSH2 0xD1 JUMPI DUP1 PUSH4 0x3BC5DE30 EQ PUSH2 0x152 JUMPI DUP1 PUSH4 0x8D1D2D90 EQ PUSH2 0x173 JUMPI DUP1 PUSH4 0x99D568B3 EQ PUSH2 0x191 JUMPI DUP1 PUSH4 0x9D8C8315 EQ PUSH2 0x1AF JUMPI PUSH2 0xF3 JUMP JUMPDEST DUP1 PUSH4 0x11EBAE41 EQ PUSH2 0xF7 JUMPI DUP1 PUSH4 0x14E851B8 EQ PUSH2 0x115 JUMPI DUP1 PUSH4 0x1B0C2670 EQ PUSH2 0x134 JUMPI JUMPDEST PUSH0 DUP1 REVERT JUMPDEST PUSH2 0xFF PUSH2 0x2BF JUMP JUMPDEST PUSH1 0x40 MLOAD PUSH2 0x10C SWAP2 SWAP1 PUSH2 0xBA0 JUMP JUMPDEST PUSH1 0x40 MLOAD DUP1 SWAP2 SUB SWAP1 RETURN JUMPDEST PUSH2 0x11D PUSH2 0x34B JUMP JUMPDEST PUSH1 0x40 MLOAD PUSH2 0x12B SWAP3 SWAP2 SWAP1 PUSH2 0xBC0 JUMP JUMPDEST PUSH1 0x40 MLOAD DUP1 SWAP2 SUB SWAP1 RETURN JUMPDEST PUSH2 0x13C PUSH2 0x46E JUMP JUMPDEST PUSH1 0x40 MLOAD PUSH2 0x149 SWAP2 SWAP1 PUSH2 0xBA0 JUMP JUMPDEST PUSH1 0x40 MLOAD DUP1 SWAP2 SUB SWAP1 RETURN JUMPDEST PUSH2 0x15A PUSH2 0x499 JUMP JUMPDEST PUSH1 0x40 MLOAD PUSH2 0x16A SWAP5 SWAP4 SWAP3 SWAP2 SWAP1 PUSH2 0xC0D JUMP JUMPDEST PUSH1 0x40 MLOAD DUP1 SWAP2 SUB SWAP1 RETURN JUMPDEST PUSH2 0x17B PUSH2 0x654 JUMP JUMPDEST PUSH1 0x40 MLOAD PUSH2 0x188 SWAP2 SWAP1 PUSH2 0xBA0 JUMP JUMPDEST PUSH1 0x40 MLOAD DUP1 SWAP2 SUB SWAP1 RETURN JUMPDEST PUSH2 0x199 PUSH2 0x6E0 JUMP JUMPDEST PUSH1 0x40 MLOAD PUSH2 0x1A6 SWAP2 SWAP1 PUSH2 0xC65 JUMP JUMPDEST PUSH1 0x40 MLOAD DUP1 SWAP2 SUB SWAP1 RETURN JUMPDEST PUSH2 0x1B7 PUSH2 0x6E6 JUMP JUMPDEST PUSH1 0x40 MLOAD PUSH2 0x1C6 SWAP4 SWAP3 SWAP2 SWAP1 PUSH2 0xC7E JUMP JUMPDEST PUSH1 0x40 MLOAD DUP1 SWAP2 SUB SWAP1 RETURN JUMPDEST PUSH2 0x1D7 PUSH2 0x80F JUMP JUMPDEST PUSH1 0x40 MLOAD PUSH2 0x1E4 SWAP2 SWAP1 PUSH2 0xBA0 JUMP JUMPDEST PUSH1 0x40 MLOAD DUP1 SWAP2 SUB SWAP1 RETURN JUMPDEST PUSH2 0x1F5 PUSH2 0x89B JUMP JUMPDEST PUSH1 0x40 MLOAD PUSH2 0x202 SWAP2 SWAP1 PUSH2 0xBA0 JUMP JUMPDEST PUSH1 0x40 MLOAD DUP1 SWAP2 SUB SWAP1 RETURN JUMPDEST PUSH2 0x213 PUSH2 0x927 JUMP JUMPDEST PUSH1 0x40 MLOAD PUSH2 0x220 SWAP2 SWAP1 PUSH2 0xBA0 JUMP JUMPDEST PUSH1 0x40 MLOAD DUP1 SWAP2 SUB SWAP1 RETURN JUMPDEST PUSH2 0x231 PUSH2 0x9B3 JUMP JUMPDEST PUSH1 0x40 MLOAD PUSH2 0x23E SWAP2 SWAP1 PUSH2 0xBA0 JUMP JUMPDEST PUSH1 0x40 MLOAD DUP1 SWAP2 SUB SWAP1 RETURN JUMPDEST PUSH2 0x24F PUSH2 0xA3E JUMP JUMPDEST PUSH1 0x40 MLOAD PUSH2 0x25C SWAP2 SWAP1 PUSH2 0xC65 JUMP JUMPDEST PUSH1 0x40 MLOAD DUP1 SWAP2 SUB SWAP1 RETURN JUMPDEST PUSH2 0x26D PUSH2 0xA44 JUMP JUMPDEST PUSH1 0x40 MLOAD PUSH2 0x27A SWAP2 SWAP1 PUSH2 0xBA0 JUMP JUMPDEST PUSH1 0x40 MLOAD DUP1 SWAP2 SUB SWAP1 RETURN JUMPDEST PUSH2 0x28B PUSH2 0xA76 JUMP JUMPDEST PUSH1 0x40 MLOAD PUSH2 0x298 SWAP2 SWAP1 PUSH2 0xBA0 JUMP JUMPDEST PUSH1 0x40 MLOAD DUP1 SWAP2 SUB SWAP1 RETURN JUMPDEST PUSH2 0x2A9 PUSH2 0xB02 JUMP JUMPDEST PUSH1 0x40 MLOAD PUSH2 0x2B6 SWAP2 SWAP1 PUSH2 0xBA0 JUMP JUMPDEST PUSH1 0x40 MLOAD DUP1 SWAP2 SUB SWAP1 RETURN JUMPDEST PUSH1 0x1 DUP1 SLOAD PUSH2 0x2CC SWAP1 PUSH2 0xCEE JUMP JUMPDEST DUP1 PUSH1 0x1F ADD PUSH1 0x20 DUP1 SWAP2 DIV MUL PUSH1 0x20 ADD PUSH1 0x40 MLOAD SWAP1 DUP2 ADD PUSH1 0x40 MSTORE DUP1 SWAP3 SWAP2 SWAP1 DUP2 DUP2 MSTORE PUSH1 0x20 ADD DUP3 DUP1 SLOAD PUSH2 0x2F8 SWAP1 PUSH2 0xCEE JUMP JUMPDEST DUP1 ISZERO PUSH2 0x343 JUMPI DUP1 PUSH1 0x1F LT PUSH2 0x31A JUMPI PUSH2 0x100 DUP1 DUP4 SLOAD DIV MUL DUP4 MSTORE SWAP2 PUSH1 0x20 ADD SWAP2 PUSH2 0x343 JUMP JUMPDEST DUP3 ADD SWAP2 SWAP1 PUSH0 MSTORE PUSH1 0x20 PUSH0 KECCAK256 SWAP1 JUMPDEST DUP2 SLOAD DUP2 MSTORE SWAP1 PUSH1 0x1 ADD SWAP1 PUSH1 0x20 ADD DUP1 DUP4 GT PUSH2 0x326 JUMPI DUP3 SWAP1 SUB PUSH1 0x1F AND DUP3 ADD SWAP2 JUMPDEST POP POP POP POP POP DUP2 JUMP JUMPDEST PUSH1 0x60 DUP1 PUSH1 0x7 PUSH1 0x8 DUP2 DUP1 SLOAD PUSH2 0x35E SWAP1 PUSH2 0xCEE JUMP JUMPDEST DUP1 PUSH1 0x1F ADD PUSH1 0x20 DUP1 SWAP2 DIV MUL PUSH1 0x20 ADD PUSH1 0x40 MLOAD SWAP1 DUP2 ADD PUSH1 0x40 MSTORE DUP1 SWAP3 SWAP2 SWAP1 DUP2 DUP2 MSTORE PUSH1 0x20 ADD DUP3 DUP1 SLOAD PUSH2 0x38A SWAP1 PUSH2 0xCEE JUMP JUMPDEST DUP1 ISZERO PUSH2 0x3D5 JUMPI DUP1 PUSH1 0x1F LT PUSH2 0x3AC JUMPI PUSH2 0x100 DUP1 DUP4 SLOAD DIV MUL DUP4 MSTORE SWAP2 PUSH1 0x20 ADD SWAP2 PUSH2 0x3D5 JUMP JUMPDEST DUP3 ADD SWAP2 SWAP1 PUSH0 MSTORE PUSH1 0x20 PUSH0 KECCAK256 SWAP1 JUMPDEST DUP2 SLOAD DUP2 MSTORE SWAP1 PUSH1 0x1 ADD SWAP1 PUSH1 0x20 ADD DUP1 DUP4 GT PUSH2 0x3B8 JUMPI DUP3 SWAP1 SUB PUSH1 0x1F AND DUP3 ADD SWAP2 JUMPDEST POP POP POP POP POP SWAP2 POP DUP1 DUP1 SLOAD PUSH2 0x3E8 SWAP1 PUSH2 0xCEE JUMP JUMPDEST DUP1 PUSH1 0x1F ADD PUSH1 0x20 DUP1 SWAP2 DIV MUL PUSH1 0x20 ADD PUSH1 0x40 MLOAD SWAP1 DUP2 ADD PUSH1 0x40 MSTORE DUP1 SWAP3 SWAP2 SWAP1 DUP2 DUP2 MSTORE PUSH1 0x20 ADD DUP3 DUP1 SLOAD PUSH2 0x414 SWAP1 PUSH2 0xCEE JUMP JUMPDEST DUP1 ISZERO PUSH2 0x45F JUMPI DUP1 PUSH1 0x1F LT PUSH2 0x436 JUMPI PUSH2 0x100 DUP1 DUP4 SLOAD DIV MUL DUP4 MSTORE SWAP2 PUSH1 0x20 ADD SWAP2 PUSH2 0x45F JUMP JUMPDEST DUP3 ADD SWAP2 SWAP1 PUSH0 MSTORE PUSH1 0x20 PUSH0 KECCAK256 SWAP1 JUMPDEST DUP2 SLOAD DUP2 MSTORE SWAP1 PUSH1 0x1 ADD SWAP1 PUSH1 0x20 ADD DUP1 DUP4 GT PUSH2 0x442 JUMPI DUP3 SWAP1 SUB PUSH1 0x1F AND DUP3 ADD SWAP2 JUMPDEST POP POP POP POP POP SWAP1 POP SWAP2 POP SWAP2 POP SWAP1 SWAP2 JUMP JUMPDEST PUSH1 0x60 PUSH1 0x7 PUSH1 0x8 PUSH1 0x40 MLOAD PUSH1 0x20 ADD PUSH2 0x485 SWAP3 SWAP2 SWAP1 PUSH2 0xE4E JUMP JUMPDEST PUSH1 0x40 MLOAD PUSH1 0x20 DUP2 DUP4 SUB SUB DUP2 MSTORE SWAP1 PUSH1 0x40 MSTORE SWAP1 POP SWAP1 JUMP JUMPDEST PUSH1 0x60 DUP1 PUSH1 0x60 PUSH0 PUSH1 0x3 PUSH1 0x4 PUSH1 0x5 PUSH1 0x6 SLOAD DUP4 DUP1 SLOAD PUSH2 0x4B4 SWAP1 PUSH2 0xCEE JUMP JUMPDEST DUP1 PUSH1 0x1F ADD PUSH1 0x20 DUP1 SWAP2 DIV MUL PUSH1 0x20 ADD PUSH1 0x40 MLOAD SWAP1 DUP2 ADD PUSH1 0x40 MSTORE DUP1 SWAP3 SWAP2 SWAP1 DUP2 DUP2 MSTORE PUSH1 0x20 ADD DUP3 DUP1 SLOAD PUSH2 0x4E0 SWAP1 PUSH2 0xCEE JUMP JUMPDEST DUP1 ISZERO PUSH2 0x52B JUMPI DUP1 PUSH1 0x1F LT PUSH2 0x502 JUMPI PUSH2 0x100 DUP1 DUP4 SLOAD DIV MUL DUP4 MSTORE SWAP2 PUSH1 0x20 ADD SWAP2 PUSH2 0x52B JUMP JUMPDEST DUP3 ADD SWAP2 SWAP1 PUSH0 MSTORE PUSH1 0x20 PUSH0 KECCAK256 SWAP1 JUMPDEST DUP2 SLOAD DUP2 MSTORE SWAP1 PUSH1 0x1 ADD SWAP1 PUSH1 0x20 ADD DUP1 DUP4 GT PUSH2 0x50E JUMPI DUP3 SWAP1 SUB PUSH1 0x1F AND DUP3 ADD SWAP2 JUMPDEST POP POP POP POP POP SWAP4 POP DUP3 DUP1 SLOAD PUSH2 0x53E SWAP1 PUSH2 0xCEE JUMP JUMPDEST DUP1 PUSH1 0x1F ADD PUSH1 0x20 DUP1 SWAP2 DIV MUL PUSH1 0x20 ADD PUSH1 0x40 MLOAD SWAP1 DUP2 ADD PUSH1 0x40 MSTORE DUP1 SWAP3 SWAP2 SWAP1 DUP2 DUP2 MSTORE PUSH1 0x20 ADD DUP3 DUP1 SLOAD PUSH2 0x56A SWAP1 PUSH2 0xCEE JUMP JUMPDEST DUP1 ISZERO PUSH2 0x5B5 JUMPI DUP1 PUSH1 0x1F LT PUSH2 0x58C JUMPI PUSH2 0x100 DUP1 DUP4 SLOAD DIV MUL DUP4 MSTORE SWAP2 PUSH1 0x20 ADD SWAP2 PUSH2 0x5B5 JUMP JUMPDEST DUP3 ADD SWAP2 SWAP1 PUSH0 MSTORE PUSH1 0x20 PUSH0 KECCAK256 SWAP1 JUMPDEST DUP2 SLOAD DUP2 MSTORE SWAP1 PUSH1 0x1 ADD SWAP1 PUSH1 0x20 ADD DUP1 DUP4 GT PUSH2 0x598 JUMPI DUP3 SWAP1 SUB PUSH1 0x1F AND DUP3 ADD SWAP2 JUMPDEST POP POP POP POP POP SWAP3 POP DUP2 DUP1 SLOAD PUSH2 0x5C8 SWAP1 PUSH2 0xCEE JUMP JUMPDEST DUP1 PUSH1 0x1F ADD PUSH1 0x20 DUP1 SWAP2 DIV MUL PUSH1 0x20 ADD PUSH1 0x40 MLOAD SWAP1 DUP2 ADD PUSH1 0x40 MSTORE DUP1 SWAP3 SWAP2 SWAP1 DUP2 DUP2 MSTORE PUSH1 0x20 ADD DUP3 DUP1 SLOAD PUSH2 0x5F4 SWAP1 PUSH2 0xCEE JUMP JUMPDEST DUP1 ISZERO PUSH2 0x63F JUMPI DUP1 PUSH1 0x1F LT PUSH2 0x616 JUMPI PUSH2 0x100 DUP1 DUP4 SLOAD DIV MUL DUP4 MSTORE SWAP2 PUSH1 0x20 ADD SWAP2 PUSH2 0x63F JUMP JUMPDEST DUP3 ADD SWAP2 SWAP1 PUSH0 MSTORE PUSH1 0x20 PUSH0 KECCAK256 SWAP1 JUMPDEST DUP2 SLOAD DUP2 MSTORE SWAP1 PUSH1 0x1 ADD SWAP1 PUSH1 0x20 ADD DUP1 DUP4 GT PUSH2 0x622 JUMPI DUP3 SWAP1 SUB PUSH1 0x1F AND DUP3 ADD SWAP2 JUMPDEST POP POP POP POP POP SWAP2 POP SWAP4 POP SWAP4 POP SWAP4 POP SWAP4 POP SWAP1 SWAP2 SWAP3 SWAP4 JUMP JUMPDEST PUSH1 0x4 DUP1 SLOAD PUSH2 0x661 SWAP1 PUSH2 0xCEE JUMP JUMPDEST DUP1 PUSH1 0x1F ADD PUSH1 0x20 DUP1 SWAP2 DIV MUL PUSH1 0x20 ADD PUSH1 0x40 MLOAD SWAP1 DUP2 ADD PUSH1 0x40 MSTORE DUP1 SWAP3 SWAP2 SWAP1 DUP2 DUP2 MSTORE PUSH1 0x20 ADD DUP3 DUP1 SLOAD PUSH2 0x68D SWAP1 PUSH2 0xCEE JUMP JUMPDEST DUP1 ISZERO PUSH2 0x6D8 JUMPI DUP1 PUSH1 0x1F LT PUSH2 0x6AF JUMPI PUSH2 0x100 DUP1 DUP4 SLOAD DIV MUL DUP4 MSTORE SWAP2 PUSH1 0x20 ADD SWAP2 PUSH2 0x6D8 JUMP JUMPDEST DUP3 ADD SWAP2 SWAP1 PUSH0 MSTORE PUSH1 0x20 PUSH0 KECCAK256 SWAP1 JUMPDEST DUP2 SLOAD DUP2 MSTORE SWAP1 PUSH1 0x1 ADD SWAP1 PUSH1 0x20 ADD DUP1 DUP4 GT PUSH2 0x6BB JUMPI DUP3 SWAP1 SUB PUSH1 0x1F AND DUP3 ADD SWAP2 JUMPDEST POP POP POP POP POP DUP2 JUMP JUMPDEST PUSH1 0x2 SLOAD DUP2 JUMP JUMPDEST PUSH1 0x60 DUP1 PUSH0 DUP1 PUSH1 0x1 PUSH1 0x2 SLOAD DUP3 DUP1 SLOAD PUSH2 0x6FC SWAP1 PUSH2 0xCEE JUMP JUMPDEST DUP1 PUSH1 0x1F ADD PUSH1 0x20 DUP1 SWAP2 DIV MUL PUSH1 0x20 ADD PUSH1 0x40 MLOAD SWAP1 DUP2 ADD PUSH1 0x40 MSTORE DUP1 SWAP3 SWAP2 SWAP1 DUP2 DUP2 MSTORE PUSH1 0x20 ADD DUP3 DUP1 SLOAD PUSH2 0x728 SWAP1 PUSH2 0xCEE JUMP JUMPDEST DUP1 ISZERO PUSH2 0x773 JUMPI DUP1 PUSH1 0x1F LT PUSH2 0x74A JUMPI PUSH2 0x100 DUP1 DUP4 SLOAD DIV MUL DUP4 MSTORE SWAP2 PUSH1 0x20 ADD SWAP2 PUSH2 0x773 JUMP JUMPDEST DUP3 ADD SWAP2 SWAP1 PUSH0 MSTORE PUSH1 0x20 PUSH0 KECCAK256 SWAP1 JUMPDEST DUP2 SLOAD DUP2 MSTORE SWAP1 PUSH1 0x1 ADD SWAP1 PUSH1 0x20 ADD DUP1 DUP4 GT PUSH2 0x756 JUMPI DUP3 SWAP1 SUB PUSH1 0x1F AND DUP3 ADD SWAP2 JUMPDEST POP POP POP POP POP SWAP3 POP DUP2 DUP1 SLOAD PUSH2 0x786 SWAP1 PUSH2 0xCEE JUMP JUMPDEST DUP1 PUSH1 0x1F ADD PUSH1 0x20 DUP1 SWAP2 DIV MUL PUSH1 0x20 ADD PUSH1 0x40 MLOAD SWAP1 DUP2 ADD PUSH1 0x40 MSTORE DUP1 SWAP3 SWAP2 SWAP1 DUP2 DUP2 MSTORE PUSH1 0x20 ADD DUP3 DUP1 SLOAD PUSH2 0x7B2 SWAP1 PUSH2 0xCEE JUMP JUMPDEST DUP1 ISZERO PUSH2 0x7FD JUMPI DUP1 PUSH1 0x1F LT PUSH2 0x7D4 JUMPI PUSH2 0x100 DUP1 DUP4 SLOAD DIV MUL DUP4 MSTORE SWAP2 PUSH1 0x20 ADD SWAP2 PUSH2 0x7FD JUMP JUMPDEST DUP3 ADD SWAP2 SWAP1 PUSH0 MSTORE PUSH1 0x20 PUSH0 KECCAK256 SWAP1 JUMPDEST DUP2 SLOAD DUP2 MSTORE SWAP1 PUSH1 0x1 ADD SWAP1 PUSH1 0x20 ADD DUP1 DUP4 GT PUSH2 0x7E0 JUMPI DUP3 SWAP1 SUB PUSH1 0x1F AND DUP3 ADD SWAP2 JUMPDEST POP POP POP POP POP SWAP2 POP SWAP3 POP SWAP3 POP SWAP3 POP SWAP1 SWAP2 SWAP3 JUMP JUMPDEST PUSH1 0x3 DUP1 SLOAD PUSH2 0x81C SWAP1 PUSH2 0xCEE JUMP JUMPDEST DUP1 PUSH1 0x1F ADD PUSH1 0x20 DUP1 SWAP2 DIV MUL PUSH1 0x20 ADD PUSH1 0x40 MLOAD SWAP1 DUP2 ADD PUSH1 0x40 MSTORE DUP1 SWAP3 SWAP2 SWAP1 DUP2 DUP2 MSTORE PUSH1 0x20 ADD DUP3 DUP1 SLOAD PUSH2 0x848 SWAP1 PUSH2 0xCEE JUMP JUMPDEST DUP1 ISZERO PUSH2 0x893 JUMPI DUP1 PUSH1 0x1F LT PUSH2 0x86A JUMPI PUSH2 0x100 DUP1 DUP4 SLOAD DIV MUL DUP4 MSTORE SWAP2 PUSH1 0x20 ADD SWAP2 PUSH2 0x893 JUMP JUMPDEST DUP3 ADD SWAP2 SWAP1 PUSH0 MSTORE PUSH1 0x20 PUSH0 KECCAK256 SWAP1 JUMPDEST DUP2 SLOAD DUP2 MSTORE SWAP1 PUSH1 0x1 ADD SWAP1 PUSH1 0x20 ADD DUP1 DUP4 GT PUSH2 0x876 JUMPI DUP3 SWAP1 SUB PUSH1 0x1F AND DUP3 ADD SWAP2 JUMPDEST POP POP POP POP POP DUP2 JUMP JUMPDEST PUSH1 0x7 DUP1 SLOAD PUSH2 0x8A8 SWAP1 PUSH2 0xCEE JUMP JUMPDEST DUP1 PUSH1 0x1F ADD PUSH1 0x20 DUP1 SWAP2 DIV MUL PUSH1 0x20 ADD PUSH1 0x40 MLOAD SWAP1 DUP2 ADD PUSH1 0x40 MSTORE DUP1 SWAP3 SWAP2 SWAP1 DUP2 DUP2 MSTORE PUSH1 0x20 ADD DUP3 DUP1 SLOAD PUSH2 0x8D4 SWAP1 PUSH2 0xCEE JUMP JUMPDEST DUP1 ISZERO PUSH2 0x91F JUMPI DUP1 PUSH1 0x1F LT PUSH2 0x8F6 JUMPI PUSH2 0x100 DUP1 DUP4 SLOAD DIV MUL DUP4 MSTORE SWAP2 PUSH1 0x20 ADD SWAP2 PUSH2 0x91F JUMP JUMPDEST DUP3 ADD SWAP2 SWAP1 PUSH0 MSTORE PUSH1 0x20 PUSH0 KECCAK256 SWAP1 JUMPDEST DUP2 SLOAD DUP2 MSTORE SWAP1 PUSH1 0x1 ADD SWAP1 PUSH1 0x20 ADD DUP1 DUP4 GT PUSH2 0x902 JUMPI DUP3 SWAP1 SUB PUSH1 0x1F AND DUP3 ADD SWAP2 JUMPDEST POP POP POP POP POP DUP2 JUMP JUMPDEST PUSH1 0x5 DUP1 SLOAD PUSH2 0x934 SWAP1 PUSH2 0xCEE JUMP JUMPDEST DUP1 PUSH1 0x1F ADD PUSH1 0x20 DUP1 SWAP2 DIV MUL PUSH1 0x20 ADD PUSH1 0x40 MLOAD SWAP1 DUP2 ADD PUSH1 0x40 MSTORE DUP1 SWAP3 SWAP2 SWAP1 DUP2 DUP2 MSTORE PUSH1 0x20 ADD DUP3 DUP1 SLOAD PUSH2 0x960 SWAP1 PUSH2 0xCEE JUMP JUMPDEST DUP1 ISZERO PUSH2 0x9AB JUMPI DUP1 PUSH1 0x1F LT PUSH2 0x982 JUMPI PUSH2 0x100 DUP1 DUP4 SLOAD DIV MUL DUP4 MSTORE SWAP2 PUSH1 0x20 ADD SWAP2 PUSH2 0x9AB JUMP JUMPDEST DUP3 ADD SWAP2 SWAP1 PUSH0 MSTORE PUSH1 0x20 PUSH0 KECCAK256 SWAP1 JUMPDEST DUP2 SLOAD DUP2 MSTORE SWAP1 PUSH1 0x1 ADD SWAP1 PUSH1 0x20 ADD DUP1 DUP4 GT PUSH2 0x98E JUMPI DUP3 SWAP1 SUB PUSH1 0x1F AND DUP3 ADD SWAP2 JUMPDEST POP POP POP POP POP DUP2 JUMP JUMPDEST PUSH0 DUP1 SLOAD PUSH2 0x9BF SWAP1 PUSH2 0xCEE JUMP JUMPDEST DUP1 PUSH1 0x1F ADD PUSH1 0x20 DUP1 SWAP2 DIV MUL PUSH1 0x20 ADD PUSH1 0x40 MLOAD SWAP1 DUP2 ADD PUSH1 0x40 MSTORE DUP1 SWAP3 SWAP2 SWAP1 DUP2 DUP2 MSTORE PUSH1 0x20 ADD DUP3 DUP1 SLOAD PUSH2 0x9EB SWAP1 PUSH2 0xCEE JUMP JUMPDEST DUP1 ISZERO PUSH2 0xA36 JUMPI DUP1 PUSH1 0x1F LT PUSH2 0xA0D JUMPI PUSH2 0x100 DUP1 DUP4 SLOAD DIV MUL DUP4 MSTORE SWAP2 PUSH1 0x20 ADD SWAP2 PUSH2 0xA36 JUMP JUMPDEST DUP3 ADD SWAP2 SWAP1 PUSH0 MSTORE PUSH1 0x20 PUSH0 KECCAK256 SWAP1 JUMPDEST DUP2 SLOAD DUP2 MSTORE SWAP1 PUSH1 0x1 ADD SWAP1 PUSH1 0x20 ADD DUP1 DUP4 GT PUSH2 0xA19 JUMPI DUP3 SWAP1 SUB PUSH1 0x1F AND DUP3 ADD SWAP2 JUMPDEST POP POP POP POP POP DUP2 JUMP JUMPDEST PUSH1 0x6 SLOAD DUP2 JUMP JUMPDEST PUSH1 0x60 PUSH1 0x3 PUSH1 0x4 PUSH1 0x5 PUSH1 0x6 SLOAD PUSH1 0x40 MLOAD PUSH1 0x20 ADD PUSH2 0xA62 SWAP5 SWAP4 SWAP3 SWAP2 SWAP1 PUSH2 0xFCF JUMP JUMPDEST PUSH1 0x40 MLOAD PUSH1 0x20 DUP2 DUP4 SUB SUB DUP2 MSTORE SWAP1 PUSH1 0x40 MSTORE SWAP1 POP SWAP1 JUMP JUMPDEST PUSH1 0x8 DUP1 SLOAD PUSH2 0xA83 SWAP1 PUSH2 0xCEE JUMP JUMPDEST DUP1 PUSH1 0x1F ADD PUSH1 0x20 DUP1 SWAP2 DIV MUL PUSH1 0x20 ADD PUSH1 0x40 MLOAD SWAP1 DUP2 ADD PUSH1 0x40 MSTORE DUP1 SWAP3 SWAP2 SWAP1 DUP2 DUP2 MSTORE PUSH1 0x20 ADD DUP3 DUP1 SLOAD PUSH2 0xAAF SWAP1 PUSH2 0xCEE JUMP JUMPDEST DUP1 ISZERO PUSH2 0xAFA JUMPI DUP1 PUSH1 0x1F LT PUSH2 0xAD1 JUMPI PUSH2 0x100 DUP1 DUP4 SLOAD DIV MUL DUP4 MSTORE SWAP2 PUSH1 0x20 ADD SWAP2 PUSH2 0xAFA JUMP JUMPDEST DUP3 ADD SWAP2 SWAP1 PUSH0 MSTORE PUSH1 0x20 PUSH0 KECCAK256 SWAP1 JUMPDEST DUP2 SLOAD DUP2 MSTORE SWAP1 PUSH1 0x1 ADD SWAP1 PUSH1 0x20 ADD DUP1 DUP4 GT PUSH2 0xADD JUMPI DUP3 SWAP1 SUB PUSH1 0x1F AND DUP3 ADD SWAP2 JUMPDEST POP POP POP POP POP DUP2 JUMP JUMPDEST PUSH1 0x60 PUSH0 PUSH1 0x1 PUSH1 0x2 SLOAD PUSH1 0x40 MLOAD PUSH1 0x20 ADD PUSH2 0xB1C SWAP4 SWAP3 SWAP2 SWAP1 PUSH2 0x111A JUMP JUMPDEST PUSH1 0x40 MLOAD PUSH1 0x20 DUP2 DUP4 SUB SUB DUP2 MSTORE SWAP1 PUSH1 0x40 MSTORE SWAP1 POP SWAP1 JUMP JUMPDEST PUSH0 DUP2 MLOAD SWAP1 POP SWAP2 SWAP1 POP JUMP JUMPDEST PUSH0 DUP3 DUP3 MSTORE PUSH1 0x20 DUP3 ADD SWAP1 POP SWAP3 SWAP2 POP POP JUMP JUMPDEST DUP3 DUP2 DUP4 MCOPY PUSH0 DUP4 DUP4 ADD MSTORE POP POP POP JUMP JUMPDEST PUSH0 PUSH1 0x1F NOT PUSH1 0x1F DUP4 ADD AND SWAP1 POP SWAP2 SWAP1 POP JUMP JUMPDEST PUSH0 PUSH2 0xB72 DUP3 PUSH2 0xB30 JUMP JUMPDEST PUSH2 0xB7C DUP2 DUP6 PUSH2 0xB3A JUMP JUMPDEST SWAP4 POP PUSH2 0xB8C DUP2 DUP6 PUSH1 0x20 DUP7 ADD PUSH2 0xB4A JUMP JUMPDEST PUSH2 0xB95 DUP2 PUSH2 0xB58 JUMP JUMPDEST DUP5 ADD SWAP2 POP POP SWAP3 SWAP2 POP POP JUMP JUMPDEST PUSH0 PUSH1 0x20 DUP3 ADD SWAP1 POP DUP2 DUP2 SUB PUSH0 DUP4 ADD MSTORE PUSH2 0xBB8 DUP2 DUP5 PUSH2 0xB68 JUMP JUMPDEST SWAP1 POP SWAP3 SWAP2 POP POP JUMP JUMPDEST PUSH0 PUSH1 0x40 DUP3 ADD SWAP1 POP DUP2 DUP2 SUB PUSH0 DUP4 ADD MSTORE PUSH2 0xBD8 DUP2 DUP6 PUSH2 0xB68 JUMP JUMPDEST SWAP1 POP DUP2 DUP2 SUB PUSH1 0x20 DUP4 ADD MSTORE PUSH2 0xBEC DUP2 DUP5 PUSH2 0xB68 JUMP JUMPDEST SWAP1 POP SWAP4 SWAP3 POP POP POP JUMP JUMPDEST PUSH0 DUP2 SWAP1 POP SWAP2 SWAP1 POP JUMP JUMPDEST PUSH2 0xC07 DUP2 PUSH2 0xBF5 JUMP JUMPDEST DUP3 MSTORE POP POP JUMP JUMPDEST PUSH0 PUSH1 0x80 DUP3 ADD SWAP1 POP DUP2 DUP2 SUB PUSH0 DUP4 ADD MSTORE PUSH2 0xC25 DUP2 DUP8 PUSH2 0xB68 JUMP JUMPDEST SWAP1 POP DUP2 DUP2 SUB PUSH1 0x20 DUP4 ADD MSTORE PUSH2 0xC39 DUP2 DUP7 PUSH2 0xB68 JUMP JUMPDEST SWAP1 POP DUP2 DUP2 SUB PUSH1 0x40 DUP4 ADD MSTORE PUSH2 0xC4D DUP2 DUP6 PUSH2 0xB68 JUMP JUMPDEST SWAP1 POP PUSH2 0xC5C PUSH1 0x60 DUP4 ADD DUP5 PUSH2 0xBFE JUMP JUMPDEST SWAP6 SWAP5 POP POP POP POP POP JUMP JUMPDEST PUSH0 PUSH1 0x20 DUP3 ADD SWAP1 POP PUSH2 0xC78 PUSH0 DUP4 ADD DUP5 PUSH2 0xBFE JUMP JUMPDEST SWAP3 SWAP2 POP POP JUMP JUMPDEST PUSH0 PUSH1 0x60 DUP3 ADD SWAP1 POP DUP2 DUP2 SUB PUSH0 DUP4 ADD MSTORE PUSH2 0xC96 DUP2 DUP7 PUSH2 0xB68 JUMP JUMPDEST SWAP1 POP DUP2 DUP2 SUB PUSH1 0x20 DUP4 ADD MSTORE PUSH2 0xCAA DUP2 DUP6 PUSH2 0xB68 JUMP JUMPDEST SWAP1 POP PUSH2 0xCB9 PUSH1 0x40 DUP4 ADD DUP5 PUSH2 0xBFE JUMP JUMPDEST SWAP5 SWAP4 POP POP POP POP JUMP JUMPDEST PUSH32 0x4E487B7100000000000000000000000000000000000000000000000000000000 PUSH0 MSTORE PUSH1 0x22 PUSH1 0x4 MSTORE PUSH1 0x24 PUSH0 REVERT JUMPDEST PUSH0 PUSH1 0x2 DUP3 DIV SWAP1 POP PUSH1 0x1 DUP3 AND DUP1 PUSH2 0xD05 JUMPI PUSH1 0x7F DUP3 AND SWAP2 POP JUMPDEST PUSH1 0x20 DUP3 LT DUP2 SUB PUSH2 0xD18 JUMPI PUSH2 0xD17 PUSH2 0xCC1 JUMP JUMPDEST JUMPDEST POP SWAP2 SWAP1 POP JUMP JUMPDEST PUSH0 DUP2 SWAP1 POP SWAP3 SWAP2 POP POP JUMP JUMPDEST PUSH32 0x4465706172746D656E743A200000000000000000000000000000000000000000 PUSH0 DUP3 ADD MSTORE POP JUMP JUMPDEST PUSH0 PUSH2 0xD5C PUSH1 0xC DUP4 PUSH2 0xD1E JUMP JUMPDEST SWAP2 POP PUSH2 0xD67 DUP3 PUSH2 0xD28 JUMP JUMPDEST PUSH1 0xC DUP3 ADD SWAP1 POP SWAP2 SWAP1 POP JUMP JUMPDEST PUSH0 DUP2 SWAP1 POP DUP2 PUSH0 MSTORE PUSH1 0x20 PUSH0 KECCAK256 SWAP1 POP SWAP2 SWAP1 POP JUMP JUMPDEST PUSH0 DUP2 SLOAD PUSH2 0xD90 DUP2 PUSH2 0xCEE JUMP JUMPDEST PUSH2 0xD9A DUP2 DUP7 PUSH2 0xD1E JUMP JUMPDEST SWAP5 POP PUSH1 0x1 DUP3 AND PUSH0 DUP2 EQ PUSH2 0xDB4 JUMPI PUSH1 0x1 DUP2 EQ PUSH2 0xDC9 JUMPI PUSH2 0xDFB JUMP JUMPDEST PUSH1 0xFF NOT DUP4 AND DUP7 MSTORE DUP2 ISZERO ISZERO DUP3 MUL DUP7 ADD SWAP4 POP PUSH2 0xDFB JUMP JUMPDEST PUSH2 0xDD2 DUP6 PUSH2 0xD72 JUMP JUMPDEST PUSH0 JUMPDEST DUP4 DUP2 LT ISZERO PUSH2 0xDF3 JUMPI DUP2 SLOAD DUP2 DUP10 ADD MSTORE PUSH1 0x1 DUP3 ADD SWAP2 POP PUSH1 0x20 DUP2 ADD SWAP1 POP PUSH2 0xDD4 JUMP JUMPDEST DUP4 DUP9 ADD SWAP6 POP POP POP JUMPDEST POP POP POP SWAP3 SWAP2 POP POP JUMP JUMPDEST PUSH32 0xA486561643A2000000000000000000000000000000000000000000000000000 PUSH0 DUP3 ADD MSTORE POP JUMP JUMPDEST PUSH0 PUSH2 0xE38 PUSH1 0x7 DUP4 PUSH2 0xD1E JUMP JUMPDEST SWAP2 POP PUSH2 0xE43 DUP3 PUSH2 0xE04 JUMP JUMPDEST PUSH1 0x7 DUP3 ADD SWAP1 POP SWAP2 SWAP1 POP JUMP JUMPDEST PUSH0 PUSH2 0xE58 DUP3 PUSH2 0xD50 JUMP JUMPDEST SWAP2 POP PUSH2 0xE64 DUP3 DUP6 PUSH2 0xD84 JUMP JUMPDEST SWAP2 POP PUSH2 0xE6F DUP3 PUSH2 0xE2C JUMP JUMPDEST SWAP2 POP PUSH2 0xE7B DUP3 DUP5 PUSH2 0xD84 JUMP JUMPDEST SWAP2 POP DUP2 SWAP1 POP SWAP4 SWAP3 POP POP POP JUMP JUMPDEST PUSH32 0x4E616D653A200000000000000000000000000000000000000000000000000000 PUSH0 DUP3 ADD MSTORE POP JUMP JUMPDEST PUSH0 PUSH2 0xEBB PUSH1 0x6 DUP4 PUSH2 0xD1E JUMP JUMPDEST SWAP2 POP PUSH2 0xEC6 DUP3 PUSH2 0xE87 JUMP JUMPDEST PUSH1 0x6 DUP3 ADD SWAP1 POP SWAP2 SWAP1 POP JUMP JUMPDEST PUSH32 0xA526567204E6F3A200000000000000000000000000000000000000000000000 PUSH0 DUP3 ADD MSTORE POP JUMP JUMPDEST PUSH0 PUSH2 0xF05 PUSH1 0x9 DUP4 PUSH2 0xD1E JUMP JUMPDEST SWAP2 POP PUSH2 0xF10 DUP3 PUSH2 0xED1 JUMP JUMPDEST PUSH1 0x9 DUP3 ADD SWAP1 POP SWAP2 SWAP1 POP JUMP JUMPDEST PUSH32 0xA456C6563746976653A20000000000000000000000000000000000000000000 PUSH0 DUP3 ADD MSTORE POP JUMP JUMPDEST PUSH0 PUSH2 0xF4F PUSH1 0xB DUP4 PUSH2 0xD1E JUMP JUMPDEST SWAP2 POP PUSH2 0xF5A DUP3 PUSH2 0xF1B JUMP JUMPDEST PUSH1 0xB DUP3 ADD SWAP1 POP SWAP2 SWAP1 POP JUMP JUMPDEST PUSH32 0xA41766572616765204D61726B733A2000000000000000000000000000000000 PUSH0 DUP3 ADD MSTORE POP JUMP JUMPDEST PUSH0 PUSH2 0xF99 PUSH1 0x10 DUP4 PUSH2 0xD1E JUMP JUMPDEST SWAP2 POP PUSH2 0xFA4 DUP3 PUSH2 0xF65 JUMP JUMPDEST PUSH1 0x10 DUP3 ADD SWAP1 POP SWAP2 SWAP1 POP JUMP JUMPDEST PUSH0 DUP2 SWAP1 POP SWAP2 SWAP1 POP JUMP JUMPDEST PUSH2 0xFC9 PUSH2 0xFC4 DUP3 PUSH2 0xBF5 JUMP JUMPDEST PUSH2 0xFAF JUMP JUMPDEST DUP3 MSTORE POP POP JUMP JUMPDEST PUSH0 PUSH2 0xFD9 DUP3 PUSH2 0xEAF JUMP JUMPDEST SWAP2 POP PUSH2 0xFE5 DUP3 DUP8 PUSH2 0xD84 JUMP JUMPDEST SWAP2 POP PUSH2 0xFF0 DUP3 PUSH2 0xEF9 JUMP JUMPDEST SWAP2 POP PUSH2 0xFFC DUP3 DUP7 PUSH2 0xD84 JUMP JUMPDEST SWAP2 POP PUSH2 0x1007 DUP3 PUSH2 0xF43 JUMP JUMPDEST SWAP2 POP PUSH2 0x1013 DUP3 DUP6 PUSH2 0xD84 JUMP JUMPDEST SWAP2 POP PUSH2 0x101E DUP3 PUSH2 0xF8D JUMP JUMPDEST SWAP2 POP PUSH2 0x102A DUP3 DUP5 PUSH2 0xFB8 JUMP JUMPDEST PUSH1 0x20 DUP3 ADD SWAP2 POP DUP2 SWAP1 POP SWAP6 SWAP5 POP POP POP POP POP JUMP JUMPDEST PUSH32 0x486F7374656C204E616D653A2000000000000000000000000000000000000000 PUSH0 DUP3 ADD MSTORE POP JUMP JUMPDEST PUSH0 PUSH2 0x1070 PUSH1 0xD DUP4 PUSH2 0xD1E JUMP JUMPDEST SWAP2 POP PUSH2 0x107B DUP3 PUSH2 0x103C JUMP JUMPDEST PUSH1 0xD DUP3 ADD SWAP1 POP SWAP2 SWAP1 POP JUMP JUMPDEST PUSH32 0xA4C6F636174696F6E3A20000000000000000000000000000000000000000000 PUSH0 DUP3 ADD MSTORE POP JUMP JUMPDEST PUSH0 PUSH2 0x10BA PUSH1 0xB DUP4 PUSH2 0xD1E JUMP JUMPDEST SWAP2 POP PUSH2 0x10C5 DUP3 PUSH2 0x1086 JUMP JUMPDEST PUSH1 0xB DUP3 ADD SWAP1 POP SWAP2 SWAP1 POP JUMP JUMPDEST PUSH32 0xA526F6F6D733A20000000000000000000000000000000000000000000000000 PUSH0 DUP3 ADD MSTORE POP JUMP JUMPDEST PUSH0 PUSH2 0x1104 PUSH1 0x8 DUP4 PUSH2 0xD1E JUMP JUMPDEST SWAP2 POP PUSH2 0x110F DUP3 PUSH2 0x10D0 JUMP JUMPDEST PUSH1 0x8 DUP3 ADD SWAP1 POP SWAP2 SWAP1 POP JUMP JUMPDEST PUSH0 PUSH2 0x1124 DUP3 PUSH2 0x1064 JUMP JUMPDEST SWAP2 POP PUSH2 0x1130 DUP3 DUP7 PUSH2 0xD84 JUMP JUMPDEST SWAP2 POP PUSH2 0x113B DUP3 PUSH2 0x10AE JUMP JUMPDEST SWAP2 POP PUSH2 0x1147 DUP3 DUP6 PUSH2 0xD84 JUMP JUMPDEST SWAP2 POP PUSH2 0x1152 DUP3 PUSH2 0x10F8 JUMP JUMPDEST SWAP2 POP PUSH2 0x115E DUP3 DUP5 PUSH2 0xFB8 JUMP JUMPDEST PUSH1 0x20 DUP3 ADD SWAP2 POP DUP2 SWAP1 POP SWAP5 SWAP4 POP POP POP POP JUMP INVALID LOG2 PUSH5 0x6970667358 0x22 SLT KECCAK256 PUSH26 0x4D356488F6B0C0BA0831D9C98DD8F3CC1824A574E76D656BE045 0xAE 0xE6 0xE5 SWAP10 0xB4 PUSH5 0x736F6C6343 STOP ADDMOD BYTE STOP CALLER LOG2 PUSH5 0x6970667358 0x22 SLT KECCAK256 0xBC 0xBC BYTE SWAP4 PUSH12 0xA252862511FD9F739FC1919D 0xD4 0xEB 0xFC 0xBB 0xB4 PUSH26 0xFE06E372D58584C75164736F6C634300081A0033000000000000 "
		},
		"gasEstimates": {
			"creation": {
				"codeDepositCost": "2254800",
				"executionCost": "2410",
				"totalCost": "2257210"
			},
			"external": {
				"admitStudent(string,string,string,uint256,string,string,string,string,uint256)": "infinite",
				"displayStudent(string)": "infinite",
				"migrateStudent(string,string,string,uint256)": "infinite",
				"regdNos(uint256)": "infinite",
				"students(string)": "infinite"
			}
		},
		"methodIdentifiers": {
			"admitStudent(string,string,string,uint256,string,string,string,string,uint256)": "00059893",
			"displayStudent(string)": "6881f23b",
			"migrateStudent(string,string,string,uint256)": "e0e95440",
			"regdNos(uint256)": "a0f9384d",
			"students(string)": "c7ef6bfb"
		}
	},
	"abi": [
		{
			"inputs": [
				{
					"internalType": "string",
					"name": "_studentName",
					"type": "string"
				},
				{
					"internalType": "string",
					"name": "_regdNo",
					"type": "string"
				},
				{
					"internalType": "string",
					"name": "_electiveSubject",
					"type": "string"
				},
				{
					"internalType": "uint256",
					"name": "_avgMarks",
					"type": "uint256"
				},
				{
					"internalType": "string",
					"name": "_deptName",
					"type": "string"
				},
				{
					"internalType": "string",
					"name": "_deptHead",
					"type": "string"
				},
				{
					"internalType": "string",
					"name": "_hostelName",
					"type": "string"
				},
				{
					"internalType": "string",
					"name": "_hostelLocation",
					"type": "string"
				},
				{
					"internalType": "uint256",
					"name": "_numberOfRooms",
					"type": "uint256"
				}
			],
			"name": "admitStudent",
			"outputs": [],
			"stateMutability": "nonpayable",
			"type": "function"
		},
		{
			"inputs": [
				{
					"internalType": "string",
					"name": "_regdNo",
					"type": "string"
				}
			],
			"name": "displayStudent",
			"outputs": [
				{
					"internalType": "string",
					"name": "",
					"type": "string"
				}
			],
			"stateMutability": "view",
			"type": "function"
		},
		{
			"inputs": [
				{
					"internalType": "string",
					"name": "_regdNo",
					"type": "string"
				},
				{
					"internalType": "string",
					"name": "_newHostel",
					"type": "string"
				},
				{
					"internalType": "string",
					"name": "_newLocation",
					"type": "string"
				},
				{
					"internalType": "uint256",
					"name": "_newRooms",
					"type": "uint256"
				}
			],
			"name": "migrateStudent",
			"outputs": [],
			"stateMutability": "nonpayable",
			"type": "function"
		},
		{
			"inputs": [
				{
					"internalType": "uint256",
					"name": "",
					"type": "uint256"
				}
			],
			"name": "regdNos",
			"outputs": [
				{
					"internalType": "string",
					"name": "",
					"type": "string"
				}
			],
			"stateMutability": "view",
			"type": "function"
		},
		{
			"inputs": [
				{
					"internalType": "string",
					"name": "",
					"type": "string"
				}
			],
			"name": "students",
			"outputs": [
				{
					"internalType": "contract Student",
					"name": "studentContract",
					"type": "address"
				},
				{
					"internalType": "string",
					"name": "regdNo",
					"type": "string"
				}
			],
			"stateMutability": "view",
			"type": "function"
		}
	]
}